{
	"contratoTransaccion.sol": {
		"CardNFTMarketNative": {
			"abi": [
				{
					"inputs": [
						{
							"internalType": "address",
							"name": "nftAddress",
							"type": "address"
						}
					],
					"stateMutability": "nonpayable",
					"type": "constructor"
				},
				{
					"anonymous": false,
					"inputs": [
						{
							"indexed": true,
							"internalType": "uint256",
							"name": "tokenId",
							"type": "uint256"
						},
						{
							"indexed": true,
							"internalType": "address",
							"name": "buyer",
							"type": "address"
						},
						{
							"indexed": true,
							"internalType": "address",
							"name": "seller",
							"type": "address"
						},
						{
							"indexed": false,
							"internalType": "uint256",
							"name": "price",
							"type": "uint256"
						}
					],
					"name": "Bought",
					"type": "event"
				},
				{
					"anonymous": false,
					"inputs": [
						{
							"indexed": true,
							"internalType": "uint256",
							"name": "tokenId",
							"type": "uint256"
						},
						{
							"indexed": true,
							"internalType": "address",
							"name": "seller",
							"type": "address"
						}
					],
					"name": "Cancelled",
					"type": "event"
				},
				{
					"anonymous": false,
					"inputs": [
						{
							"indexed": true,
							"internalType": "uint256",
							"name": "tokenId",
							"type": "uint256"
						},
						{
							"indexed": true,
							"internalType": "address",
							"name": "seller",
							"type": "address"
						},
						{
							"indexed": false,
							"internalType": "uint256",
							"name": "price",
							"type": "uint256"
						}
					],
					"name": "Listed",
					"type": "event"
				},
				{
					"anonymous": false,
					"inputs": [
						{
							"indexed": true,
							"internalType": "address",
							"name": "taker",
							"type": "address"
						},
						{
							"indexed": true,
							"internalType": "address",
							"name": "maker",
							"type": "address"
						},
						{
							"indexed": true,
							"internalType": "uint256",
							"name": "offeredTokenId",
							"type": "uint256"
						},
						{
							"indexed": false,
							"internalType": "uint256",
							"name": "wantedTokenId",
							"type": "uint256"
						}
					],
					"name": "SwapAccepted",
					"type": "event"
				},
				{
					"anonymous": false,
					"inputs": [
						{
							"indexed": true,
							"internalType": "address",
							"name": "maker",
							"type": "address"
						},
						{
							"indexed": true,
							"internalType": "uint256",
							"name": "offeredTokenId",
							"type": "uint256"
						}
					],
					"name": "SwapCancelled",
					"type": "event"
				},
				{
					"anonymous": false,
					"inputs": [
						{
							"indexed": true,
							"internalType": "address",
							"name": "maker",
							"type": "address"
						},
						{
							"indexed": true,
							"internalType": "uint256",
							"name": "offeredTokenId",
							"type": "uint256"
						},
						{
							"indexed": true,
							"internalType": "uint256",
							"name": "wantedTokenId",
							"type": "uint256"
						}
					],
					"name": "SwapOffered",
					"type": "event"
				},
				{
					"inputs": [
						{
							"internalType": "uint256",
							"name": "offeredTokenId",
							"type": "uint256"
						}
					],
					"name": "acceptSwap",
					"outputs": [],
					"stateMutability": "nonpayable",
					"type": "function"
				},
				{
					"inputs": [
						{
							"internalType": "uint256",
							"name": "tokenId",
							"type": "uint256"
						}
					],
					"name": "buy",
					"outputs": [],
					"stateMutability": "payable",
					"type": "function"
				},
				{
					"inputs": [
						{
							"internalType": "uint256",
							"name": "tokenId",
							"type": "uint256"
						}
					],
					"name": "cancel",
					"outputs": [],
					"stateMutability": "nonpayable",
					"type": "function"
				},
				{
					"inputs": [
						{
							"internalType": "uint256",
							"name": "offeredTokenId",
							"type": "uint256"
						}
					],
					"name": "cancelSwap",
					"outputs": [],
					"stateMutability": "nonpayable",
					"type": "function"
				},
				{
					"inputs": [
						{
							"internalType": "uint256",
							"name": "tokenId",
							"type": "uint256"
						},
						{
							"internalType": "uint256",
							"name": "price",
							"type": "uint256"
						}
					],
					"name": "list",
					"outputs": [],
					"stateMutability": "nonpayable",
					"type": "function"
				},
				{
					"inputs": [
						{
							"internalType": "uint256",
							"name": "",
							"type": "uint256"
						}
					],
					"name": "listings",
					"outputs": [
						{
							"internalType": "address",
							"name": "seller",
							"type": "address"
						},
						{
							"internalType": "uint256",
							"name": "price",
							"type": "uint256"
						}
					],
					"stateMutability": "view",
					"type": "function"
				},
				{
					"inputs": [],
					"name": "nft",
					"outputs": [
						{
							"internalType": "contract IERC721",
							"name": "",
							"type": "address"
						}
					],
					"stateMutability": "view",
					"type": "function"
				},
				{
					"inputs": [
						{
							"internalType": "uint256",
							"name": "offeredTokenId",
							"type": "uint256"
						},
						{
							"internalType": "uint256",
							"name": "wantedTokenId",
							"type": "uint256"
						}
					],
					"name": "offerSwap",
					"outputs": [],
					"stateMutability": "nonpayable",
					"type": "function"
				},
				{
					"inputs": [
						{
							"internalType": "uint256",
							"name": "",
							"type": "uint256"
						}
					],
					"name": "swapOffers",
					"outputs": [
						{
							"internalType": "address",
							"name": "maker",
							"type": "address"
						},
						{
							"internalType": "uint256",
							"name": "offeredTokenId",
							"type": "uint256"
						},
						{
							"internalType": "uint256",
							"name": "wantedTokenId",
							"type": "uint256"
						},
						{
							"internalType": "bool",
							"name": "active",
							"type": "bool"
						}
					],
					"stateMutability": "view",
					"type": "function"
				}
			],
			"devdoc": {
				"kind": "dev",
				"methods": {},
				"version": 1
			},
			"evm": {
				"assembly": "    /* \"contratoTransaccion.sol\":187:6620  contract CardNFTMarketNative is ReentrancyGuard {... */\n  mstore(0x40, 0xa0)\n    /* \"contratoTransaccion.sol\":1586:1719  constructor(address nftAddress) {... */\n  callvalue\n  dup1\n  iszero\n  tag_1\n  jumpi\n  0x00\n  dup1\n  revert\ntag_1:\n  pop\n  mload(0x40)\n  sub(codesize, bytecodeSize)\n  dup1\n  bytecodeSize\n  dup4\n  codecopy\n  dup2\n  dup2\n  add\n  0x40\n  mstore\n  dup2\n  add\n  swap1\n  tag_2\n  swap2\n  swap1\n  tag_3\n  jump\t// in\ntag_2:\n    /* \"@openzeppelin/contracts/security/ReentrancyGuard.sol\":1716:1717  1 */\n  0x01\n    /* \"@openzeppelin/contracts/security/ReentrancyGuard.sol\":1821:1828  _status */\n  0x00\n    /* \"@openzeppelin/contracts/security/ReentrancyGuard.sol\":1821:1843  _status = _NOT_ENTERED */\n  dup2\n  swap1\n  sstore\n  pop\n    /* \"contratoTransaccion.sol\":1659:1660  0 */\n  0x00\n    /* \"contratoTransaccion.sol\":1637:1661  nftAddress != address(0) */\n  0xffffffffffffffffffffffffffffffffffffffff\n  and\n    /* \"contratoTransaccion.sol\":1637:1647  nftAddress */\n  dup2\n    /* \"contratoTransaccion.sol\":1637:1661  nftAddress != address(0) */\n  0xffffffffffffffffffffffffffffffffffffffff\n  and\n  sub\n    /* \"contratoTransaccion.sol\":1629:1675  require(nftAddress != address(0), \"zero addr\") */\n  tag_8\n  jumpi\n  mload(0x40)\n  0x08c379a000000000000000000000000000000000000000000000000000000000\n  dup2\n  mstore\n  0x04\n  add\n  tag_9\n  swap1\n  tag_10\n  jump\t// in\ntag_9:\n  mload(0x40)\n  dup1\n  swap2\n  sub\n  swap1\n  revert\ntag_8:\n    /* \"contratoTransaccion.sol\":1700:1710  nftAddress */\n  dup1\n    /* \"contratoTransaccion.sol\":1686:1711  nft = IERC721(nftAddress) */\n  0xffffffffffffffffffffffffffffffffffffffff\n  and\n  0x80\n  dup2\n  0xffffffffffffffffffffffffffffffffffffffff\n  and\n  dup2\n  mstore\n  pop\n  pop\n    /* \"contratoTransaccion.sol\":1586:1719  constructor(address nftAddress) {... */\n  pop\n    /* \"contratoTransaccion.sol\":187:6620  contract CardNFTMarketNative is ReentrancyGuard {... */\n  jump(tag_11)\n    /* \"#utility.yul\":88:205   */\ntag_13:\n    /* \"#utility.yul\":197:198   */\n  0x00\n    /* \"#utility.yul\":194:195   */\n  dup1\n    /* \"#utility.yul\":187:199   */\n  revert\n    /* \"#utility.yul\":334:460   */\ntag_15:\n    /* \"#utility.yul\":371:378   */\n  0x00\n    /* \"#utility.yul\":411:453   */\n  0xffffffffffffffffffffffffffffffffffffffff\n    /* \"#utility.yul\":404:409   */\n  dup3\n    /* \"#utility.yul\":400:454   */\n  and\n    /* \"#utility.yul\":389:454   */\n  swap1\n  pop\n    /* \"#utility.yul\":334:460   */\n  swap2\n  swap1\n  pop\n  jump\t// out\n    /* \"#utility.yul\":466:562   */\ntag_16:\n    /* \"#utility.yul\":503:510   */\n  0x00\n    /* \"#utility.yul\":532:556   */\n  tag_28\n    /* \"#utility.yul\":550:555   */\n  dup3\n    /* \"#utility.yul\":532:556   */\n  tag_15\n  jump\t// in\ntag_28:\n    /* \"#utility.yul\":521:556   */\n  swap1\n  pop\n    /* \"#utility.yul\":466:562   */\n  swap2\n  swap1\n  pop\n  jump\t// out\n    /* \"#utility.yul\":568:690   */\ntag_17:\n    /* \"#utility.yul\":641:665   */\n  tag_30\n    /* \"#utility.yul\":659:664   */\n  dup2\n    /* \"#utility.yul\":641:665   */\n  tag_16\n  jump\t// in\ntag_30:\n    /* \"#utility.yul\":634:639   */\n  dup2\n    /* \"#utility.yul\":631:666   */\n  eq\n    /* \"#utility.yul\":621:684   */\n  tag_31\n  jumpi\n    /* \"#utility.yul\":680:681   */\n  0x00\n    /* \"#utility.yul\":677:678   */\n  dup1\n    /* \"#utility.yul\":670:682   */\n  revert\n    /* \"#utility.yul\":621:684   */\ntag_31:\n    /* \"#utility.yul\":568:690   */\n  pop\n  jump\t// out\n    /* \"#utility.yul\":696:839   */\ntag_18:\n    /* \"#utility.yul\":753:758   */\n  0x00\n    /* \"#utility.yul\":784:790   */\n  dup2\n    /* \"#utility.yul\":778:791   */\n  mload\n    /* \"#utility.yul\":769:791   */\n  swap1\n  pop\n    /* \"#utility.yul\":800:833   */\n  tag_33\n    /* \"#utility.yul\":827:832   */\n  dup2\n    /* \"#utility.yul\":800:833   */\n  tag_17\n  jump\t// in\ntag_33:\n    /* \"#utility.yul\":696:839   */\n  swap3\n  swap2\n  pop\n  pop\n  jump\t// out\n    /* \"#utility.yul\":845:1196   */\ntag_3:\n    /* \"#utility.yul\":915:921   */\n  0x00\n    /* \"#utility.yul\":964:966   */\n  0x20\n    /* \"#utility.yul\":952:961   */\n  dup3\n    /* \"#utility.yul\":943:950   */\n  dup5\n    /* \"#utility.yul\":939:962   */\n  sub\n    /* \"#utility.yul\":935:967   */\n  slt\n    /* \"#utility.yul\":932:1051   */\n  iszero\n  tag_35\n  jumpi\n    /* \"#utility.yul\":970:1049   */\n  tag_36\n  tag_13\n  jump\t// in\ntag_36:\n    /* \"#utility.yul\":932:1051   */\ntag_35:\n    /* \"#utility.yul\":1090:1091   */\n  0x00\n    /* \"#utility.yul\":1115:1179   */\n  tag_37\n    /* \"#utility.yul\":1171:1178   */\n  dup5\n    /* \"#utility.yul\":1162:1168   */\n  dup3\n    /* \"#utility.yul\":1151:1160   */\n  dup6\n    /* \"#utility.yul\":1147:1169   */\n  add\n    /* \"#utility.yul\":1115:1179   */\n  tag_18\n  jump\t// in\ntag_37:\n    /* \"#utility.yul\":1105:1179   */\n  swap2\n  pop\n    /* \"#utility.yul\":1061:1189   */\n  pop\n    /* \"#utility.yul\":845:1196   */\n  swap3\n  swap2\n  pop\n  pop\n  jump\t// out\n    /* \"#utility.yul\":1202:1371   */\ntag_19:\n    /* \"#utility.yul\":1286:1297   */\n  0x00\n    /* \"#utility.yul\":1320:1326   */\n  dup3\n    /* \"#utility.yul\":1315:1318   */\n  dup3\n    /* \"#utility.yul\":1308:1327   */\n  mstore\n    /* \"#utility.yul\":1360:1364   */\n  0x20\n    /* \"#utility.yul\":1355:1358   */\n  dup3\n    /* \"#utility.yul\":1351:1365   */\n  add\n    /* \"#utility.yul\":1336:1365   */\n  swap1\n  pop\n    /* \"#utility.yul\":1202:1371   */\n  swap3\n  swap2\n  pop\n  pop\n  jump\t// out\n    /* \"#utility.yul\":1377:1536   */\ntag_20:\n    /* \"#utility.yul\":1517:1528   */\n  0x7a65726f20616464720000000000000000000000000000000000000000000000\n    /* \"#utility.yul\":1513:1514   */\n  0x00\n    /* \"#utility.yul\":1505:1511   */\n  dup3\n    /* \"#utility.yul\":1501:1515   */\n  add\n    /* \"#utility.yul\":1494:1529   */\n  mstore\n    /* \"#utility.yul\":1377:1536   */\n  pop\n  jump\t// out\n    /* \"#utility.yul\":1542:1907   */\ntag_21:\n    /* \"#utility.yul\":1684:1687   */\n  0x00\n    /* \"#utility.yul\":1705:1771   */\n  tag_41\n    /* \"#utility.yul\":1769:1770   */\n  0x09\n    /* \"#utility.yul\":1764:1767   */\n  dup4\n    /* \"#utility.yul\":1705:1771   */\n  tag_19\n  jump\t// in\ntag_41:\n    /* \"#utility.yul\":1698:1771   */\n  swap2\n  pop\n    /* \"#utility.yul\":1780:1873   */\n  tag_42\n    /* \"#utility.yul\":1869:1872   */\n  dup3\n    /* \"#utility.yul\":1780:1873   */\n  tag_20\n  jump\t// in\ntag_42:\n    /* \"#utility.yul\":1898:1900   */\n  0x20\n    /* \"#utility.yul\":1893:1896   */\n  dup3\n    /* \"#utility.yul\":1889:1901   */\n  add\n    /* \"#utility.yul\":1882:1901   */\n  swap1\n  pop\n    /* \"#utility.yul\":1542:1907   */\n  swap2\n  swap1\n  pop\n  jump\t// out\n    /* \"#utility.yul\":1913:2332   */\ntag_10:\n    /* \"#utility.yul\":2079:2083   */\n  0x00\n    /* \"#utility.yul\":2117:2119   */\n  0x20\n    /* \"#utility.yul\":2106:2115   */\n  dup3\n    /* \"#utility.yul\":2102:2120   */\n  add\n    /* \"#utility.yul\":2094:2120   */\n  swap1\n  pop\n    /* \"#utility.yul\":2166:2175   */\n  dup2\n    /* \"#utility.yul\":2160:2164   */\n  dup2\n    /* \"#utility.yul\":2156:2176   */\n  sub\n    /* \"#utility.yul\":2152:2153   */\n  0x00\n    /* \"#utility.yul\":2141:2150   */\n  dup4\n    /* \"#utility.yul\":2137:2154   */\n  add\n    /* \"#utility.yul\":2130:2177   */\n  mstore\n    /* \"#utility.yul\":2194:2325   */\n  tag_44\n    /* \"#utility.yul\":2320:2324   */\n  dup2\n    /* \"#utility.yul\":2194:2325   */\n  tag_21\n  jump\t// in\ntag_44:\n    /* \"#utility.yul\":2186:2325   */\n  swap1\n  pop\n    /* \"#utility.yul\":1913:2332   */\n  swap2\n  swap1\n  pop\n  jump\t// out\n    /* \"contratoTransaccion.sol\":187:6620  contract CardNFTMarketNative is ReentrancyGuard {... */\ntag_11:\n  mload(0x80)\n  codecopy(0x00, dataOffset(sub_0), dataSize(sub_0))\n  0x00\n  assignImmutable(\"0x9a8b6999955579552efb49f9b1ba44e9b405d36c1cd9fda072316c810fd42bbd\")\n  return(0x00, dataSize(sub_0))\nstop\n\nsub_0: assembly {\n        /* \"contratoTransaccion.sol\":187:6620  contract CardNFTMarketNative is ReentrancyGuard {... */\n      mstore(0x40, 0x80)\n      jumpi(tag_1, lt(calldatasize, 0x04))\n      shr(0xe0, calldataload(0x00))\n      dup1\n      0x50fd7367\n      gt\n      tag_11\n      jumpi\n      dup1\n      0x50fd7367\n      eq\n      tag_6\n      jumpi\n      dup1\n      0x54d6a2b7\n      eq\n      tag_7\n      jumpi\n      dup1\n      0xa13f1c62\n      eq\n      tag_8\n      jumpi\n      dup1\n      0xd96a094a\n      eq\n      tag_9\n      jumpi\n      dup1\n      0xde74e57b\n      eq\n      tag_10\n      jumpi\n      jump(tag_1)\n    tag_11:\n      dup1\n      0x1bf33004\n      eq\n      tag_2\n      jumpi\n      dup1\n      0x1d3a566d\n      eq\n      tag_3\n      jumpi\n      dup1\n      0x40e58ee5\n      eq\n      tag_4\n      jumpi\n      dup1\n      0x47ccca02\n      eq\n      tag_5\n      jumpi\n    tag_1:\n      0x00\n      dup1\n      revert\n        /* \"contratoTransaccion.sol\":5330:6617  function acceptSwap(uint256 offeredTokenId) external nonReentrant {... */\n    tag_2:\n      callvalue\n      dup1\n      iszero\n      tag_12\n      jumpi\n      0x00\n      dup1\n      revert\n    tag_12:\n      pop\n      tag_13\n      0x04\n      dup1\n      calldatasize\n      sub\n      dup2\n      add\n      swap1\n      tag_14\n      swap2\n      swap1\n      tag_15\n      jump\t// in\n    tag_14:\n      tag_16\n      jump\t// in\n    tag_13:\n      stop\n        /* \"contratoTransaccion.sol\":4078:4996  function offerSwap(uint256 offeredTokenId, uint256 wantedTokenId) external {... */\n    tag_3:\n      callvalue\n      dup1\n      iszero\n      tag_17\n      jumpi\n      0x00\n      dup1\n      revert\n    tag_17:\n      pop\n      tag_18\n      0x04\n      dup1\n      calldatasize\n      sub\n      dup2\n      add\n      swap1\n      tag_19\n      swap2\n      swap1\n      tag_20\n      jump\t// in\n    tag_19:\n      tag_21\n      jump\t// in\n    tag_18:\n      stop\n        /* \"contratoTransaccion.sol\":2809:3101  function cancel(uint256 tokenId) external {... */\n    tag_4:\n      callvalue\n      dup1\n      iszero\n      tag_22\n      jumpi\n      0x00\n      dup1\n      revert\n    tag_22:\n      pop\n      tag_23\n      0x04\n      dup1\n      calldatasize\n      sub\n      dup2\n      add\n      swap1\n      tag_24\n      swap2\n      swap1\n      tag_15\n      jump\t// in\n    tag_24:\n      tag_25\n      jump\t// in\n    tag_23:\n      stop\n        /* \"contratoTransaccion.sol\":242:270  IERC721 public immutable nft */\n    tag_5:\n      callvalue\n      dup1\n      iszero\n      tag_26\n      jumpi\n      0x00\n      dup1\n      revert\n    tag_26:\n      pop\n      tag_27\n      tag_28\n      jump\t// in\n    tag_27:\n      mload(0x40)\n      tag_29\n      swap2\n      swap1\n      tag_30\n      jump\t// in\n    tag_29:\n      mload(0x40)\n      dup1\n      swap2\n      sub\n      swap1\n      return\n        /* \"contratoTransaccion.sol\":2356:2801  function list(uint256 tokenId, uint256 price) external {... */\n    tag_6:\n      callvalue\n      dup1\n      iszero\n      tag_31\n      jumpi\n      0x00\n      dup1\n      revert\n    tag_31:\n      pop\n      tag_32\n      0x04\n      dup1\n      calldatasize\n      sub\n      dup2\n      add\n      swap1\n      tag_33\n      swap2\n      swap1\n      tag_20\n      jump\t// in\n    tag_33:\n      tag_34\n      jump\t// in\n    tag_32:\n      stop\n        /* \"contratoTransaccion.sol\":5004:5322  function cancelSwap(uint256 offeredTokenId) external {... */\n    tag_7:\n      callvalue\n      dup1\n      iszero\n      tag_35\n      jumpi\n      0x00\n      dup1\n      revert\n    tag_35:\n      pop\n      tag_36\n      0x04\n      dup1\n      calldatasize\n      sub\n      dup2\n      add\n      swap1\n      tag_37\n      swap2\n      swap1\n      tag_15\n      jump\t// in\n    tag_37:\n      tag_38\n      jump\t// in\n    tag_36:\n      stop\n        /* \"contratoTransaccion.sol\":1168:1215  mapping(uint256 => SwapOffer) public swapOffers */\n    tag_8:\n      callvalue\n      dup1\n      iszero\n      tag_39\n      jumpi\n      0x00\n      dup1\n      revert\n    tag_39:\n      pop\n      tag_40\n      0x04\n      dup1\n      calldatasize\n      sub\n      dup2\n      add\n      swap1\n      tag_41\n      swap2\n      swap1\n      tag_15\n      jump\t// in\n    tag_41:\n      tag_42\n      jump\t// in\n    tag_40:\n      mload(0x40)\n      tag_43\n      swap5\n      swap4\n      swap3\n      swap2\n      swap1\n      tag_44\n      jump\t// in\n    tag_43:\n      mload(0x40)\n      dup1\n      swap2\n      sub\n      swap1\n      return\n        /* \"contratoTransaccion.sol\":3109:3971  function buy(uint256 tokenId) external payable nonReentrant {... */\n    tag_9:\n      tag_45\n      0x04\n      dup1\n      calldatasize\n      sub\n      dup2\n      add\n      swap1\n      tag_46\n      swap2\n      swap1\n      tag_15\n      jump\t// in\n    tag_46:\n      tag_47\n      jump\t// in\n    tag_45:\n      stop\n        /* \"contratoTransaccion.sol\":473:516  mapping(uint256 => Listing) public listings */\n    tag_10:\n      callvalue\n      dup1\n      iszero\n      tag_48\n      jumpi\n      0x00\n      dup1\n      revert\n    tag_48:\n      pop\n      tag_49\n      0x04\n      dup1\n      calldatasize\n      sub\n      dup2\n      add\n      swap1\n      tag_50\n      swap2\n      swap1\n      tag_15\n      jump\t// in\n    tag_50:\n      tag_51\n      jump\t// in\n    tag_49:\n      mload(0x40)\n      tag_52\n      swap3\n      swap2\n      swap1\n      tag_53\n      jump\t// in\n    tag_52:\n      mload(0x40)\n      dup1\n      swap2\n      sub\n      swap1\n      return\n        /* \"contratoTransaccion.sol\":5330:6617  function acceptSwap(uint256 offeredTokenId) external nonReentrant {... */\n    tag_16:\n        /* \"@openzeppelin/contracts/security/ReentrancyGuard.sol\":2261:2282  _nonReentrantBefore() */\n      tag_55\n        /* \"@openzeppelin/contracts/security/ReentrancyGuard.sol\":2261:2280  _nonReentrantBefore */\n      tag_56\n        /* \"@openzeppelin/contracts/security/ReentrancyGuard.sol\":2261:2282  _nonReentrantBefore() */\n      jump\t// in\n    tag_55:\n        /* \"contratoTransaccion.sol\":5407:5425  SwapOffer memory o */\n      0x00\n        /* \"contratoTransaccion.sol\":5428:5438  swapOffers */\n      0x02\n        /* \"contratoTransaccion.sol\":5428:5454  swapOffers[offeredTokenId] */\n      0x00\n        /* \"contratoTransaccion.sol\":5439:5453  offeredTokenId */\n      dup4\n        /* \"contratoTransaccion.sol\":5428:5454  swapOffers[offeredTokenId] */\n      dup2\n      mstore\n      0x20\n      add\n      swap1\n      dup2\n      mstore\n      0x20\n      add\n      0x00\n      keccak256\n        /* \"contratoTransaccion.sol\":5407:5454  SwapOffer memory o = swapOffers[offeredTokenId] */\n      mload(0x40)\n      dup1\n      0x80\n      add\n      0x40\n      mstore\n      swap1\n      dup2\n      0x00\n      dup3\n      add\n      0x00\n      swap1\n      sload\n      swap1\n      0x0100\n      exp\n      swap1\n      div\n      0xffffffffffffffffffffffffffffffffffffffff\n      and\n      0xffffffffffffffffffffffffffffffffffffffff\n      and\n      0xffffffffffffffffffffffffffffffffffffffff\n      and\n      dup2\n      mstore\n      0x20\n      add\n      0x01\n      dup3\n      add\n      sload\n      dup2\n      mstore\n      0x20\n      add\n      0x02\n      dup3\n      add\n      sload\n      dup2\n      mstore\n      0x20\n      add\n      0x03\n      dup3\n      add\n      0x00\n      swap1\n      sload\n      swap1\n      0x0100\n      exp\n      swap1\n      div\n      0xff\n      and\n      iszero\n      iszero\n      iszero\n      iszero\n      dup2\n      mstore\n      pop\n      pop\n      swap1\n      pop\n        /* \"contratoTransaccion.sol\":5473:5474  o */\n      dup1\n        /* \"contratoTransaccion.sol\":5473:5481  o.active */\n      0x60\n      add\n      mload\n        /* \"contratoTransaccion.sol\":5465:5496  require(o.active, \"not active\") */\n      tag_58\n      jumpi\n      mload(0x40)\n      0x08c379a000000000000000000000000000000000000000000000000000000000\n      dup2\n      mstore\n      0x04\n      add\n      tag_59\n      swap1\n      tag_60\n      jump\t// in\n    tag_59:\n      mload(0x40)\n      dup1\n      swap2\n      sub\n      swap1\n      revert\n    tag_58:\n        /* \"contratoTransaccion.sol\":5591:5592  o */\n      dup1\n        /* \"contratoTransaccion.sol\":5591:5598  o.maker */\n      0x00\n      add\n      mload\n        /* \"contratoTransaccion.sol\":5558:5598  nft.ownerOf(o.offeredTokenId) == o.maker */\n      0xffffffffffffffffffffffffffffffffffffffff\n      and\n        /* \"contratoTransaccion.sol\":5558:5561  nft */\n      immutable(\"0x9a8b6999955579552efb49f9b1ba44e9b405d36c1cd9fda072316c810fd42bbd\")\n        /* \"contratoTransaccion.sol\":5558:5569  nft.ownerOf */\n      0xffffffffffffffffffffffffffffffffffffffff\n      and\n      0x6352211e\n        /* \"contratoTransaccion.sol\":5570:5571  o */\n      dup4\n        /* \"contratoTransaccion.sol\":5570:5586  o.offeredTokenId */\n      0x20\n      add\n      mload\n        /* \"contratoTransaccion.sol\":5558:5587  nft.ownerOf(o.offeredTokenId) */\n      mload(0x40)\n      dup3\n      0xffffffff\n      and\n      0xe0\n      shl\n      dup2\n      mstore\n      0x04\n      add\n      tag_61\n      swap2\n      swap1\n      tag_62\n      jump\t// in\n    tag_61:\n      0x20\n      mload(0x40)\n      dup1\n      dup4\n      sub\n      dup2\n      dup7\n      gas\n      staticcall\n      iszero\n      dup1\n      iszero\n      tag_64\n      jumpi\n      returndatasize\n      0x00\n      dup1\n      returndatacopy\n      revert(0x00, returndatasize)\n    tag_64:\n      pop\n      pop\n      pop\n      pop\n      mload(0x40)\n      returndatasize\n      not(0x1f)\n      0x1f\n      dup3\n      add\n      and\n      dup3\n      add\n      dup1\n      0x40\n      mstore\n      pop\n      dup2\n      add\n      swap1\n      tag_65\n      swap2\n      swap1\n      tag_66\n      jump\t// in\n    tag_65:\n        /* \"contratoTransaccion.sol\":5558:5598  nft.ownerOf(o.offeredTokenId) == o.maker */\n      0xffffffffffffffffffffffffffffffffffffffff\n      and\n      eq\n        /* \"contratoTransaccion.sol\":5550:5622  require(nft.ownerOf(o.offeredTokenId) == o.maker, \"maker not owner now\") */\n      tag_67\n      jumpi\n      mload(0x40)\n      0x08c379a000000000000000000000000000000000000000000000000000000000\n      dup2\n      mstore\n      0x04\n      add\n      tag_68\n      swap1\n      tag_69\n      jump\t// in\n    tag_68:\n      mload(0x40)\n      dup1\n      swap2\n      sub\n      swap1\n      revert\n    tag_67:\n        /* \"contratoTransaccion.sol\":5673:5683  msg.sender */\n      caller\n        /* \"contratoTransaccion.sol\":5641:5683  nft.ownerOf(o.wantedTokenId) == msg.sender */\n      0xffffffffffffffffffffffffffffffffffffffff\n      and\n        /* \"contratoTransaccion.sol\":5641:5644  nft */\n      immutable(\"0x9a8b6999955579552efb49f9b1ba44e9b405d36c1cd9fda072316c810fd42bbd\")\n        /* \"contratoTransaccion.sol\":5641:5652  nft.ownerOf */\n      0xffffffffffffffffffffffffffffffffffffffff\n      and\n      0x6352211e\n        /* \"contratoTransaccion.sol\":5653:5654  o */\n      dup4\n        /* \"contratoTransaccion.sol\":5653:5668  o.wantedTokenId */\n      0x40\n      add\n      mload\n        /* \"contratoTransaccion.sol\":5641:5669  nft.ownerOf(o.wantedTokenId) */\n      mload(0x40)\n      dup3\n      0xffffffff\n      and\n      0xe0\n      shl\n      dup2\n      mstore\n      0x04\n      add\n      tag_70\n      swap2\n      swap1\n      tag_62\n      jump\t// in\n    tag_70:\n      0x20\n      mload(0x40)\n      dup1\n      dup4\n      sub\n      dup2\n      dup7\n      gas\n      staticcall\n      iszero\n      dup1\n      iszero\n      tag_72\n      jumpi\n      returndatasize\n      0x00\n      dup1\n      returndatacopy\n      revert(0x00, returndatasize)\n    tag_72:\n      pop\n      pop\n      pop\n      pop\n      mload(0x40)\n      returndatasize\n      not(0x1f)\n      0x1f\n      dup3\n      add\n      and\n      dup3\n      add\n      dup1\n      0x40\n      mstore\n      pop\n      dup2\n      add\n      swap1\n      tag_73\n      swap2\n      swap1\n      tag_66\n      jump\t// in\n    tag_73:\n        /* \"contratoTransaccion.sol\":5641:5683  nft.ownerOf(o.wantedTokenId) == msg.sender */\n      0xffffffffffffffffffffffffffffffffffffffff\n      and\n      eq\n        /* \"contratoTransaccion.sol\":5633:5710  require(nft.ownerOf(o.wantedTokenId) == msg.sender, \"taker not owner wanted\") */\n      tag_74\n      jumpi\n      mload(0x40)\n      0x08c379a000000000000000000000000000000000000000000000000000000000\n      dup2\n      mstore\n      0x04\n      add\n      tag_75\n      swap1\n      tag_76\n      jump\t// in\n    tag_75:\n      mload(0x40)\n      dup1\n      swap2\n      sub\n      swap1\n      revert\n    tag_74:\n        /* \"contratoTransaccion.sol\":5798:5843  _isApprovedOrOwner(o.maker, o.offeredTokenId) */\n      tag_77\n        /* \"contratoTransaccion.sol\":5817:5818  o */\n      dup2\n        /* \"contratoTransaccion.sol\":5817:5824  o.maker */\n      0x00\n      add\n      mload\n        /* \"contratoTransaccion.sol\":5826:5827  o */\n      dup3\n        /* \"contratoTransaccion.sol\":5826:5842  o.offeredTokenId */\n      0x20\n      add\n      mload\n        /* \"contratoTransaccion.sol\":5798:5816  _isApprovedOrOwner */\n      tag_78\n        /* \"contratoTransaccion.sol\":5798:5843  _isApprovedOrOwner(o.maker, o.offeredTokenId) */\n      jump\t// in\n    tag_77:\n        /* \"contratoTransaccion.sol\":5790:5875  require(_isApprovedOrOwner(o.maker, o.offeredTokenId), \"market not approved offered\") */\n      tag_79\n      jumpi\n      mload(0x40)\n      0x08c379a000000000000000000000000000000000000000000000000000000000\n      dup2\n      mstore\n      0x04\n      add\n      tag_80\n      swap1\n      tag_81\n      jump\t// in\n    tag_80:\n      mload(0x40)\n      dup1\n      swap2\n      sub\n      swap1\n      revert\n    tag_79:\n        /* \"contratoTransaccion.sol\":5894:5941  _isApprovedOrOwner(msg.sender, o.wantedTokenId) */\n      tag_82\n        /* \"contratoTransaccion.sol\":5913:5923  msg.sender */\n      caller\n        /* \"contratoTransaccion.sol\":5925:5926  o */\n      dup3\n        /* \"contratoTransaccion.sol\":5925:5940  o.wantedTokenId */\n      0x40\n      add\n      mload\n        /* \"contratoTransaccion.sol\":5894:5912  _isApprovedOrOwner */\n      tag_78\n        /* \"contratoTransaccion.sol\":5894:5941  _isApprovedOrOwner(msg.sender, o.wantedTokenId) */\n      jump\t// in\n    tag_82:\n        /* \"contratoTransaccion.sol\":5886:5972  require(_isApprovedOrOwner(msg.sender, o.wantedTokenId), \"market not approved wanted\") */\n      tag_83\n      jumpi\n      mload(0x40)\n      0x08c379a000000000000000000000000000000000000000000000000000000000\n      dup2\n      mstore\n      0x04\n      add\n      tag_84\n      swap1\n      tag_85\n      jump\t// in\n    tag_84:\n      mload(0x40)\n      dup1\n      swap2\n      sub\n      swap1\n      revert\n    tag_83:\n        /* \"contratoTransaccion.sol\":6114:6115  0 */\n      0x00\n        /* \"contratoTransaccion.sol\":6069:6116  listings[o.offeredTokenId].seller == address(0) */\n      0xffffffffffffffffffffffffffffffffffffffff\n      and\n        /* \"contratoTransaccion.sol\":6069:6077  listings */\n      0x01\n        /* \"contratoTransaccion.sol\":6069:6095  listings[o.offeredTokenId] */\n      0x00\n        /* \"contratoTransaccion.sol\":6078:6079  o */\n      dup4\n        /* \"contratoTransaccion.sol\":6078:6094  o.offeredTokenId */\n      0x20\n      add\n      mload\n        /* \"contratoTransaccion.sol\":6069:6095  listings[o.offeredTokenId] */\n      dup2\n      mstore\n      0x20\n      add\n      swap1\n      dup2\n      mstore\n      0x20\n      add\n      0x00\n      keccak256\n        /* \"contratoTransaccion.sol\":6069:6102  listings[o.offeredTokenId].seller */\n      0x00\n      add\n      0x00\n      swap1\n      sload\n      swap1\n      0x0100\n      exp\n      swap1\n      div\n      0xffffffffffffffffffffffffffffffffffffffff\n      and\n        /* \"contratoTransaccion.sol\":6069:6116  listings[o.offeredTokenId].seller == address(0) */\n      0xffffffffffffffffffffffffffffffffffffffff\n      and\n      eq\n        /* \"contratoTransaccion.sol\":6061:6141  require(listings[o.offeredTokenId].seller == address(0), \"offered token listed\") */\n      tag_86\n      jumpi\n      mload(0x40)\n      0x08c379a000000000000000000000000000000000000000000000000000000000\n      dup2\n      mstore\n      0x04\n      add\n      tag_87\n      swap1\n      tag_88\n      jump\t// in\n    tag_87:\n      mload(0x40)\n      dup1\n      swap2\n      sub\n      swap1\n      revert\n    tag_86:\n        /* \"contratoTransaccion.sol\":6204:6205  0 */\n      0x00\n        /* \"contratoTransaccion.sol\":6160:6206  listings[o.wantedTokenId].seller == address(0) */\n      0xffffffffffffffffffffffffffffffffffffffff\n      and\n        /* \"contratoTransaccion.sol\":6160:6168  listings */\n      0x01\n        /* \"contratoTransaccion.sol\":6160:6185  listings[o.wantedTokenId] */\n      0x00\n        /* \"contratoTransaccion.sol\":6169:6170  o */\n      dup4\n        /* \"contratoTransaccion.sol\":6169:6184  o.wantedTokenId */\n      0x40\n      add\n      mload\n        /* \"contratoTransaccion.sol\":6160:6185  listings[o.wantedTokenId] */\n      dup2\n      mstore\n      0x20\n      add\n      swap1\n      dup2\n      mstore\n      0x20\n      add\n      0x00\n      keccak256\n        /* \"contratoTransaccion.sol\":6160:6192  listings[o.wantedTokenId].seller */\n      0x00\n      add\n      0x00\n      swap1\n      sload\n      swap1\n      0x0100\n      exp\n      swap1\n      div\n      0xffffffffffffffffffffffffffffffffffffffff\n      and\n        /* \"contratoTransaccion.sol\":6160:6206  listings[o.wantedTokenId].seller == address(0) */\n      0xffffffffffffffffffffffffffffffffffffffff\n      and\n      eq\n        /* \"contratoTransaccion.sol\":6152:6230  require(listings[o.wantedTokenId].seller == address(0), \"wanted token listed\") */\n      tag_89\n      jumpi\n      mload(0x40)\n      0x08c379a000000000000000000000000000000000000000000000000000000000\n      dup2\n      mstore\n      0x04\n      add\n      tag_90\n      swap1\n      tag_91\n      jump\t// in\n    tag_90:\n      mload(0x40)\n      dup1\n      swap2\n      sub\n      swap1\n      revert\n    tag_89:\n        /* \"contratoTransaccion.sol\":6278:6288  swapOffers */\n      0x02\n        /* \"contratoTransaccion.sol\":6278:6304  swapOffers[offeredTokenId] */\n      0x00\n        /* \"contratoTransaccion.sol\":6289:6303  offeredTokenId */\n      dup4\n        /* \"contratoTransaccion.sol\":6278:6304  swapOffers[offeredTokenId] */\n      dup2\n      mstore\n      0x20\n      add\n      swap1\n      dup2\n      mstore\n      0x20\n      add\n      0x00\n      keccak256\n      0x00\n        /* \"contratoTransaccion.sol\":6271:6304  delete swapOffers[offeredTokenId] */\n      dup1\n      dup3\n      add\n      exp(0x0100, 0x00)\n      dup2\n      sload\n      swap1\n      0xffffffffffffffffffffffffffffffffffffffff\n      mul\n      not\n      and\n      swap1\n      sstore\n      0x01\n      dup3\n      add\n      0x00\n      swap1\n      sstore\n      0x02\n      dup3\n      add\n      0x00\n      swap1\n      sstore\n      0x03\n      dup3\n      add\n      exp(0x0100, 0x00)\n      dup2\n      sload\n      swap1\n      0xff\n      mul\n      not\n      and\n      swap1\n      sstore\n      pop\n      pop\n        /* \"contratoTransaccion.sol\":6395:6398  nft */\n      immutable(\"0x9a8b6999955579552efb49f9b1ba44e9b405d36c1cd9fda072316c810fd42bbd\")\n        /* \"contratoTransaccion.sol\":6395:6415  nft.safeTransferFrom */\n      0xffffffffffffffffffffffffffffffffffffffff\n      and\n      0x42842e0e\n        /* \"contratoTransaccion.sol\":6416:6417  o */\n      dup3\n        /* \"contratoTransaccion.sol\":6416:6423  o.maker */\n      0x00\n      add\n      mload\n        /* \"contratoTransaccion.sol\":6425:6435  msg.sender */\n      caller\n        /* \"contratoTransaccion.sol\":6437:6438  o */\n      dup5\n        /* \"contratoTransaccion.sol\":6437:6453  o.offeredTokenId */\n      0x20\n      add\n      mload\n        /* \"contratoTransaccion.sol\":6395:6454  nft.safeTransferFrom(o.maker, msg.sender, o.offeredTokenId) */\n      mload(0x40)\n      dup5\n      0xffffffff\n      and\n      0xe0\n      shl\n      dup2\n      mstore\n      0x04\n      add\n      tag_92\n      swap4\n      swap3\n      swap2\n      swap1\n      tag_93\n      jump\t// in\n    tag_92:\n      0x00\n      mload(0x40)\n      dup1\n      dup4\n      sub\n      dup2\n      0x00\n      dup8\n      dup1\n      extcodesize\n      iszero\n      dup1\n      iszero\n      tag_94\n      jumpi\n      0x00\n      dup1\n      revert\n    tag_94:\n      pop\n      gas\n      call\n      iszero\n      dup1\n      iszero\n      tag_96\n      jumpi\n      returndatasize\n      0x00\n      dup1\n      returndatacopy\n      revert(0x00, returndatasize)\n    tag_96:\n      pop\n      pop\n      pop\n      pop\n        /* \"contratoTransaccion.sol\":6465:6468  nft */\n      immutable(\"0x9a8b6999955579552efb49f9b1ba44e9b405d36c1cd9fda072316c810fd42bbd\")\n        /* \"contratoTransaccion.sol\":6465:6485  nft.safeTransferFrom */\n      0xffffffffffffffffffffffffffffffffffffffff\n      and\n      0x42842e0e\n        /* \"contratoTransaccion.sol\":6486:6496  msg.sender */\n      caller\n        /* \"contratoTransaccion.sol\":6498:6499  o */\n      dup4\n        /* \"contratoTransaccion.sol\":6498:6505  o.maker */\n      0x00\n      add\n      mload\n        /* \"contratoTransaccion.sol\":6507:6508  o */\n      dup5\n        /* \"contratoTransaccion.sol\":6507:6522  o.wantedTokenId */\n      0x40\n      add\n      mload\n        /* \"contratoTransaccion.sol\":6465:6523  nft.safeTransferFrom(msg.sender, o.maker, o.wantedTokenId) */\n      mload(0x40)\n      dup5\n      0xffffffff\n      and\n      0xe0\n      shl\n      dup2\n      mstore\n      0x04\n      add\n      tag_97\n      swap4\n      swap3\n      swap2\n      swap1\n      tag_93\n      jump\t// in\n    tag_97:\n      0x00\n      mload(0x40)\n      dup1\n      dup4\n      sub\n      dup2\n      0x00\n      dup8\n      dup1\n      extcodesize\n      iszero\n      dup1\n      iszero\n      tag_98\n      jumpi\n      0x00\n      dup1\n      revert\n    tag_98:\n      pop\n      gas\n      call\n      iszero\n      dup1\n      iszero\n      tag_100\n      jumpi\n      returndatasize\n      0x00\n      dup1\n      returndatacopy\n      revert(0x00, returndatasize)\n    tag_100:\n      pop\n      pop\n      pop\n      pop\n        /* \"contratoTransaccion.sol\":6575:6576  o */\n      dup1\n        /* \"contratoTransaccion.sol\":6575:6591  o.offeredTokenId */\n      0x20\n      add\n      mload\n        /* \"contratoTransaccion.sol\":6566:6567  o */\n      dup2\n        /* \"contratoTransaccion.sol\":6566:6573  o.maker */\n      0x00\n      add\n      mload\n        /* \"contratoTransaccion.sol\":6541:6609  SwapAccepted(msg.sender, o.maker, o.offeredTokenId, o.wantedTokenId) */\n      0xffffffffffffffffffffffffffffffffffffffff\n      and\n        /* \"contratoTransaccion.sol\":6554:6564  msg.sender */\n      caller\n        /* \"contratoTransaccion.sol\":6541:6609  SwapAccepted(msg.sender, o.maker, o.offeredTokenId, o.wantedTokenId) */\n      0xffffffffffffffffffffffffffffffffffffffff\n      and\n      0x37578ceed127276672e60dff20964adc31b310721884d9797f5d273a0e08a83f\n        /* \"contratoTransaccion.sol\":6593:6594  o */\n      dup5\n        /* \"contratoTransaccion.sol\":6593:6608  o.wantedTokenId */\n      0x40\n      add\n      mload\n        /* \"contratoTransaccion.sol\":6541:6609  SwapAccepted(msg.sender, o.maker, o.offeredTokenId, o.wantedTokenId) */\n      mload(0x40)\n      tag_101\n      swap2\n      swap1\n      tag_62\n      jump\t// in\n    tag_101:\n      mload(0x40)\n      dup1\n      swap2\n      sub\n      swap1\n      log4\n        /* \"contratoTransaccion.sol\":5396:6617  {... */\n      pop\n        /* \"@openzeppelin/contracts/security/ReentrancyGuard.sol\":2303:2323  _nonReentrantAfter() */\n      tag_102\n        /* \"@openzeppelin/contracts/security/ReentrancyGuard.sol\":2303:2321  _nonReentrantAfter */\n      tag_103\n        /* \"@openzeppelin/contracts/security/ReentrancyGuard.sol\":2303:2323  _nonReentrantAfter() */\n      jump\t// in\n    tag_102:\n        /* \"contratoTransaccion.sol\":5330:6617  function acceptSwap(uint256 offeredTokenId) external nonReentrant {... */\n      pop\n      jump\t// out\n        /* \"contratoTransaccion.sol\":4078:4996  function offerSwap(uint256 offeredTokenId, uint256 wantedTokenId) external {... */\n    tag_21:\n        /* \"contratoTransaccion.sol\":4190:4203  wantedTokenId */\n      dup1\n        /* \"contratoTransaccion.sol\":4172:4186  offeredTokenId */\n      dup3\n        /* \"contratoTransaccion.sol\":4172:4203  offeredTokenId != wantedTokenId */\n      sub\n        /* \"contratoTransaccion.sol\":4164:4218  require(offeredTokenId != wantedTokenId, \"same token\") */\n      tag_105\n      jumpi\n      mload(0x40)\n      0x08c379a000000000000000000000000000000000000000000000000000000000\n      dup2\n      mstore\n      0x04\n      add\n      tag_106\n      swap1\n      tag_107\n      jump\t// in\n    tag_106:\n      mload(0x40)\n      dup1\n      swap2\n      sub\n      swap1\n      revert\n    tag_105:\n        /* \"contratoTransaccion.sol\":4268:4278  msg.sender */\n      caller\n        /* \"contratoTransaccion.sol\":4237:4278  nft.ownerOf(offeredTokenId) == msg.sender */\n      0xffffffffffffffffffffffffffffffffffffffff\n      and\n        /* \"contratoTransaccion.sol\":4237:4240  nft */\n      immutable(\"0x9a8b6999955579552efb49f9b1ba44e9b405d36c1cd9fda072316c810fd42bbd\")\n        /* \"contratoTransaccion.sol\":4237:4248  nft.ownerOf */\n      0xffffffffffffffffffffffffffffffffffffffff\n      and\n      0x6352211e\n        /* \"contratoTransaccion.sol\":4249:4263  offeredTokenId */\n      dup5\n        /* \"contratoTransaccion.sol\":4237:4264  nft.ownerOf(offeredTokenId) */\n      mload(0x40)\n      dup3\n      0xffffffff\n      and\n      0xe0\n      shl\n      dup2\n      mstore\n      0x04\n      add\n      tag_108\n      swap2\n      swap1\n      tag_62\n      jump\t// in\n    tag_108:\n      0x20\n      mload(0x40)\n      dup1\n      dup4\n      sub\n      dup2\n      dup7\n      gas\n      staticcall\n      iszero\n      dup1\n      iszero\n      tag_110\n      jumpi\n      returndatasize\n      0x00\n      dup1\n      returndatacopy\n      revert(0x00, returndatasize)\n    tag_110:\n      pop\n      pop\n      pop\n      pop\n      mload(0x40)\n      returndatasize\n      not(0x1f)\n      0x1f\n      dup3\n      add\n      and\n      dup3\n      add\n      dup1\n      0x40\n      mstore\n      pop\n      dup2\n      add\n      swap1\n      tag_111\n      swap2\n      swap1\n      tag_66\n      jump\t// in\n    tag_111:\n        /* \"contratoTransaccion.sol\":4237:4278  nft.ownerOf(offeredTokenId) == msg.sender */\n      0xffffffffffffffffffffffffffffffffffffffff\n      and\n      eq\n        /* \"contratoTransaccion.sol\":4229:4300  require(nft.ownerOf(offeredTokenId) == msg.sender, \"not owner offered\") */\n      tag_112\n      jumpi\n      mload(0x40)\n      0x08c379a000000000000000000000000000000000000000000000000000000000\n      dup2\n      mstore\n      0x04\n      add\n      tag_113\n      swap1\n      tag_114\n      jump\t// in\n    tag_113:\n      mload(0x40)\n      dup1\n      swap2\n      sub\n      swap1\n      revert\n    tag_112:\n        /* \"contratoTransaccion.sol\":4406:4452  _isApprovedOrOwner(msg.sender, offeredTokenId) */\n      tag_115\n        /* \"contratoTransaccion.sol\":4425:4435  msg.sender */\n      caller\n        /* \"contratoTransaccion.sol\":4437:4451  offeredTokenId */\n      dup4\n        /* \"contratoTransaccion.sol\":4406:4424  _isApprovedOrOwner */\n      tag_78\n        /* \"contratoTransaccion.sol\":4406:4452  _isApprovedOrOwner(msg.sender, offeredTokenId) */\n      jump\t// in\n    tag_115:\n        /* \"contratoTransaccion.sol\":4398:4484  require(_isApprovedOrOwner(msg.sender, offeredTokenId), \"market not approved offered\") */\n      tag_116\n      jumpi\n      mload(0x40)\n      0x08c379a000000000000000000000000000000000000000000000000000000000\n      dup2\n      mstore\n      0x04\n      add\n      tag_117\n      swap1\n      tag_81\n      jump\t// in\n    tag_117:\n      mload(0x40)\n      dup1\n      swap2\n      sub\n      swap1\n      revert\n    tag_116:\n        /* \"contratoTransaccion.sol\":4678:4679  0 */\n      0x00\n        /* \"contratoTransaccion.sol\":4635:4680  listings[offeredTokenId].seller == address(0) */\n      0xffffffffffffffffffffffffffffffffffffffff\n      and\n        /* \"contratoTransaccion.sol\":4635:4643  listings */\n      0x01\n        /* \"contratoTransaccion.sol\":4635:4659  listings[offeredTokenId] */\n      0x00\n        /* \"contratoTransaccion.sol\":4644:4658  offeredTokenId */\n      dup5\n        /* \"contratoTransaccion.sol\":4635:4659  listings[offeredTokenId] */\n      dup2\n      mstore\n      0x20\n      add\n      swap1\n      dup2\n      mstore\n      0x20\n      add\n      0x00\n      keccak256\n        /* \"contratoTransaccion.sol\":4635:4666  listings[offeredTokenId].seller */\n      0x00\n      add\n      0x00\n      swap1\n      sload\n      swap1\n      0x0100\n      exp\n      swap1\n      div\n      0xffffffffffffffffffffffffffffffffffffffff\n      and\n        /* \"contratoTransaccion.sol\":4635:4680  listings[offeredTokenId].seller == address(0) */\n      0xffffffffffffffffffffffffffffffffffffffff\n      and\n      eq\n        /* \"contratoTransaccion.sol\":4627:4705  require(listings[offeredTokenId].seller == address(0), \"offered token listed\") */\n      tag_118\n      jumpi\n      mload(0x40)\n      0x08c379a000000000000000000000000000000000000000000000000000000000\n      dup2\n      mstore\n      0x04\n      add\n      tag_119\n      swap1\n      tag_88\n      jump\t// in\n    tag_119:\n      mload(0x40)\n      dup1\n      swap2\n      sub\n      swap1\n      revert\n    tag_118:\n        /* \"contratoTransaccion.sol\":4747:4916  SwapOffer({... */\n      mload(0x40)\n      dup1\n      0x80\n      add\n      0x40\n      mstore\n      dup1\n        /* \"contratoTransaccion.sol\":4779:4789  msg.sender */\n      caller\n        /* \"contratoTransaccion.sol\":4747:4916  SwapOffer({... */\n      0xffffffffffffffffffffffffffffffffffffffff\n      and\n      dup2\n      mstore\n      0x20\n      add\n        /* \"contratoTransaccion.sol\":4820:4834  offeredTokenId */\n      dup4\n        /* \"contratoTransaccion.sol\":4747:4916  SwapOffer({... */\n      dup2\n      mstore\n      0x20\n      add\n        /* \"contratoTransaccion.sol\":4864:4877  wantedTokenId */\n      dup3\n        /* \"contratoTransaccion.sol\":4747:4916  SwapOffer({... */\n      dup2\n      mstore\n      0x20\n      add\n        /* \"contratoTransaccion.sol\":4900:4904  true */\n      0x01\n        /* \"contratoTransaccion.sol\":4747:4916  SwapOffer({... */\n      iszero\n      iszero\n      dup2\n      mstore\n      pop\n        /* \"contratoTransaccion.sol\":4718:4728  swapOffers */\n      0x02\n        /* \"contratoTransaccion.sol\":4718:4744  swapOffers[offeredTokenId] */\n      0x00\n        /* \"contratoTransaccion.sol\":4729:4743  offeredTokenId */\n      dup5\n        /* \"contratoTransaccion.sol\":4718:4744  swapOffers[offeredTokenId] */\n      dup2\n      mstore\n      0x20\n      add\n      swap1\n      dup2\n      mstore\n      0x20\n      add\n      0x00\n      keccak256\n        /* \"contratoTransaccion.sol\":4718:4916  swapOffers[offeredTokenId] = SwapOffer({... */\n      0x00\n      dup3\n      add\n      mload\n      dup2\n      0x00\n      add\n      exp(0x0100, 0x00)\n      dup2\n      sload\n      dup2\n      0xffffffffffffffffffffffffffffffffffffffff\n      mul\n      not\n      and\n      swap1\n      dup4\n      0xffffffffffffffffffffffffffffffffffffffff\n      and\n      mul\n      or\n      swap1\n      sstore\n      pop\n      0x20\n      dup3\n      add\n      mload\n      dup2\n      0x01\n      add\n      sstore\n      0x40\n      dup3\n      add\n      mload\n      dup2\n      0x02\n      add\n      sstore\n      0x60\n      dup3\n      add\n      mload\n      dup2\n      0x03\n      add\n      exp(0x0100, 0x00)\n      dup2\n      sload\n      dup2\n      0xff\n      mul\n      not\n      and\n      swap1\n      dup4\n      iszero\n      iszero\n      mul\n      or\n      swap1\n      sstore\n      pop\n      swap1\n      pop\n      pop\n        /* \"contratoTransaccion.sol\":4974:4987  wantedTokenId */\n      dup1\n        /* \"contratoTransaccion.sol\":4958:4972  offeredTokenId */\n      dup3\n        /* \"contratoTransaccion.sol\":4946:4956  msg.sender */\n      caller\n        /* \"contratoTransaccion.sol\":4934:4988  SwapOffered(msg.sender, offeredTokenId, wantedTokenId) */\n      0xffffffffffffffffffffffffffffffffffffffff\n      and\n      0xb0e71171f17634aa1485f107543f8f73ec3b9d3436ff571ecad275e42f400b2b\n      mload(0x40)\n      mload(0x40)\n      dup1\n      swap2\n      sub\n      swap1\n      log4\n        /* \"contratoTransaccion.sol\":4078:4996  function offerSwap(uint256 offeredTokenId, uint256 wantedTokenId) external {... */\n      pop\n      pop\n      jump\t// out\n        /* \"contratoTransaccion.sol\":2809:3101  function cancel(uint256 tokenId) external {... */\n    tag_25:\n        /* \"contratoTransaccion.sol\":2862:2878  Listing memory l */\n      0x00\n        /* \"contratoTransaccion.sol\":2881:2889  listings */\n      0x01\n        /* \"contratoTransaccion.sol\":2881:2898  listings[tokenId] */\n      0x00\n        /* \"contratoTransaccion.sol\":2890:2897  tokenId */\n      dup4\n        /* \"contratoTransaccion.sol\":2881:2898  listings[tokenId] */\n      dup2\n      mstore\n      0x20\n      add\n      swap1\n      dup2\n      mstore\n      0x20\n      add\n      0x00\n      keccak256\n        /* \"contratoTransaccion.sol\":2862:2898  Listing memory l = listings[tokenId] */\n      mload(0x40)\n      dup1\n      0x40\n      add\n      0x40\n      mstore\n      swap1\n      dup2\n      0x00\n      dup3\n      add\n      0x00\n      swap1\n      sload\n      swap1\n      0x0100\n      exp\n      swap1\n      div\n      0xffffffffffffffffffffffffffffffffffffffff\n      and\n      0xffffffffffffffffffffffffffffffffffffffff\n      and\n      0xffffffffffffffffffffffffffffffffffffffff\n      and\n      dup2\n      mstore\n      0x20\n      add\n      0x01\n      dup3\n      add\n      sload\n      dup2\n      mstore\n      pop\n      pop\n      swap1\n      pop\n        /* \"contratoTransaccion.sol\":2937:2938  0 */\n      0x00\n        /* \"contratoTransaccion.sol\":2917:2939  l.seller != address(0) */\n      0xffffffffffffffffffffffffffffffffffffffff\n      and\n        /* \"contratoTransaccion.sol\":2917:2918  l */\n      dup2\n        /* \"contratoTransaccion.sol\":2917:2925  l.seller */\n      0x00\n      add\n      mload\n        /* \"contratoTransaccion.sol\":2917:2939  l.seller != address(0) */\n      0xffffffffffffffffffffffffffffffffffffffff\n      and\n      sub\n        /* \"contratoTransaccion.sol\":2909:2954  require(l.seller != address(0), \"not listed\") */\n      tag_121\n      jumpi\n      mload(0x40)\n      0x08c379a000000000000000000000000000000000000000000000000000000000\n      dup2\n      mstore\n      0x04\n      add\n      tag_122\n      swap1\n      tag_123\n      jump\t// in\n    tag_122:\n      mload(0x40)\n      dup1\n      swap2\n      sub\n      swap1\n      revert\n    tag_121:\n        /* \"contratoTransaccion.sol\":2985:2995  msg.sender */\n      caller\n        /* \"contratoTransaccion.sol\":2973:2995  l.seller == msg.sender */\n      0xffffffffffffffffffffffffffffffffffffffff\n      and\n        /* \"contratoTransaccion.sol\":2973:2974  l */\n      dup2\n        /* \"contratoTransaccion.sol\":2973:2981  l.seller */\n      0x00\n      add\n      mload\n        /* \"contratoTransaccion.sol\":2973:2995  l.seller == msg.sender */\n      0xffffffffffffffffffffffffffffffffffffffff\n      and\n      eq\n        /* \"contratoTransaccion.sol\":2965:3010  require(l.seller == msg.sender, \"not seller\") */\n      tag_124\n      jumpi\n      mload(0x40)\n      0x08c379a000000000000000000000000000000000000000000000000000000000\n      dup2\n      mstore\n      0x04\n      add\n      tag_125\n      swap1\n      tag_126\n      jump\t// in\n    tag_125:\n      mload(0x40)\n      dup1\n      swap2\n      sub\n      swap1\n      revert\n    tag_124:\n        /* \"contratoTransaccion.sol\":3030:3038  listings */\n      0x01\n        /* \"contratoTransaccion.sol\":3030:3047  listings[tokenId] */\n      0x00\n        /* \"contratoTransaccion.sol\":3039:3046  tokenId */\n      dup4\n        /* \"contratoTransaccion.sol\":3030:3047  listings[tokenId] */\n      dup2\n      mstore\n      0x20\n      add\n      swap1\n      dup2\n      mstore\n      0x20\n      add\n      0x00\n      keccak256\n      0x00\n        /* \"contratoTransaccion.sol\":3023:3047  delete listings[tokenId] */\n      dup1\n      dup3\n      add\n      exp(0x0100, 0x00)\n      dup2\n      sload\n      swap1\n      0xffffffffffffffffffffffffffffffffffffffff\n      mul\n      not\n      and\n      swap1\n      sstore\n      0x01\n      dup3\n      add\n      0x00\n      swap1\n      sstore\n      pop\n      pop\n        /* \"contratoTransaccion.sol\":3082:3092  msg.sender */\n      caller\n        /* \"contratoTransaccion.sol\":3063:3093  Cancelled(tokenId, msg.sender) */\n      0xffffffffffffffffffffffffffffffffffffffff\n      and\n        /* \"contratoTransaccion.sol\":3073:3080  tokenId */\n      dup3\n        /* \"contratoTransaccion.sol\":3063:3093  Cancelled(tokenId, msg.sender) */\n      0x26deca31ff8139a06c52453ce8985d34f7648a6d9af1d283c4063d052c355a0f\n      mload(0x40)\n      mload(0x40)\n      dup1\n      swap2\n      sub\n      swap1\n      log3\n        /* \"contratoTransaccion.sol\":2851:3101  {... */\n      pop\n        /* \"contratoTransaccion.sol\":2809:3101  function cancel(uint256 tokenId) external {... */\n      pop\n      jump\t// out\n        /* \"contratoTransaccion.sol\":242:270  IERC721 public immutable nft */\n    tag_28:\n      immutable(\"0x9a8b6999955579552efb49f9b1ba44e9b405d36c1cd9fda072316c810fd42bbd\")\n      dup2\n      jump\t// out\n        /* \"contratoTransaccion.sol\":2356:2801  function list(uint256 tokenId, uint256 price) external {... */\n    tag_34:\n        /* \"contratoTransaccion.sol\":2438:2439  0 */\n      0x00\n        /* \"contratoTransaccion.sol\":2430:2435  price */\n      dup2\n        /* \"contratoTransaccion.sol\":2430:2439  price > 0 */\n      gt\n        /* \"contratoTransaccion.sol\":2422:2451  require(price > 0, \"price=0\") */\n      tag_128\n      jumpi\n      mload(0x40)\n      0x08c379a000000000000000000000000000000000000000000000000000000000\n      dup2\n      mstore\n      0x04\n      add\n      tag_129\n      swap1\n      tag_130\n      jump\t// in\n    tag_129:\n      mload(0x40)\n      dup1\n      swap2\n      sub\n      swap1\n      revert\n    tag_128:\n        /* \"contratoTransaccion.sol\":2494:2504  msg.sender */\n      caller\n        /* \"contratoTransaccion.sol\":2470:2504  nft.ownerOf(tokenId) == msg.sender */\n      0xffffffffffffffffffffffffffffffffffffffff\n      and\n        /* \"contratoTransaccion.sol\":2470:2473  nft */\n      immutable(\"0x9a8b6999955579552efb49f9b1ba44e9b405d36c1cd9fda072316c810fd42bbd\")\n        /* \"contratoTransaccion.sol\":2470:2481  nft.ownerOf */\n      0xffffffffffffffffffffffffffffffffffffffff\n      and\n      0x6352211e\n        /* \"contratoTransaccion.sol\":2482:2489  tokenId */\n      dup5\n        /* \"contratoTransaccion.sol\":2470:2490  nft.ownerOf(tokenId) */\n      mload(0x40)\n      dup3\n      0xffffffff\n      and\n      0xe0\n      shl\n      dup2\n      mstore\n      0x04\n      add\n      tag_131\n      swap2\n      swap1\n      tag_62\n      jump\t// in\n    tag_131:\n      0x20\n      mload(0x40)\n      dup1\n      dup4\n      sub\n      dup2\n      dup7\n      gas\n      staticcall\n      iszero\n      dup1\n      iszero\n      tag_133\n      jumpi\n      returndatasize\n      0x00\n      dup1\n      returndatacopy\n      revert(0x00, returndatasize)\n    tag_133:\n      pop\n      pop\n      pop\n      pop\n      mload(0x40)\n      returndatasize\n      not(0x1f)\n      0x1f\n      dup3\n      add\n      and\n      dup3\n      add\n      dup1\n      0x40\n      mstore\n      pop\n      dup2\n      add\n      swap1\n      tag_134\n      swap2\n      swap1\n      tag_66\n      jump\t// in\n    tag_134:\n        /* \"contratoTransaccion.sol\":2470:2504  nft.ownerOf(tokenId) == msg.sender */\n      0xffffffffffffffffffffffffffffffffffffffff\n      and\n      eq\n        /* \"contratoTransaccion.sol\":2462:2518  require(nft.ownerOf(tokenId) == msg.sender, \"not owner\") */\n      tag_135\n      jumpi\n      mload(0x40)\n      0x08c379a000000000000000000000000000000000000000000000000000000000\n      dup2\n      mstore\n      0x04\n      add\n      tag_136\n      swap1\n      tag_137\n      jump\t// in\n    tag_136:\n      mload(0x40)\n      dup1\n      swap2\n      sub\n      swap1\n      revert\n    tag_135:\n        /* \"contratoTransaccion.sol\":2602:2641  _isApprovedOrOwner(msg.sender, tokenId) */\n      tag_138\n        /* \"contratoTransaccion.sol\":2621:2631  msg.sender */\n      caller\n        /* \"contratoTransaccion.sol\":2633:2640  tokenId */\n      dup4\n        /* \"contratoTransaccion.sol\":2602:2620  _isApprovedOrOwner */\n      tag_78\n        /* \"contratoTransaccion.sol\":2602:2641  _isApprovedOrOwner(msg.sender, tokenId) */\n      jump\t// in\n    tag_138:\n        /* \"contratoTransaccion.sol\":2594:2665  require(_isApprovedOrOwner(msg.sender, tokenId), \"market not approved\") */\n      tag_139\n      jumpi\n      mload(0x40)\n      0x08c379a000000000000000000000000000000000000000000000000000000000\n      dup2\n      mstore\n      0x04\n      add\n      tag_140\n      swap1\n      tag_141\n      jump\t// in\n    tag_140:\n      mload(0x40)\n      dup1\n      swap2\n      sub\n      swap1\n      revert\n    tag_139:\n        /* \"contratoTransaccion.sol\":2698:2743  Listing({ seller: msg.sender, price: price }) */\n      mload(0x40)\n      dup1\n      0x40\n      add\n      0x40\n      mstore\n      dup1\n        /* \"contratoTransaccion.sol\":2716:2726  msg.sender */\n      caller\n        /* \"contratoTransaccion.sol\":2698:2743  Listing({ seller: msg.sender, price: price }) */\n      0xffffffffffffffffffffffffffffffffffffffff\n      and\n      dup2\n      mstore\n      0x20\n      add\n        /* \"contratoTransaccion.sol\":2735:2740  price */\n      dup3\n        /* \"contratoTransaccion.sol\":2698:2743  Listing({ seller: msg.sender, price: price }) */\n      dup2\n      mstore\n      pop\n        /* \"contratoTransaccion.sol\":2678:2686  listings */\n      0x01\n        /* \"contratoTransaccion.sol\":2678:2695  listings[tokenId] */\n      0x00\n        /* \"contratoTransaccion.sol\":2687:2694  tokenId */\n      dup5\n        /* \"contratoTransaccion.sol\":2678:2695  listings[tokenId] */\n      dup2\n      mstore\n      0x20\n      add\n      swap1\n      dup2\n      mstore\n      0x20\n      add\n      0x00\n      keccak256\n        /* \"contratoTransaccion.sol\":2678:2743  listings[tokenId] = Listing({ seller: msg.sender, price: price }) */\n      0x00\n      dup3\n      add\n      mload\n      dup2\n      0x00\n      add\n      exp(0x0100, 0x00)\n      dup2\n      sload\n      dup2\n      0xffffffffffffffffffffffffffffffffffffffff\n      mul\n      not\n      and\n      swap1\n      dup4\n      0xffffffffffffffffffffffffffffffffffffffff\n      and\n      mul\n      or\n      swap1\n      sstore\n      pop\n      0x20\n      dup3\n      add\n      mload\n      dup2\n      0x01\n      add\n      sstore\n      swap1\n      pop\n      pop\n        /* \"contratoTransaccion.sol\":2775:2785  msg.sender */\n      caller\n        /* \"contratoTransaccion.sol\":2759:2793  Listed(tokenId, msg.sender, price) */\n      0xffffffffffffffffffffffffffffffffffffffff\n      and\n        /* \"contratoTransaccion.sol\":2766:2773  tokenId */\n      dup3\n        /* \"contratoTransaccion.sol\":2759:2793  Listed(tokenId, msg.sender, price) */\n      0x50955776c5778c3b7d968d86d8c51fb6b29a7a74c20866b533268e209fc08343\n        /* \"contratoTransaccion.sol\":2787:2792  price */\n      dup4\n        /* \"contratoTransaccion.sol\":2759:2793  Listed(tokenId, msg.sender, price) */\n      mload(0x40)\n      tag_142\n      swap2\n      swap1\n      tag_62\n      jump\t// in\n    tag_142:\n      mload(0x40)\n      dup1\n      swap2\n      sub\n      swap1\n      log3\n        /* \"contratoTransaccion.sol\":2356:2801  function list(uint256 tokenId, uint256 price) external {... */\n      pop\n      pop\n      jump\t// out\n        /* \"contratoTransaccion.sol\":5004:5322  function cancelSwap(uint256 offeredTokenId) external {... */\n    tag_38:\n        /* \"contratoTransaccion.sol\":5068:5086  SwapOffer memory o */\n      0x00\n        /* \"contratoTransaccion.sol\":5089:5099  swapOffers */\n      0x02\n        /* \"contratoTransaccion.sol\":5089:5115  swapOffers[offeredTokenId] */\n      0x00\n        /* \"contratoTransaccion.sol\":5100:5114  offeredTokenId */\n      dup4\n        /* \"contratoTransaccion.sol\":5089:5115  swapOffers[offeredTokenId] */\n      dup2\n      mstore\n      0x20\n      add\n      swap1\n      dup2\n      mstore\n      0x20\n      add\n      0x00\n      keccak256\n        /* \"contratoTransaccion.sol\":5068:5115  SwapOffer memory o = swapOffers[offeredTokenId] */\n      mload(0x40)\n      dup1\n      0x80\n      add\n      0x40\n      mstore\n      swap1\n      dup2\n      0x00\n      dup3\n      add\n      0x00\n      swap1\n      sload\n      swap1\n      0x0100\n      exp\n      swap1\n      div\n      0xffffffffffffffffffffffffffffffffffffffff\n      and\n      0xffffffffffffffffffffffffffffffffffffffff\n      and\n      0xffffffffffffffffffffffffffffffffffffffff\n      and\n      dup2\n      mstore\n      0x20\n      add\n      0x01\n      dup3\n      add\n      sload\n      dup2\n      mstore\n      0x20\n      add\n      0x02\n      dup3\n      add\n      sload\n      dup2\n      mstore\n      0x20\n      add\n      0x03\n      dup3\n      add\n      0x00\n      swap1\n      sload\n      swap1\n      0x0100\n      exp\n      swap1\n      div\n      0xff\n      and\n      iszero\n      iszero\n      iszero\n      iszero\n      dup2\n      mstore\n      pop\n      pop\n      swap1\n      pop\n        /* \"contratoTransaccion.sol\":5134:5135  o */\n      dup1\n        /* \"contratoTransaccion.sol\":5134:5142  o.active */\n      0x60\n      add\n      mload\n        /* \"contratoTransaccion.sol\":5126:5157  require(o.active, \"not active\") */\n      tag_144\n      jumpi\n      mload(0x40)\n      0x08c379a000000000000000000000000000000000000000000000000000000000\n      dup2\n      mstore\n      0x04\n      add\n      tag_145\n      swap1\n      tag_60\n      jump\t// in\n    tag_145:\n      mload(0x40)\n      dup1\n      swap2\n      sub\n      swap1\n      revert\n    tag_144:\n        /* \"contratoTransaccion.sol\":5187:5197  msg.sender */\n      caller\n        /* \"contratoTransaccion.sol\":5176:5197  o.maker == msg.sender */\n      0xffffffffffffffffffffffffffffffffffffffff\n      and\n        /* \"contratoTransaccion.sol\":5176:5177  o */\n      dup2\n        /* \"contratoTransaccion.sol\":5176:5183  o.maker */\n      0x00\n      add\n      mload\n        /* \"contratoTransaccion.sol\":5176:5197  o.maker == msg.sender */\n      0xffffffffffffffffffffffffffffffffffffffff\n      and\n      eq\n        /* \"contratoTransaccion.sol\":5168:5211  require(o.maker == msg.sender, \"not maker\") */\n      tag_146\n      jumpi\n      mload(0x40)\n      0x08c379a000000000000000000000000000000000000000000000000000000000\n      dup2\n      mstore\n      0x04\n      add\n      tag_147\n      swap1\n      tag_148\n      jump\t// in\n    tag_147:\n      mload(0x40)\n      dup1\n      swap2\n      sub\n      swap1\n      revert\n    tag_146:\n        /* \"contratoTransaccion.sol\":5231:5241  swapOffers */\n      0x02\n        /* \"contratoTransaccion.sol\":5231:5257  swapOffers[offeredTokenId] */\n      0x00\n        /* \"contratoTransaccion.sol\":5242:5256  offeredTokenId */\n      dup4\n        /* \"contratoTransaccion.sol\":5231:5257  swapOffers[offeredTokenId] */\n      dup2\n      mstore\n      0x20\n      add\n      swap1\n      dup2\n      mstore\n      0x20\n      add\n      0x00\n      keccak256\n      0x00\n        /* \"contratoTransaccion.sol\":5224:5257  delete swapOffers[offeredTokenId] */\n      dup1\n      dup3\n      add\n      exp(0x0100, 0x00)\n      dup2\n      sload\n      swap1\n      0xffffffffffffffffffffffffffffffffffffffff\n      mul\n      not\n      and\n      swap1\n      sstore\n      0x01\n      dup3\n      add\n      0x00\n      swap1\n      sstore\n      0x02\n      dup3\n      add\n      0x00\n      swap1\n      sstore\n      0x03\n      dup3\n      add\n      exp(0x0100, 0x00)\n      dup2\n      sload\n      swap1\n      0xff\n      mul\n      not\n      and\n      swap1\n      sstore\n      pop\n      pop\n        /* \"contratoTransaccion.sol\":5299:5313  offeredTokenId */\n      dup2\n        /* \"contratoTransaccion.sol\":5287:5297  msg.sender */\n      caller\n        /* \"contratoTransaccion.sol\":5273:5314  SwapCancelled(msg.sender, offeredTokenId) */\n      0xffffffffffffffffffffffffffffffffffffffff\n      and\n      0x85562d2d9b6fe46899f9b6ed410d0330551d861f63395b58c411a9d8159ce087\n      mload(0x40)\n      mload(0x40)\n      dup1\n      swap2\n      sub\n      swap1\n      log3\n        /* \"contratoTransaccion.sol\":5057:5322  {... */\n      pop\n        /* \"contratoTransaccion.sol\":5004:5322  function cancelSwap(uint256 offeredTokenId) external {... */\n      pop\n      jump\t// out\n        /* \"contratoTransaccion.sol\":1168:1215  mapping(uint256 => SwapOffer) public swapOffers */\n    tag_42:\n      mstore(0x20, 0x02)\n      dup1\n      0x00\n      mstore\n      keccak256(0x00, 0x40)\n      0x00\n      swap2\n      pop\n      swap1\n      pop\n      dup1\n      0x00\n      add\n      0x00\n      swap1\n      sload\n      swap1\n      0x0100\n      exp\n      swap1\n      div\n      0xffffffffffffffffffffffffffffffffffffffff\n      and\n      swap1\n      dup1\n      0x01\n      add\n      sload\n      swap1\n      dup1\n      0x02\n      add\n      sload\n      swap1\n      dup1\n      0x03\n      add\n      0x00\n      swap1\n      sload\n      swap1\n      0x0100\n      exp\n      swap1\n      div\n      0xff\n      and\n      swap1\n      pop\n      dup5\n      jump\t// out\n        /* \"contratoTransaccion.sol\":3109:3971  function buy(uint256 tokenId) external payable nonReentrant {... */\n    tag_47:\n        /* \"@openzeppelin/contracts/security/ReentrancyGuard.sol\":2261:2282  _nonReentrantBefore() */\n      tag_150\n        /* \"@openzeppelin/contracts/security/ReentrancyGuard.sol\":2261:2280  _nonReentrantBefore */\n      tag_56\n        /* \"@openzeppelin/contracts/security/ReentrancyGuard.sol\":2261:2282  _nonReentrantBefore() */\n      jump\t// in\n    tag_150:\n        /* \"contratoTransaccion.sol\":3180:3196  Listing memory l */\n      0x00\n        /* \"contratoTransaccion.sol\":3199:3207  listings */\n      0x01\n        /* \"contratoTransaccion.sol\":3199:3216  listings[tokenId] */\n      0x00\n        /* \"contratoTransaccion.sol\":3208:3215  tokenId */\n      dup4\n        /* \"contratoTransaccion.sol\":3199:3216  listings[tokenId] */\n      dup2\n      mstore\n      0x20\n      add\n      swap1\n      dup2\n      mstore\n      0x20\n      add\n      0x00\n      keccak256\n        /* \"contratoTransaccion.sol\":3180:3216  Listing memory l = listings[tokenId] */\n      mload(0x40)\n      dup1\n      0x40\n      add\n      0x40\n      mstore\n      swap1\n      dup2\n      0x00\n      dup3\n      add\n      0x00\n      swap1\n      sload\n      swap1\n      0x0100\n      exp\n      swap1\n      div\n      0xffffffffffffffffffffffffffffffffffffffff\n      and\n      0xffffffffffffffffffffffffffffffffffffffff\n      and\n      0xffffffffffffffffffffffffffffffffffffffff\n      and\n      dup2\n      mstore\n      0x20\n      add\n      0x01\n      dup3\n      add\n      sload\n      dup2\n      mstore\n      pop\n      pop\n      swap1\n      pop\n        /* \"contratoTransaccion.sol\":3255:3256  0 */\n      0x00\n        /* \"contratoTransaccion.sol\":3235:3257  l.seller != address(0) */\n      0xffffffffffffffffffffffffffffffffffffffff\n      and\n        /* \"contratoTransaccion.sol\":3235:3236  l */\n      dup2\n        /* \"contratoTransaccion.sol\":3235:3243  l.seller */\n      0x00\n      add\n      mload\n        /* \"contratoTransaccion.sol\":3235:3257  l.seller != address(0) */\n      0xffffffffffffffffffffffffffffffffffffffff\n      and\n      sub\n        /* \"contratoTransaccion.sol\":3227:3272  require(l.seller != address(0), \"not listed\") */\n      tag_152\n      jumpi\n      mload(0x40)\n      0x08c379a000000000000000000000000000000000000000000000000000000000\n      dup2\n      mstore\n      0x04\n      add\n      tag_153\n      swap1\n      tag_123\n      jump\t// in\n    tag_153:\n      mload(0x40)\n      dup1\n      swap2\n      sub\n      swap1\n      revert\n    tag_152:\n        /* \"contratoTransaccion.sol\":3315:3316  l */\n      dup1\n        /* \"contratoTransaccion.sol\":3315:3323  l.seller */\n      0x00\n      add\n      mload\n        /* \"contratoTransaccion.sol\":3291:3323  nft.ownerOf(tokenId) == l.seller */\n      0xffffffffffffffffffffffffffffffffffffffff\n      and\n        /* \"contratoTransaccion.sol\":3291:3294  nft */\n      immutable(\"0x9a8b6999955579552efb49f9b1ba44e9b405d36c1cd9fda072316c810fd42bbd\")\n        /* \"contratoTransaccion.sol\":3291:3302  nft.ownerOf */\n      0xffffffffffffffffffffffffffffffffffffffff\n      and\n      0x6352211e\n        /* \"contratoTransaccion.sol\":3303:3310  tokenId */\n      dup5\n        /* \"contratoTransaccion.sol\":3291:3311  nft.ownerOf(tokenId) */\n      mload(0x40)\n      dup3\n      0xffffffff\n      and\n      0xe0\n      shl\n      dup2\n      mstore\n      0x04\n      add\n      tag_154\n      swap2\n      swap1\n      tag_62\n      jump\t// in\n    tag_154:\n      0x20\n      mload(0x40)\n      dup1\n      dup4\n      sub\n      dup2\n      dup7\n      gas\n      staticcall\n      iszero\n      dup1\n      iszero\n      tag_156\n      jumpi\n      returndatasize\n      0x00\n      dup1\n      returndatacopy\n      revert(0x00, returndatasize)\n    tag_156:\n      pop\n      pop\n      pop\n      pop\n      mload(0x40)\n      returndatasize\n      not(0x1f)\n      0x1f\n      dup3\n      add\n      and\n      dup3\n      add\n      dup1\n      0x40\n      mstore\n      pop\n      dup2\n      add\n      swap1\n      tag_157\n      swap2\n      swap1\n      tag_66\n      jump\t// in\n    tag_157:\n        /* \"contratoTransaccion.sol\":3291:3323  nft.ownerOf(tokenId) == l.seller */\n      0xffffffffffffffffffffffffffffffffffffffff\n      and\n      eq\n        /* \"contratoTransaccion.sol\":3283:3350  require(nft.ownerOf(tokenId) == l.seller, \"seller no longer owner\") */\n      tag_158\n      jumpi\n      mload(0x40)\n      0x08c379a000000000000000000000000000000000000000000000000000000000\n      dup2\n      mstore\n      0x04\n      add\n      tag_159\n      swap1\n      tag_160\n      jump\t// in\n    tag_159:\n      mload(0x40)\n      dup1\n      swap2\n      sub\n      swap1\n      revert\n    tag_158:\n        /* \"contratoTransaccion.sol\":3383:3384  l */\n      dup1\n        /* \"contratoTransaccion.sol\":3383:3391  l.seller */\n      0x00\n      add\n      mload\n        /* \"contratoTransaccion.sol\":3369:3391  msg.sender != l.seller */\n      0xffffffffffffffffffffffffffffffffffffffff\n      and\n        /* \"contratoTransaccion.sol\":3369:3379  msg.sender */\n      caller\n        /* \"contratoTransaccion.sol\":3369:3391  msg.sender != l.seller */\n      0xffffffffffffffffffffffffffffffffffffffff\n      and\n      sub\n        /* \"contratoTransaccion.sol\":3361:3404  require(msg.sender != l.seller, \"self buy\") */\n      tag_161\n      jumpi\n      mload(0x40)\n      0x08c379a000000000000000000000000000000000000000000000000000000000\n      dup2\n      mstore\n      0x04\n      add\n      tag_162\n      swap1\n      tag_163\n      jump\t// in\n    tag_162:\n      mload(0x40)\n      dup1\n      swap2\n      sub\n      swap1\n      revert\n    tag_161:\n        /* \"contratoTransaccion.sol\":3436:3437  l */\n      dup1\n        /* \"contratoTransaccion.sol\":3436:3443  l.price */\n      0x20\n      add\n      mload\n        /* \"contratoTransaccion.sol\":3423:3432  msg.value */\n      callvalue\n        /* \"contratoTransaccion.sol\":3423:3443  msg.value == l.price */\n      eq\n        /* \"contratoTransaccion.sol\":3415:3459  require(msg.value == l.price, \"wrong value\") */\n      tag_164\n      jumpi\n      mload(0x40)\n      0x08c379a000000000000000000000000000000000000000000000000000000000\n      dup2\n      mstore\n      0x04\n      add\n      tag_165\n      swap1\n      tag_166\n      jump\t// in\n    tag_165:\n      mload(0x40)\n      dup1\n      swap2\n      sub\n      swap1\n      revert\n    tag_164:\n        /* \"contratoTransaccion.sol\":3532:3569  _isApprovedOrOwner(l.seller, tokenId) */\n      tag_167\n        /* \"contratoTransaccion.sol\":3551:3552  l */\n      dup2\n        /* \"contratoTransaccion.sol\":3551:3559  l.seller */\n      0x00\n      add\n      mload\n        /* \"contratoTransaccion.sol\":3561:3568  tokenId */\n      dup4\n        /* \"contratoTransaccion.sol\":3532:3550  _isApprovedOrOwner */\n      tag_78\n        /* \"contratoTransaccion.sol\":3532:3569  _isApprovedOrOwner(l.seller, tokenId) */\n      jump\t// in\n    tag_167:\n        /* \"contratoTransaccion.sol\":3524:3593  require(_isApprovedOrOwner(l.seller, tokenId), \"market not approved\") */\n      tag_168\n      jumpi\n      mload(0x40)\n      0x08c379a000000000000000000000000000000000000000000000000000000000\n      dup2\n      mstore\n      0x04\n      add\n      tag_169\n      swap1\n      tag_141\n      jump\t// in\n    tag_169:\n      mload(0x40)\n      dup1\n      swap2\n      sub\n      swap1\n      revert\n    tag_168:\n        /* \"contratoTransaccion.sol\":3641:3649  listings */\n      0x01\n        /* \"contratoTransaccion.sol\":3641:3658  listings[tokenId] */\n      0x00\n        /* \"contratoTransaccion.sol\":3650:3657  tokenId */\n      dup4\n        /* \"contratoTransaccion.sol\":3641:3658  listings[tokenId] */\n      dup2\n      mstore\n      0x20\n      add\n      swap1\n      dup2\n      mstore\n      0x20\n      add\n      0x00\n      keccak256\n      0x00\n        /* \"contratoTransaccion.sol\":3634:3658  delete listings[tokenId] */\n      dup1\n      dup3\n      add\n      exp(0x0100, 0x00)\n      dup2\n      sload\n      swap1\n      0xffffffffffffffffffffffffffffffffffffffff\n      mul\n      not\n      and\n      swap1\n      sstore\n      0x01\n      dup3\n      add\n      0x00\n      swap1\n      sstore\n      pop\n      pop\n        /* \"contratoTransaccion.sol\":3703:3710  bool ok */\n      0x00\n        /* \"contratoTransaccion.sol\":3724:3725  l */\n      dup2\n        /* \"contratoTransaccion.sol\":3724:3732  l.seller */\n      0x00\n      add\n      mload\n        /* \"contratoTransaccion.sol\":3716:3738  payable(l.seller).call */\n      0xffffffffffffffffffffffffffffffffffffffff\n      and\n        /* \"contratoTransaccion.sol\":3747:3756  msg.value */\n      callvalue\n        /* \"contratoTransaccion.sol\":3716:3762  payable(l.seller).call{ value: msg.value }(\"\") */\n      mload(0x40)\n      tag_170\n      swap1\n      tag_171\n      jump\t// in\n    tag_170:\n      0x00\n      mload(0x40)\n      dup1\n      dup4\n      sub\n      dup2\n      dup6\n      dup8\n      gas\n      call\n      swap3\n      pop\n      pop\n      pop\n      returndatasize\n      dup1\n      0x00\n      dup2\n      eq\n      tag_174\n      jumpi\n      mload(0x40)\n      swap2\n      pop\n      and(add(returndatasize, 0x3f), not(0x1f))\n      dup3\n      add\n      0x40\n      mstore\n      returndatasize\n      dup3\n      mstore\n      returndatasize\n      0x00\n      0x20\n      dup5\n      add\n      returndatacopy\n      jump(tag_173)\n    tag_174:\n      0x60\n      swap2\n      pop\n    tag_173:\n      pop\n        /* \"contratoTransaccion.sol\":3702:3762  (bool ok, ) = payable(l.seller).call{ value: msg.value }(\"\") */\n      pop\n      swap1\n      pop\n        /* \"contratoTransaccion.sol\":3781:3783  ok */\n      dup1\n        /* \"contratoTransaccion.sol\":3773:3802  require(ok, \"payment failed\") */\n      tag_175\n      jumpi\n      mload(0x40)\n      0x08c379a000000000000000000000000000000000000000000000000000000000\n      dup2\n      mstore\n      0x04\n      add\n      tag_176\n      swap1\n      tag_177\n      jump\t// in\n    tag_176:\n      mload(0x40)\n      dup1\n      swap2\n      sub\n      swap1\n      revert\n    tag_175:\n        /* \"contratoTransaccion.sol\":3846:3849  nft */\n      immutable(\"0x9a8b6999955579552efb49f9b1ba44e9b405d36c1cd9fda072316c810fd42bbd\")\n        /* \"contratoTransaccion.sol\":3846:3866  nft.safeTransferFrom */\n      0xffffffffffffffffffffffffffffffffffffffff\n      and\n      0x42842e0e\n        /* \"contratoTransaccion.sol\":3867:3868  l */\n      dup4\n        /* \"contratoTransaccion.sol\":3867:3875  l.seller */\n      0x00\n      add\n      mload\n        /* \"contratoTransaccion.sol\":3877:3887  msg.sender */\n      caller\n        /* \"contratoTransaccion.sol\":3889:3896  tokenId */\n      dup7\n        /* \"contratoTransaccion.sol\":3846:3897  nft.safeTransferFrom(l.seller, msg.sender, tokenId) */\n      mload(0x40)\n      dup5\n      0xffffffff\n      and\n      0xe0\n      shl\n      dup2\n      mstore\n      0x04\n      add\n      tag_178\n      swap4\n      swap3\n      swap2\n      swap1\n      tag_93\n      jump\t// in\n    tag_178:\n      0x00\n      mload(0x40)\n      dup1\n      dup4\n      sub\n      dup2\n      0x00\n      dup8\n      dup1\n      extcodesize\n      iszero\n      dup1\n      iszero\n      tag_179\n      jumpi\n      0x00\n      dup1\n      revert\n    tag_179:\n      pop\n      gas\n      call\n      iszero\n      dup1\n      iszero\n      tag_181\n      jumpi\n      returndatasize\n      0x00\n      dup1\n      returndatacopy\n      revert(0x00, returndatasize)\n    tag_181:\n      pop\n      pop\n      pop\n      pop\n        /* \"contratoTransaccion.sol\":3943:3944  l */\n      dup2\n        /* \"contratoTransaccion.sol\":3943:3951  l.seller */\n      0x00\n      add\n      mload\n        /* \"contratoTransaccion.sol\":3915:3963  Bought(tokenId, msg.sender, l.seller, msg.value) */\n      0xffffffffffffffffffffffffffffffffffffffff\n      and\n        /* \"contratoTransaccion.sol\":3931:3941  msg.sender */\n      caller\n        /* \"contratoTransaccion.sol\":3915:3963  Bought(tokenId, msg.sender, l.seller, msg.value) */\n      0xffffffffffffffffffffffffffffffffffffffff\n      and\n        /* \"contratoTransaccion.sol\":3922:3929  tokenId */\n      dup5\n        /* \"contratoTransaccion.sol\":3915:3963  Bought(tokenId, msg.sender, l.seller, msg.value) */\n      0x888231f55a3cd8fd72276bc1b12ed5a60f8d92e62d288e64bf29dd6e5fc7809a\n        /* \"contratoTransaccion.sol\":3953:3962  msg.value */\n      callvalue\n        /* \"contratoTransaccion.sol\":3915:3963  Bought(tokenId, msg.sender, l.seller, msg.value) */\n      mload(0x40)\n      tag_182\n      swap2\n      swap1\n      tag_62\n      jump\t// in\n    tag_182:\n      mload(0x40)\n      dup1\n      swap2\n      sub\n      swap1\n      log4\n        /* \"contratoTransaccion.sol\":3169:3971  {... */\n      pop\n      pop\n        /* \"@openzeppelin/contracts/security/ReentrancyGuard.sol\":2303:2323  _nonReentrantAfter() */\n      tag_183\n        /* \"@openzeppelin/contracts/security/ReentrancyGuard.sol\":2303:2321  _nonReentrantAfter */\n      tag_103\n        /* \"@openzeppelin/contracts/security/ReentrancyGuard.sol\":2303:2323  _nonReentrantAfter() */\n      jump\t// in\n    tag_183:\n        /* \"contratoTransaccion.sol\":3109:3971  function buy(uint256 tokenId) external payable nonReentrant {... */\n      pop\n      jump\t// out\n        /* \"contratoTransaccion.sol\":473:516  mapping(uint256 => Listing) public listings */\n    tag_51:\n      mstore(0x20, 0x01)\n      dup1\n      0x00\n      mstore\n      keccak256(0x00, 0x40)\n      0x00\n      swap2\n      pop\n      swap1\n      pop\n      dup1\n      0x00\n      add\n      0x00\n      swap1\n      sload\n      swap1\n      0x0100\n      exp\n      swap1\n      div\n      0xffffffffffffffffffffffffffffffffffffffff\n      and\n      swap1\n      dup1\n      0x01\n      add\n      sload\n      swap1\n      pop\n      dup3\n      jump\t// out\n        /* \"@openzeppelin/contracts/security/ReentrancyGuard.sol\":2336:2623  function _nonReentrantBefore() private {... */\n    tag_56:\n        /* \"@openzeppelin/contracts/security/ReentrancyGuard.sol\":1759:1760  2 */\n      0x02\n        /* \"@openzeppelin/contracts/security/ReentrancyGuard.sol\":2468:2475  _status */\n      sload(0x00)\n        /* \"@openzeppelin/contracts/security/ReentrancyGuard.sol\":2468:2487  _status != _ENTERED */\n      sub\n        /* \"@openzeppelin/contracts/security/ReentrancyGuard.sol\":2460:2523  require(_status != _ENTERED, \"ReentrancyGuard: reentrant call\") */\n      tag_185\n      jumpi\n      mload(0x40)\n      0x08c379a000000000000000000000000000000000000000000000000000000000\n      dup2\n      mstore\n      0x04\n      add\n      tag_186\n      swap1\n      tag_187\n      jump\t// in\n    tag_186:\n      mload(0x40)\n      dup1\n      swap2\n      sub\n      swap1\n      revert\n    tag_185:\n        /* \"@openzeppelin/contracts/security/ReentrancyGuard.sol\":1759:1760  2 */\n      0x02\n        /* \"@openzeppelin/contracts/security/ReentrancyGuard.sol\":2598:2605  _status */\n      0x00\n        /* \"@openzeppelin/contracts/security/ReentrancyGuard.sol\":2598:2616  _status = _ENTERED */\n      dup2\n      swap1\n      sstore\n      pop\n        /* \"@openzeppelin/contracts/security/ReentrancyGuard.sol\":2336:2623  function _nonReentrantBefore() private {... */\n      jump\t// out\n        /* \"contratoTransaccion.sol\":1817:2252  function _isApprovedOrOwner(address owner, uint256 tokenId) internal view returns (bool) {... */\n    tag_78:\n        /* \"contratoTransaccion.sol\":1900:1904  bool */\n      0x00\n        /* \"contratoTransaccion.sol\":2192:2196  this */\n      address\n        /* \"contratoTransaccion.sol\":2156:2197  nft.getApproved(tokenId) == address(this) */\n      0xffffffffffffffffffffffffffffffffffffffff\n      and\n        /* \"contratoTransaccion.sol\":2156:2159  nft */\n      immutable(\"0x9a8b6999955579552efb49f9b1ba44e9b405d36c1cd9fda072316c810fd42bbd\")\n        /* \"contratoTransaccion.sol\":2156:2171  nft.getApproved */\n      0xffffffffffffffffffffffffffffffffffffffff\n      and\n      0x081812fc\n        /* \"contratoTransaccion.sol\":2172:2179  tokenId */\n      dup5\n        /* \"contratoTransaccion.sol\":2156:2180  nft.getApproved(tokenId) */\n      mload(0x40)\n      dup3\n      0xffffffff\n      and\n      0xe0\n      shl\n      dup2\n      mstore\n      0x04\n      add\n      tag_189\n      swap2\n      swap1\n      tag_62\n      jump\t// in\n    tag_189:\n      0x20\n      mload(0x40)\n      dup1\n      dup4\n      sub\n      dup2\n      dup7\n      gas\n      staticcall\n      iszero\n      dup1\n      iszero\n      tag_191\n      jumpi\n      returndatasize\n      0x00\n      dup1\n      returndatacopy\n      revert(0x00, returndatasize)\n    tag_191:\n      pop\n      pop\n      pop\n      pop\n      mload(0x40)\n      returndatasize\n      not(0x1f)\n      0x1f\n      dup3\n      add\n      and\n      dup3\n      add\n      dup1\n      0x40\n      mstore\n      pop\n      dup2\n      add\n      swap1\n      tag_192\n      swap2\n      swap1\n      tag_66\n      jump\t// in\n    tag_192:\n        /* \"contratoTransaccion.sol\":2156:2197  nft.getApproved(tokenId) == address(this) */\n      0xffffffffffffffffffffffffffffffffffffffff\n      and\n      eq\n        /* \"contratoTransaccion.sol\":2156:2243  nft.getApproved(tokenId) == address(this) || nft.isApprovedForAll(owner, address(this)) */\n      dup1\n      tag_193\n      jumpi\n      pop\n        /* \"contratoTransaccion.sol\":2201:2204  nft */\n      immutable(\"0x9a8b6999955579552efb49f9b1ba44e9b405d36c1cd9fda072316c810fd42bbd\")\n        /* \"contratoTransaccion.sol\":2201:2221  nft.isApprovedForAll */\n      0xffffffffffffffffffffffffffffffffffffffff\n      and\n      0xe985e9c5\n        /* \"contratoTransaccion.sol\":2222:2227  owner */\n      dup5\n        /* \"contratoTransaccion.sol\":2237:2241  this */\n      address\n        /* \"contratoTransaccion.sol\":2201:2243  nft.isApprovedForAll(owner, address(this)) */\n      mload(0x40)\n      dup4\n      0xffffffff\n      and\n      0xe0\n      shl\n      dup2\n      mstore\n      0x04\n      add\n      tag_194\n      swap3\n      swap2\n      swap1\n      tag_195\n      jump\t// in\n    tag_194:\n      0x20\n      mload(0x40)\n      dup1\n      dup4\n      sub\n      dup2\n      dup7\n      gas\n      staticcall\n      iszero\n      dup1\n      iszero\n      tag_197\n      jumpi\n      returndatasize\n      0x00\n      dup1\n      returndatacopy\n      revert(0x00, returndatasize)\n    tag_197:\n      pop\n      pop\n      pop\n      pop\n      mload(0x40)\n      returndatasize\n      not(0x1f)\n      0x1f\n      dup3\n      add\n      and\n      dup3\n      add\n      dup1\n      0x40\n      mstore\n      pop\n      dup2\n      add\n      swap1\n      tag_198\n      swap2\n      swap1\n      tag_199\n      jump\t// in\n    tag_198:\n        /* \"contratoTransaccion.sol\":2156:2243  nft.getApproved(tokenId) == address(this) || nft.isApprovedForAll(owner, address(this)) */\n    tag_193:\n        /* \"contratoTransaccion.sol\":2148:2244  return (nft.getApproved(tokenId) == address(this) || nft.isApprovedForAll(owner, address(this))) */\n      swap1\n      pop\n        /* \"contratoTransaccion.sol\":1817:2252  function _isApprovedOrOwner(address owner, uint256 tokenId) internal view returns (bool) {... */\n      swap3\n      swap2\n      pop\n      pop\n      jump\t// out\n        /* \"@openzeppelin/contracts/security/ReentrancyGuard.sol\":2629:2838  function _nonReentrantAfter() private {... */\n    tag_103:\n        /* \"@openzeppelin/contracts/security/ReentrancyGuard.sol\":1716:1717  1 */\n      0x01\n        /* \"@openzeppelin/contracts/security/ReentrancyGuard.sol\":2809:2816  _status */\n      0x00\n        /* \"@openzeppelin/contracts/security/ReentrancyGuard.sol\":2809:2831  _status = _NOT_ENTERED */\n      dup2\n      swap1\n      sstore\n      pop\n        /* \"@openzeppelin/contracts/security/ReentrancyGuard.sol\":2629:2838  function _nonReentrantAfter() private {... */\n      jump\t// out\n        /* \"#utility.yul\":88:205   */\n    tag_202:\n        /* \"#utility.yul\":197:198   */\n      0x00\n        /* \"#utility.yul\":194:195   */\n      dup1\n        /* \"#utility.yul\":187:199   */\n      revert\n        /* \"#utility.yul\":334:411   */\n    tag_204:\n        /* \"#utility.yul\":371:378   */\n      0x00\n        /* \"#utility.yul\":400:405   */\n      dup2\n        /* \"#utility.yul\":389:405   */\n      swap1\n      pop\n        /* \"#utility.yul\":334:411   */\n      swap2\n      swap1\n      pop\n      jump\t// out\n        /* \"#utility.yul\":417:539   */\n    tag_205:\n        /* \"#utility.yul\":490:514   */\n      tag_272\n        /* \"#utility.yul\":508:513   */\n      dup2\n        /* \"#utility.yul\":490:514   */\n      tag_204\n      jump\t// in\n    tag_272:\n        /* \"#utility.yul\":483:488   */\n      dup2\n        /* \"#utility.yul\":480:515   */\n      eq\n        /* \"#utility.yul\":470:533   */\n      tag_273\n      jumpi\n        /* \"#utility.yul\":529:530   */\n      0x00\n        /* \"#utility.yul\":526:527   */\n      dup1\n        /* \"#utility.yul\":519:531   */\n      revert\n        /* \"#utility.yul\":470:533   */\n    tag_273:\n        /* \"#utility.yul\":417:539   */\n      pop\n      jump\t// out\n        /* \"#utility.yul\":545:684   */\n    tag_206:\n        /* \"#utility.yul\":591:596   */\n      0x00\n        /* \"#utility.yul\":629:635   */\n      dup2\n        /* \"#utility.yul\":616:636   */\n      calldataload\n        /* \"#utility.yul\":607:636   */\n      swap1\n      pop\n        /* \"#utility.yul\":645:678   */\n      tag_275\n        /* \"#utility.yul\":672:677   */\n      dup2\n        /* \"#utility.yul\":645:678   */\n      tag_205\n      jump\t// in\n    tag_275:\n        /* \"#utility.yul\":545:684   */\n      swap3\n      swap2\n      pop\n      pop\n      jump\t// out\n        /* \"#utility.yul\":690:1019   */\n    tag_15:\n        /* \"#utility.yul\":749:755   */\n      0x00\n        /* \"#utility.yul\":798:800   */\n      0x20\n        /* \"#utility.yul\":786:795   */\n      dup3\n        /* \"#utility.yul\":777:784   */\n      dup5\n        /* \"#utility.yul\":773:796   */\n      sub\n        /* \"#utility.yul\":769:801   */\n      slt\n        /* \"#utility.yul\":766:885   */\n      iszero\n      tag_277\n      jumpi\n        /* \"#utility.yul\":804:883   */\n      tag_278\n      tag_202\n      jump\t// in\n    tag_278:\n        /* \"#utility.yul\":766:885   */\n    tag_277:\n        /* \"#utility.yul\":924:925   */\n      0x00\n        /* \"#utility.yul\":949:1002   */\n      tag_279\n        /* \"#utility.yul\":994:1001   */\n      dup5\n        /* \"#utility.yul\":985:991   */\n      dup3\n        /* \"#utility.yul\":974:983   */\n      dup6\n        /* \"#utility.yul\":970:992   */\n      add\n        /* \"#utility.yul\":949:1002   */\n      tag_206\n      jump\t// in\n    tag_279:\n        /* \"#utility.yul\":939:1002   */\n      swap2\n      pop\n        /* \"#utility.yul\":895:1012   */\n      pop\n        /* \"#utility.yul\":690:1019   */\n      swap3\n      swap2\n      pop\n      pop\n      jump\t// out\n        /* \"#utility.yul\":1025:1499   */\n    tag_20:\n        /* \"#utility.yul\":1093:1099   */\n      0x00\n        /* \"#utility.yul\":1101:1107   */\n      dup1\n        /* \"#utility.yul\":1150:1152   */\n      0x40\n        /* \"#utility.yul\":1138:1147   */\n      dup4\n        /* \"#utility.yul\":1129:1136   */\n      dup6\n        /* \"#utility.yul\":1125:1148   */\n      sub\n        /* \"#utility.yul\":1121:1153   */\n      slt\n        /* \"#utility.yul\":1118:1237   */\n      iszero\n      tag_281\n      jumpi\n        /* \"#utility.yul\":1156:1235   */\n      tag_282\n      tag_202\n      jump\t// in\n    tag_282:\n        /* \"#utility.yul\":1118:1237   */\n    tag_281:\n        /* \"#utility.yul\":1276:1277   */\n      0x00\n        /* \"#utility.yul\":1301:1354   */\n      tag_283\n        /* \"#utility.yul\":1346:1353   */\n      dup6\n        /* \"#utility.yul\":1337:1343   */\n      dup3\n        /* \"#utility.yul\":1326:1335   */\n      dup7\n        /* \"#utility.yul\":1322:1344   */\n      add\n        /* \"#utility.yul\":1301:1354   */\n      tag_206\n      jump\t// in\n    tag_283:\n        /* \"#utility.yul\":1291:1354   */\n      swap3\n      pop\n        /* \"#utility.yul\":1247:1364   */\n      pop\n        /* \"#utility.yul\":1403:1405   */\n      0x20\n        /* \"#utility.yul\":1429:1482   */\n      tag_284\n        /* \"#utility.yul\":1474:1481   */\n      dup6\n        /* \"#utility.yul\":1465:1471   */\n      dup3\n        /* \"#utility.yul\":1454:1463   */\n      dup7\n        /* \"#utility.yul\":1450:1472   */\n      add\n        /* \"#utility.yul\":1429:1482   */\n      tag_206\n      jump\t// in\n    tag_284:\n        /* \"#utility.yul\":1419:1482   */\n      swap2\n      pop\n        /* \"#utility.yul\":1374:1492   */\n      pop\n        /* \"#utility.yul\":1025:1499   */\n      swap3\n      pop\n      swap3\n      swap1\n      pop\n      jump\t// out\n        /* \"#utility.yul\":1505:1631   */\n    tag_207:\n        /* \"#utility.yul\":1542:1549   */\n      0x00\n        /* \"#utility.yul\":1582:1624   */\n      0xffffffffffffffffffffffffffffffffffffffff\n        /* \"#utility.yul\":1575:1580   */\n      dup3\n        /* \"#utility.yul\":1571:1625   */\n      and\n        /* \"#utility.yul\":1560:1625   */\n      swap1\n      pop\n        /* \"#utility.yul\":1505:1631   */\n      swap2\n      swap1\n      pop\n      jump\t// out\n        /* \"#utility.yul\":1637:1697   */\n    tag_208:\n        /* \"#utility.yul\":1665:1668   */\n      0x00\n        /* \"#utility.yul\":1686:1691   */\n      dup2\n        /* \"#utility.yul\":1679:1691   */\n      swap1\n      pop\n        /* \"#utility.yul\":1637:1697   */\n      swap2\n      swap1\n      pop\n      jump\t// out\n        /* \"#utility.yul\":1703:1845   */\n    tag_209:\n        /* \"#utility.yul\":1753:1762   */\n      0x00\n        /* \"#utility.yul\":1786:1839   */\n      tag_288\n        /* \"#utility.yul\":1804:1838   */\n      tag_289\n        /* \"#utility.yul\":1813:1837   */\n      tag_290\n        /* \"#utility.yul\":1831:1836   */\n      dup5\n        /* \"#utility.yul\":1813:1837   */\n      tag_207\n      jump\t// in\n    tag_290:\n        /* \"#utility.yul\":1804:1838   */\n      tag_208\n      jump\t// in\n    tag_289:\n        /* \"#utility.yul\":1786:1839   */\n      tag_207\n      jump\t// in\n    tag_288:\n        /* \"#utility.yul\":1773:1839   */\n      swap1\n      pop\n        /* \"#utility.yul\":1703:1845   */\n      swap2\n      swap1\n      pop\n      jump\t// out\n        /* \"#utility.yul\":1851:1977   */\n    tag_210:\n        /* \"#utility.yul\":1901:1910   */\n      0x00\n        /* \"#utility.yul\":1934:1971   */\n      tag_292\n        /* \"#utility.yul\":1965:1970   */\n      dup3\n        /* \"#utility.yul\":1934:1971   */\n      tag_209\n      jump\t// in\n    tag_292:\n        /* \"#utility.yul\":1921:1971   */\n      swap1\n      pop\n        /* \"#utility.yul\":1851:1977   */\n      swap2\n      swap1\n      pop\n      jump\t// out\n        /* \"#utility.yul\":1983:2124   */\n    tag_211:\n        /* \"#utility.yul\":2048:2057   */\n      0x00\n        /* \"#utility.yul\":2081:2118   */\n      tag_294\n        /* \"#utility.yul\":2112:2117   */\n      dup3\n        /* \"#utility.yul\":2081:2118   */\n      tag_210\n      jump\t// in\n    tag_294:\n        /* \"#utility.yul\":2068:2118   */\n      swap1\n      pop\n        /* \"#utility.yul\":1983:2124   */\n      swap2\n      swap1\n      pop\n      jump\t// out\n        /* \"#utility.yul\":2130:2291   */\n    tag_212:\n        /* \"#utility.yul\":2232:2284   */\n      tag_296\n        /* \"#utility.yul\":2278:2283   */\n      dup2\n        /* \"#utility.yul\":2232:2284   */\n      tag_211\n      jump\t// in\n    tag_296:\n        /* \"#utility.yul\":2227:2230   */\n      dup3\n        /* \"#utility.yul\":2220:2285   */\n      mstore\n        /* \"#utility.yul\":2130:2291   */\n      pop\n      pop\n      jump\t// out\n        /* \"#utility.yul\":2297:2549   */\n    tag_30:\n        /* \"#utility.yul\":2405:2409   */\n      0x00\n        /* \"#utility.yul\":2443:2445   */\n      0x20\n        /* \"#utility.yul\":2432:2441   */\n      dup3\n        /* \"#utility.yul\":2428:2446   */\n      add\n        /* \"#utility.yul\":2420:2446   */\n      swap1\n      pop\n        /* \"#utility.yul\":2456:2542   */\n      tag_298\n        /* \"#utility.yul\":2539:2540   */\n      0x00\n        /* \"#utility.yul\":2528:2537   */\n      dup4\n        /* \"#utility.yul\":2524:2541   */\n      add\n        /* \"#utility.yul\":2515:2521   */\n      dup5\n        /* \"#utility.yul\":2456:2542   */\n      tag_212\n      jump\t// in\n    tag_298:\n        /* \"#utility.yul\":2297:2549   */\n      swap3\n      swap2\n      pop\n      pop\n      jump\t// out\n        /* \"#utility.yul\":2555:2651   */\n    tag_213:\n        /* \"#utility.yul\":2592:2599   */\n      0x00\n        /* \"#utility.yul\":2621:2645   */\n      tag_300\n        /* \"#utility.yul\":2639:2644   */\n      dup3\n        /* \"#utility.yul\":2621:2645   */\n      tag_207\n      jump\t// in\n    tag_300:\n        /* \"#utility.yul\":2610:2645   */\n      swap1\n      pop\n        /* \"#utility.yul\":2555:2651   */\n      swap2\n      swap1\n      pop\n      jump\t// out\n        /* \"#utility.yul\":2657:2775   */\n    tag_214:\n        /* \"#utility.yul\":2744:2768   */\n      tag_302\n        /* \"#utility.yul\":2762:2767   */\n      dup2\n        /* \"#utility.yul\":2744:2768   */\n      tag_213\n      jump\t// in\n    tag_302:\n        /* \"#utility.yul\":2739:2742   */\n      dup3\n        /* \"#utility.yul\":2732:2769   */\n      mstore\n        /* \"#utility.yul\":2657:2775   */\n      pop\n      pop\n      jump\t// out\n        /* \"#utility.yul\":2781:2899   */\n    tag_215:\n        /* \"#utility.yul\":2868:2892   */\n      tag_304\n        /* \"#utility.yul\":2886:2891   */\n      dup2\n        /* \"#utility.yul\":2868:2892   */\n      tag_204\n      jump\t// in\n    tag_304:\n        /* \"#utility.yul\":2863:2866   */\n      dup3\n        /* \"#utility.yul\":2856:2893   */\n      mstore\n        /* \"#utility.yul\":2781:2899   */\n      pop\n      pop\n      jump\t// out\n        /* \"#utility.yul\":2905:2995   */\n    tag_216:\n        /* \"#utility.yul\":2939:2946   */\n      0x00\n        /* \"#utility.yul\":2982:2987   */\n      dup2\n        /* \"#utility.yul\":2975:2988   */\n      iszero\n        /* \"#utility.yul\":2968:2989   */\n      iszero\n        /* \"#utility.yul\":2957:2989   */\n      swap1\n      pop\n        /* \"#utility.yul\":2905:2995   */\n      swap2\n      swap1\n      pop\n      jump\t// out\n        /* \"#utility.yul\":3001:3110   */\n    tag_217:\n        /* \"#utility.yul\":3082:3103   */\n      tag_307\n        /* \"#utility.yul\":3097:3102   */\n      dup2\n        /* \"#utility.yul\":3082:3103   */\n      tag_216\n      jump\t// in\n    tag_307:\n        /* \"#utility.yul\":3077:3080   */\n      dup3\n        /* \"#utility.yul\":3070:3104   */\n      mstore\n        /* \"#utility.yul\":3001:3110   */\n      pop\n      pop\n      jump\t// out\n        /* \"#utility.yul\":3116:3657   */\n    tag_44:\n        /* \"#utility.yul\":3287:3291   */\n      0x00\n        /* \"#utility.yul\":3325:3328   */\n      0x80\n        /* \"#utility.yul\":3314:3323   */\n      dup3\n        /* \"#utility.yul\":3310:3329   */\n      add\n        /* \"#utility.yul\":3302:3329   */\n      swap1\n      pop\n        /* \"#utility.yul\":3339:3410   */\n      tag_309\n        /* \"#utility.yul\":3407:3408   */\n      0x00\n        /* \"#utility.yul\":3396:3405   */\n      dup4\n        /* \"#utility.yul\":3392:3409   */\n      add\n        /* \"#utility.yul\":3383:3389   */\n      dup8\n        /* \"#utility.yul\":3339:3410   */\n      tag_214\n      jump\t// in\n    tag_309:\n        /* \"#utility.yul\":3420:3492   */\n      tag_310\n        /* \"#utility.yul\":3488:3490   */\n      0x20\n        /* \"#utility.yul\":3477:3486   */\n      dup4\n        /* \"#utility.yul\":3473:3491   */\n      add\n        /* \"#utility.yul\":3464:3470   */\n      dup7\n        /* \"#utility.yul\":3420:3492   */\n      tag_215\n      jump\t// in\n    tag_310:\n        /* \"#utility.yul\":3502:3574   */\n      tag_311\n        /* \"#utility.yul\":3570:3572   */\n      0x40\n        /* \"#utility.yul\":3559:3568   */\n      dup4\n        /* \"#utility.yul\":3555:3573   */\n      add\n        /* \"#utility.yul\":3546:3552   */\n      dup6\n        /* \"#utility.yul\":3502:3574   */\n      tag_215\n      jump\t// in\n    tag_311:\n        /* \"#utility.yul\":3584:3650   */\n      tag_312\n        /* \"#utility.yul\":3646:3648   */\n      0x60\n        /* \"#utility.yul\":3635:3644   */\n      dup4\n        /* \"#utility.yul\":3631:3649   */\n      add\n        /* \"#utility.yul\":3622:3628   */\n      dup5\n        /* \"#utility.yul\":3584:3650   */\n      tag_217\n      jump\t// in\n    tag_312:\n        /* \"#utility.yul\":3116:3657   */\n      swap6\n      swap5\n      pop\n      pop\n      pop\n      pop\n      pop\n      jump\t// out\n        /* \"#utility.yul\":3663:3995   */\n    tag_53:\n        /* \"#utility.yul\":3784:3788   */\n      0x00\n        /* \"#utility.yul\":3822:3824   */\n      0x40\n        /* \"#utility.yul\":3811:3820   */\n      dup3\n        /* \"#utility.yul\":3807:3825   */\n      add\n        /* \"#utility.yul\":3799:3825   */\n      swap1\n      pop\n        /* \"#utility.yul\":3835:3906   */\n      tag_314\n        /* \"#utility.yul\":3903:3904   */\n      0x00\n        /* \"#utility.yul\":3892:3901   */\n      dup4\n        /* \"#utility.yul\":3888:3905   */\n      add\n        /* \"#utility.yul\":3879:3885   */\n      dup6\n        /* \"#utility.yul\":3835:3906   */\n      tag_214\n      jump\t// in\n    tag_314:\n        /* \"#utility.yul\":3916:3988   */\n      tag_315\n        /* \"#utility.yul\":3984:3986   */\n      0x20\n        /* \"#utility.yul\":3973:3982   */\n      dup4\n        /* \"#utility.yul\":3969:3987   */\n      add\n        /* \"#utility.yul\":3960:3966   */\n      dup5\n        /* \"#utility.yul\":3916:3988   */\n      tag_215\n      jump\t// in\n    tag_315:\n        /* \"#utility.yul\":3663:3995   */\n      swap4\n      swap3\n      pop\n      pop\n      pop\n      jump\t// out\n        /* \"#utility.yul\":4001:4170   */\n    tag_218:\n        /* \"#utility.yul\":4085:4096   */\n      0x00\n        /* \"#utility.yul\":4119:4125   */\n      dup3\n        /* \"#utility.yul\":4114:4117   */\n      dup3\n        /* \"#utility.yul\":4107:4126   */\n      mstore\n        /* \"#utility.yul\":4159:4163   */\n      0x20\n        /* \"#utility.yul\":4154:4157   */\n      dup3\n        /* \"#utility.yul\":4150:4164   */\n      add\n        /* \"#utility.yul\":4135:4164   */\n      swap1\n      pop\n        /* \"#utility.yul\":4001:4170   */\n      swap3\n      swap2\n      pop\n      pop\n      jump\t// out\n        /* \"#utility.yul\":4176:4336   */\n    tag_219:\n        /* \"#utility.yul\":4316:4328   */\n      0x6e6f742061637469766500000000000000000000000000000000000000000000\n        /* \"#utility.yul\":4312:4313   */\n      0x00\n        /* \"#utility.yul\":4304:4310   */\n      dup3\n        /* \"#utility.yul\":4300:4314   */\n      add\n        /* \"#utility.yul\":4293:4329   */\n      mstore\n        /* \"#utility.yul\":4176:4336   */\n      pop\n      jump\t// out\n        /* \"#utility.yul\":4342:4708   */\n    tag_220:\n        /* \"#utility.yul\":4484:4487   */\n      0x00\n        /* \"#utility.yul\":4505:4572   */\n      tag_319\n        /* \"#utility.yul\":4569:4571   */\n      0x0a\n        /* \"#utility.yul\":4564:4567   */\n      dup4\n        /* \"#utility.yul\":4505:4572   */\n      tag_218\n      jump\t// in\n    tag_319:\n        /* \"#utility.yul\":4498:4572   */\n      swap2\n      pop\n        /* \"#utility.yul\":4581:4674   */\n      tag_320\n        /* \"#utility.yul\":4670:4673   */\n      dup3\n        /* \"#utility.yul\":4581:4674   */\n      tag_219\n      jump\t// in\n    tag_320:\n        /* \"#utility.yul\":4699:4701   */\n      0x20\n        /* \"#utility.yul\":4694:4697   */\n      dup3\n        /* \"#utility.yul\":4690:4702   */\n      add\n        /* \"#utility.yul\":4683:4702   */\n      swap1\n      pop\n        /* \"#utility.yul\":4342:4708   */\n      swap2\n      swap1\n      pop\n      jump\t// out\n        /* \"#utility.yul\":4714:5133   */\n    tag_60:\n        /* \"#utility.yul\":4880:4884   */\n      0x00\n        /* \"#utility.yul\":4918:4920   */\n      0x20\n        /* \"#utility.yul\":4907:4916   */\n      dup3\n        /* \"#utility.yul\":4903:4921   */\n      add\n        /* \"#utility.yul\":4895:4921   */\n      swap1\n      pop\n        /* \"#utility.yul\":4967:4976   */\n      dup2\n        /* \"#utility.yul\":4961:4965   */\n      dup2\n        /* \"#utility.yul\":4957:4977   */\n      sub\n        /* \"#utility.yul\":4953:4954   */\n      0x00\n        /* \"#utility.yul\":4942:4951   */\n      dup4\n        /* \"#utility.yul\":4938:4955   */\n      add\n        /* \"#utility.yul\":4931:4978   */\n      mstore\n        /* \"#utility.yul\":4995:5126   */\n      tag_322\n        /* \"#utility.yul\":5121:5125   */\n      dup2\n        /* \"#utility.yul\":4995:5126   */\n      tag_220\n      jump\t// in\n    tag_322:\n        /* \"#utility.yul\":4987:5126   */\n      swap1\n      pop\n        /* \"#utility.yul\":4714:5133   */\n      swap2\n      swap1\n      pop\n      jump\t// out\n        /* \"#utility.yul\":5139:5361   */\n    tag_62:\n        /* \"#utility.yul\":5232:5236   */\n      0x00\n        /* \"#utility.yul\":5270:5272   */\n      0x20\n        /* \"#utility.yul\":5259:5268   */\n      dup3\n        /* \"#utility.yul\":5255:5273   */\n      add\n        /* \"#utility.yul\":5247:5273   */\n      swap1\n      pop\n        /* \"#utility.yul\":5283:5354   */\n      tag_324\n        /* \"#utility.yul\":5351:5352   */\n      0x00\n        /* \"#utility.yul\":5340:5349   */\n      dup4\n        /* \"#utility.yul\":5336:5353   */\n      add\n        /* \"#utility.yul\":5327:5333   */\n      dup5\n        /* \"#utility.yul\":5283:5354   */\n      tag_215\n      jump\t// in\n    tag_324:\n        /* \"#utility.yul\":5139:5361   */\n      swap3\n      swap2\n      pop\n      pop\n      jump\t// out\n        /* \"#utility.yul\":5367:5489   */\n    tag_221:\n        /* \"#utility.yul\":5440:5464   */\n      tag_326\n        /* \"#utility.yul\":5458:5463   */\n      dup2\n        /* \"#utility.yul\":5440:5464   */\n      tag_213\n      jump\t// in\n    tag_326:\n        /* \"#utility.yul\":5433:5438   */\n      dup2\n        /* \"#utility.yul\":5430:5465   */\n      eq\n        /* \"#utility.yul\":5420:5483   */\n      tag_327\n      jumpi\n        /* \"#utility.yul\":5479:5480   */\n      0x00\n        /* \"#utility.yul\":5476:5477   */\n      dup1\n        /* \"#utility.yul\":5469:5481   */\n      revert\n        /* \"#utility.yul\":5420:5483   */\n    tag_327:\n        /* \"#utility.yul\":5367:5489   */\n      pop\n      jump\t// out\n        /* \"#utility.yul\":5495:5638   */\n    tag_222:\n        /* \"#utility.yul\":5552:5557   */\n      0x00\n        /* \"#utility.yul\":5583:5589   */\n      dup2\n        /* \"#utility.yul\":5577:5590   */\n      mload\n        /* \"#utility.yul\":5568:5590   */\n      swap1\n      pop\n        /* \"#utility.yul\":5599:5632   */\n      tag_329\n        /* \"#utility.yul\":5626:5631   */\n      dup2\n        /* \"#utility.yul\":5599:5632   */\n      tag_221\n      jump\t// in\n    tag_329:\n        /* \"#utility.yul\":5495:5638   */\n      swap3\n      swap2\n      pop\n      pop\n      jump\t// out\n        /* \"#utility.yul\":5644:5995   */\n    tag_66:\n        /* \"#utility.yul\":5714:5720   */\n      0x00\n        /* \"#utility.yul\":5763:5765   */\n      0x20\n        /* \"#utility.yul\":5751:5760   */\n      dup3\n        /* \"#utility.yul\":5742:5749   */\n      dup5\n        /* \"#utility.yul\":5738:5761   */\n      sub\n        /* \"#utility.yul\":5734:5766   */\n      slt\n        /* \"#utility.yul\":5731:5850   */\n      iszero\n      tag_331\n      jumpi\n        /* \"#utility.yul\":5769:5848   */\n      tag_332\n      tag_202\n      jump\t// in\n    tag_332:\n        /* \"#utility.yul\":5731:5850   */\n    tag_331:\n        /* \"#utility.yul\":5889:5890   */\n      0x00\n        /* \"#utility.yul\":5914:5978   */\n      tag_333\n        /* \"#utility.yul\":5970:5977   */\n      dup5\n        /* \"#utility.yul\":5961:5967   */\n      dup3\n        /* \"#utility.yul\":5950:5959   */\n      dup6\n        /* \"#utility.yul\":5946:5968   */\n      add\n        /* \"#utility.yul\":5914:5978   */\n      tag_222\n      jump\t// in\n    tag_333:\n        /* \"#utility.yul\":5904:5978   */\n      swap2\n      pop\n        /* \"#utility.yul\":5860:5988   */\n      pop\n        /* \"#utility.yul\":5644:5995   */\n      swap3\n      swap2\n      pop\n      pop\n      jump\t// out\n        /* \"#utility.yul\":6001:6170   */\n    tag_223:\n        /* \"#utility.yul\":6141:6162   */\n      0x6d616b6572206e6f74206f776e6572206e6f7700000000000000000000000000\n        /* \"#utility.yul\":6137:6138   */\n      0x00\n        /* \"#utility.yul\":6129:6135   */\n      dup3\n        /* \"#utility.yul\":6125:6139   */\n      add\n        /* \"#utility.yul\":6118:6163   */\n      mstore\n        /* \"#utility.yul\":6001:6170   */\n      pop\n      jump\t// out\n        /* \"#utility.yul\":6176:6542   */\n    tag_224:\n        /* \"#utility.yul\":6318:6321   */\n      0x00\n        /* \"#utility.yul\":6339:6406   */\n      tag_336\n        /* \"#utility.yul\":6403:6405   */\n      0x13\n        /* \"#utility.yul\":6398:6401   */\n      dup4\n        /* \"#utility.yul\":6339:6406   */\n      tag_218\n      jump\t// in\n    tag_336:\n        /* \"#utility.yul\":6332:6406   */\n      swap2\n      pop\n        /* \"#utility.yul\":6415:6508   */\n      tag_337\n        /* \"#utility.yul\":6504:6507   */\n      dup3\n        /* \"#utility.yul\":6415:6508   */\n      tag_223\n      jump\t// in\n    tag_337:\n        /* \"#utility.yul\":6533:6535   */\n      0x20\n        /* \"#utility.yul\":6528:6531   */\n      dup3\n        /* \"#utility.yul\":6524:6536   */\n      add\n        /* \"#utility.yul\":6517:6536   */\n      swap1\n      pop\n        /* \"#utility.yul\":6176:6542   */\n      swap2\n      swap1\n      pop\n      jump\t// out\n        /* \"#utility.yul\":6548:6967   */\n    tag_69:\n        /* \"#utility.yul\":6714:6718   */\n      0x00\n        /* \"#utility.yul\":6752:6754   */\n      0x20\n        /* \"#utility.yul\":6741:6750   */\n      dup3\n        /* \"#utility.yul\":6737:6755   */\n      add\n        /* \"#utility.yul\":6729:6755   */\n      swap1\n      pop\n        /* \"#utility.yul\":6801:6810   */\n      dup2\n        /* \"#utility.yul\":6795:6799   */\n      dup2\n        /* \"#utility.yul\":6791:6811   */\n      sub\n        /* \"#utility.yul\":6787:6788   */\n      0x00\n        /* \"#utility.yul\":6776:6785   */\n      dup4\n        /* \"#utility.yul\":6772:6789   */\n      add\n        /* \"#utility.yul\":6765:6812   */\n      mstore\n        /* \"#utility.yul\":6829:6960   */\n      tag_339\n        /* \"#utility.yul\":6955:6959   */\n      dup2\n        /* \"#utility.yul\":6829:6960   */\n      tag_224\n      jump\t// in\n    tag_339:\n        /* \"#utility.yul\":6821:6960   */\n      swap1\n      pop\n        /* \"#utility.yul\":6548:6967   */\n      swap2\n      swap1\n      pop\n      jump\t// out\n        /* \"#utility.yul\":6973:7145   */\n    tag_225:\n        /* \"#utility.yul\":7113:7137   */\n      0x74616b6572206e6f74206f776e65722077616e74656400000000000000000000\n        /* \"#utility.yul\":7109:7110   */\n      0x00\n        /* \"#utility.yul\":7101:7107   */\n      dup3\n        /* \"#utility.yul\":7097:7111   */\n      add\n        /* \"#utility.yul\":7090:7138   */\n      mstore\n        /* \"#utility.yul\":6973:7145   */\n      pop\n      jump\t// out\n        /* \"#utility.yul\":7151:7517   */\n    tag_226:\n        /* \"#utility.yul\":7293:7296   */\n      0x00\n        /* \"#utility.yul\":7314:7381   */\n      tag_342\n        /* \"#utility.yul\":7378:7380   */\n      0x16\n        /* \"#utility.yul\":7373:7376   */\n      dup4\n        /* \"#utility.yul\":7314:7381   */\n      tag_218\n      jump\t// in\n    tag_342:\n        /* \"#utility.yul\":7307:7381   */\n      swap2\n      pop\n        /* \"#utility.yul\":7390:7483   */\n      tag_343\n        /* \"#utility.yul\":7479:7482   */\n      dup3\n        /* \"#utility.yul\":7390:7483   */\n      tag_225\n      jump\t// in\n    tag_343:\n        /* \"#utility.yul\":7508:7510   */\n      0x20\n        /* \"#utility.yul\":7503:7506   */\n      dup3\n        /* \"#utility.yul\":7499:7511   */\n      add\n        /* \"#utility.yul\":7492:7511   */\n      swap1\n      pop\n        /* \"#utility.yul\":7151:7517   */\n      swap2\n      swap1\n      pop\n      jump\t// out\n        /* \"#utility.yul\":7523:7942   */\n    tag_76:\n        /* \"#utility.yul\":7689:7693   */\n      0x00\n        /* \"#utility.yul\":7727:7729   */\n      0x20\n        /* \"#utility.yul\":7716:7725   */\n      dup3\n        /* \"#utility.yul\":7712:7730   */\n      add\n        /* \"#utility.yul\":7704:7730   */\n      swap1\n      pop\n        /* \"#utility.yul\":7776:7785   */\n      dup2\n        /* \"#utility.yul\":7770:7774   */\n      dup2\n        /* \"#utility.yul\":7766:7786   */\n      sub\n        /* \"#utility.yul\":7762:7763   */\n      0x00\n        /* \"#utility.yul\":7751:7760   */\n      dup4\n        /* \"#utility.yul\":7747:7764   */\n      add\n        /* \"#utility.yul\":7740:7787   */\n      mstore\n        /* \"#utility.yul\":7804:7935   */\n      tag_345\n        /* \"#utility.yul\":7930:7934   */\n      dup2\n        /* \"#utility.yul\":7804:7935   */\n      tag_226\n      jump\t// in\n    tag_345:\n        /* \"#utility.yul\":7796:7935   */\n      swap1\n      pop\n        /* \"#utility.yul\":7523:7942   */\n      swap2\n      swap1\n      pop\n      jump\t// out\n        /* \"#utility.yul\":7948:8125   */\n    tag_227:\n        /* \"#utility.yul\":8088:8117   */\n      0x6d61726b6574206e6f7420617070726f766564206f6666657265640000000000\n        /* \"#utility.yul\":8084:8085   */\n      0x00\n        /* \"#utility.yul\":8076:8082   */\n      dup3\n        /* \"#utility.yul\":8072:8086   */\n      add\n        /* \"#utility.yul\":8065:8118   */\n      mstore\n        /* \"#utility.yul\":7948:8125   */\n      pop\n      jump\t// out\n        /* \"#utility.yul\":8131:8497   */\n    tag_228:\n        /* \"#utility.yul\":8273:8276   */\n      0x00\n        /* \"#utility.yul\":8294:8361   */\n      tag_348\n        /* \"#utility.yul\":8358:8360   */\n      0x1b\n        /* \"#utility.yul\":8353:8356   */\n      dup4\n        /* \"#utility.yul\":8294:8361   */\n      tag_218\n      jump\t// in\n    tag_348:\n        /* \"#utility.yul\":8287:8361   */\n      swap2\n      pop\n        /* \"#utility.yul\":8370:8463   */\n      tag_349\n        /* \"#utility.yul\":8459:8462   */\n      dup3\n        /* \"#utility.yul\":8370:8463   */\n      tag_227\n      jump\t// in\n    tag_349:\n        /* \"#utility.yul\":8488:8490   */\n      0x20\n        /* \"#utility.yul\":8483:8486   */\n      dup3\n        /* \"#utility.yul\":8479:8491   */\n      add\n        /* \"#utility.yul\":8472:8491   */\n      swap1\n      pop\n        /* \"#utility.yul\":8131:8497   */\n      swap2\n      swap1\n      pop\n      jump\t// out\n        /* \"#utility.yul\":8503:8922   */\n    tag_81:\n        /* \"#utility.yul\":8669:8673   */\n      0x00\n        /* \"#utility.yul\":8707:8709   */\n      0x20\n        /* \"#utility.yul\":8696:8705   */\n      dup3\n        /* \"#utility.yul\":8692:8710   */\n      add\n        /* \"#utility.yul\":8684:8710   */\n      swap1\n      pop\n        /* \"#utility.yul\":8756:8765   */\n      dup2\n        /* \"#utility.yul\":8750:8754   */\n      dup2\n        /* \"#utility.yul\":8746:8766   */\n      sub\n        /* \"#utility.yul\":8742:8743   */\n      0x00\n        /* \"#utility.yul\":8731:8740   */\n      dup4\n        /* \"#utility.yul\":8727:8744   */\n      add\n        /* \"#utility.yul\":8720:8767   */\n      mstore\n        /* \"#utility.yul\":8784:8915   */\n      tag_351\n        /* \"#utility.yul\":8910:8914   */\n      dup2\n        /* \"#utility.yul\":8784:8915   */\n      tag_228\n      jump\t// in\n    tag_351:\n        /* \"#utility.yul\":8776:8915   */\n      swap1\n      pop\n        /* \"#utility.yul\":8503:8922   */\n      swap2\n      swap1\n      pop\n      jump\t// out\n        /* \"#utility.yul\":8928:9104   */\n    tag_229:\n        /* \"#utility.yul\":9068:9096   */\n      0x6d61726b6574206e6f7420617070726f7665642077616e746564000000000000\n        /* \"#utility.yul\":9064:9065   */\n      0x00\n        /* \"#utility.yul\":9056:9062   */\n      dup3\n        /* \"#utility.yul\":9052:9066   */\n      add\n        /* \"#utility.yul\":9045:9097   */\n      mstore\n        /* \"#utility.yul\":8928:9104   */\n      pop\n      jump\t// out\n        /* \"#utility.yul\":9110:9476   */\n    tag_230:\n        /* \"#utility.yul\":9252:9255   */\n      0x00\n        /* \"#utility.yul\":9273:9340   */\n      tag_354\n        /* \"#utility.yul\":9337:9339   */\n      0x1a\n        /* \"#utility.yul\":9332:9335   */\n      dup4\n        /* \"#utility.yul\":9273:9340   */\n      tag_218\n      jump\t// in\n    tag_354:\n        /* \"#utility.yul\":9266:9340   */\n      swap2\n      pop\n        /* \"#utility.yul\":9349:9442   */\n      tag_355\n        /* \"#utility.yul\":9438:9441   */\n      dup3\n        /* \"#utility.yul\":9349:9442   */\n      tag_229\n      jump\t// in\n    tag_355:\n        /* \"#utility.yul\":9467:9469   */\n      0x20\n        /* \"#utility.yul\":9462:9465   */\n      dup3\n        /* \"#utility.yul\":9458:9470   */\n      add\n        /* \"#utility.yul\":9451:9470   */\n      swap1\n      pop\n        /* \"#utility.yul\":9110:9476   */\n      swap2\n      swap1\n      pop\n      jump\t// out\n        /* \"#utility.yul\":9482:9901   */\n    tag_85:\n        /* \"#utility.yul\":9648:9652   */\n      0x00\n        /* \"#utility.yul\":9686:9688   */\n      0x20\n        /* \"#utility.yul\":9675:9684   */\n      dup3\n        /* \"#utility.yul\":9671:9689   */\n      add\n        /* \"#utility.yul\":9663:9689   */\n      swap1\n      pop\n        /* \"#utility.yul\":9735:9744   */\n      dup2\n        /* \"#utility.yul\":9729:9733   */\n      dup2\n        /* \"#utility.yul\":9725:9745   */\n      sub\n        /* \"#utility.yul\":9721:9722   */\n      0x00\n        /* \"#utility.yul\":9710:9719   */\n      dup4\n        /* \"#utility.yul\":9706:9723   */\n      add\n        /* \"#utility.yul\":9699:9746   */\n      mstore\n        /* \"#utility.yul\":9763:9894   */\n      tag_357\n        /* \"#utility.yul\":9889:9893   */\n      dup2\n        /* \"#utility.yul\":9763:9894   */\n      tag_230\n      jump\t// in\n    tag_357:\n        /* \"#utility.yul\":9755:9894   */\n      swap1\n      pop\n        /* \"#utility.yul\":9482:9901   */\n      swap2\n      swap1\n      pop\n      jump\t// out\n        /* \"#utility.yul\":9907:10077   */\n    tag_231:\n        /* \"#utility.yul\":10047:10069   */\n      0x6f66666572656420746f6b656e206c6973746564000000000000000000000000\n        /* \"#utility.yul\":10043:10044   */\n      0x00\n        /* \"#utility.yul\":10035:10041   */\n      dup3\n        /* \"#utility.yul\":10031:10045   */\n      add\n        /* \"#utility.yul\":10024:10070   */\n      mstore\n        /* \"#utility.yul\":9907:10077   */\n      pop\n      jump\t// out\n        /* \"#utility.yul\":10083:10449   */\n    tag_232:\n        /* \"#utility.yul\":10225:10228   */\n      0x00\n        /* \"#utility.yul\":10246:10313   */\n      tag_360\n        /* \"#utility.yul\":10310:10312   */\n      0x14\n        /* \"#utility.yul\":10305:10308   */\n      dup4\n        /* \"#utility.yul\":10246:10313   */\n      tag_218\n      jump\t// in\n    tag_360:\n        /* \"#utility.yul\":10239:10313   */\n      swap2\n      pop\n        /* \"#utility.yul\":10322:10415   */\n      tag_361\n        /* \"#utility.yul\":10411:10414   */\n      dup3\n        /* \"#utility.yul\":10322:10415   */\n      tag_231\n      jump\t// in\n    tag_361:\n        /* \"#utility.yul\":10440:10442   */\n      0x20\n        /* \"#utility.yul\":10435:10438   */\n      dup3\n        /* \"#utility.yul\":10431:10443   */\n      add\n        /* \"#utility.yul\":10424:10443   */\n      swap1\n      pop\n        /* \"#utility.yul\":10083:10449   */\n      swap2\n      swap1\n      pop\n      jump\t// out\n        /* \"#utility.yul\":10455:10874   */\n    tag_88:\n        /* \"#utility.yul\":10621:10625   */\n      0x00\n        /* \"#utility.yul\":10659:10661   */\n      0x20\n        /* \"#utility.yul\":10648:10657   */\n      dup3\n        /* \"#utility.yul\":10644:10662   */\n      add\n        /* \"#utility.yul\":10636:10662   */\n      swap1\n      pop\n        /* \"#utility.yul\":10708:10717   */\n      dup2\n        /* \"#utility.yul\":10702:10706   */\n      dup2\n        /* \"#utility.yul\":10698:10718   */\n      sub\n        /* \"#utility.yul\":10694:10695   */\n      0x00\n        /* \"#utility.yul\":10683:10692   */\n      dup4\n        /* \"#utility.yul\":10679:10696   */\n      add\n        /* \"#utility.yul\":10672:10719   */\n      mstore\n        /* \"#utility.yul\":10736:10867   */\n      tag_363\n        /* \"#utility.yul\":10862:10866   */\n      dup2\n        /* \"#utility.yul\":10736:10867   */\n      tag_232\n      jump\t// in\n    tag_363:\n        /* \"#utility.yul\":10728:10867   */\n      swap1\n      pop\n        /* \"#utility.yul\":10455:10874   */\n      swap2\n      swap1\n      pop\n      jump\t// out\n        /* \"#utility.yul\":10880:11049   */\n    tag_233:\n        /* \"#utility.yul\":11020:11041   */\n      0x77616e74656420746f6b656e206c697374656400000000000000000000000000\n        /* \"#utility.yul\":11016:11017   */\n      0x00\n        /* \"#utility.yul\":11008:11014   */\n      dup3\n        /* \"#utility.yul\":11004:11018   */\n      add\n        /* \"#utility.yul\":10997:11042   */\n      mstore\n        /* \"#utility.yul\":10880:11049   */\n      pop\n      jump\t// out\n        /* \"#utility.yul\":11055:11421   */\n    tag_234:\n        /* \"#utility.yul\":11197:11200   */\n      0x00\n        /* \"#utility.yul\":11218:11285   */\n      tag_366\n        /* \"#utility.yul\":11282:11284   */\n      0x13\n        /* \"#utility.yul\":11277:11280   */\n      dup4\n        /* \"#utility.yul\":11218:11285   */\n      tag_218\n      jump\t// in\n    tag_366:\n        /* \"#utility.yul\":11211:11285   */\n      swap2\n      pop\n        /* \"#utility.yul\":11294:11387   */\n      tag_367\n        /* \"#utility.yul\":11383:11386   */\n      dup3\n        /* \"#utility.yul\":11294:11387   */\n      tag_233\n      jump\t// in\n    tag_367:\n        /* \"#utility.yul\":11412:11414   */\n      0x20\n        /* \"#utility.yul\":11407:11410   */\n      dup3\n        /* \"#utility.yul\":11403:11415   */\n      add\n        /* \"#utility.yul\":11396:11415   */\n      swap1\n      pop\n        /* \"#utility.yul\":11055:11421   */\n      swap2\n      swap1\n      pop\n      jump\t// out\n        /* \"#utility.yul\":11427:11846   */\n    tag_91:\n        /* \"#utility.yul\":11593:11597   */\n      0x00\n        /* \"#utility.yul\":11631:11633   */\n      0x20\n        /* \"#utility.yul\":11620:11629   */\n      dup3\n        /* \"#utility.yul\":11616:11634   */\n      add\n        /* \"#utility.yul\":11608:11634   */\n      swap1\n      pop\n        /* \"#utility.yul\":11680:11689   */\n      dup2\n        /* \"#utility.yul\":11674:11678   */\n      dup2\n        /* \"#utility.yul\":11670:11690   */\n      sub\n        /* \"#utility.yul\":11666:11667   */\n      0x00\n        /* \"#utility.yul\":11655:11664   */\n      dup4\n        /* \"#utility.yul\":11651:11668   */\n      add\n        /* \"#utility.yul\":11644:11691   */\n      mstore\n        /* \"#utility.yul\":11708:11839   */\n      tag_369\n        /* \"#utility.yul\":11834:11838   */\n      dup2\n        /* \"#utility.yul\":11708:11839   */\n      tag_234\n      jump\t// in\n    tag_369:\n        /* \"#utility.yul\":11700:11839   */\n      swap1\n      pop\n        /* \"#utility.yul\":11427:11846   */\n      swap2\n      swap1\n      pop\n      jump\t// out\n        /* \"#utility.yul\":11852:12294   */\n    tag_93:\n        /* \"#utility.yul\":12001:12005   */\n      0x00\n        /* \"#utility.yul\":12039:12041   */\n      0x60\n        /* \"#utility.yul\":12028:12037   */\n      dup3\n        /* \"#utility.yul\":12024:12042   */\n      add\n        /* \"#utility.yul\":12016:12042   */\n      swap1\n      pop\n        /* \"#utility.yul\":12052:12123   */\n      tag_371\n        /* \"#utility.yul\":12120:12121   */\n      0x00\n        /* \"#utility.yul\":12109:12118   */\n      dup4\n        /* \"#utility.yul\":12105:12122   */\n      add\n        /* \"#utility.yul\":12096:12102   */\n      dup7\n        /* \"#utility.yul\":12052:12123   */\n      tag_214\n      jump\t// in\n    tag_371:\n        /* \"#utility.yul\":12133:12205   */\n      tag_372\n        /* \"#utility.yul\":12201:12203   */\n      0x20\n        /* \"#utility.yul\":12190:12199   */\n      dup4\n        /* \"#utility.yul\":12186:12204   */\n      add\n        /* \"#utility.yul\":12177:12183   */\n      dup6\n        /* \"#utility.yul\":12133:12205   */\n      tag_214\n      jump\t// in\n    tag_372:\n        /* \"#utility.yul\":12215:12287   */\n      tag_373\n        /* \"#utility.yul\":12283:12285   */\n      0x40\n        /* \"#utility.yul\":12272:12281   */\n      dup4\n        /* \"#utility.yul\":12268:12286   */\n      add\n        /* \"#utility.yul\":12259:12265   */\n      dup5\n        /* \"#utility.yul\":12215:12287   */\n      tag_215\n      jump\t// in\n    tag_373:\n        /* \"#utility.yul\":11852:12294   */\n      swap5\n      swap4\n      pop\n      pop\n      pop\n      pop\n      jump\t// out\n        /* \"#utility.yul\":12300:12460   */\n    tag_235:\n        /* \"#utility.yul\":12440:12452   */\n      0x73616d6520746f6b656e00000000000000000000000000000000000000000000\n        /* \"#utility.yul\":12436:12437   */\n      0x00\n        /* \"#utility.yul\":12428:12434   */\n      dup3\n        /* \"#utility.yul\":12424:12438   */\n      add\n        /* \"#utility.yul\":12417:12453   */\n      mstore\n        /* \"#utility.yul\":12300:12460   */\n      pop\n      jump\t// out\n        /* \"#utility.yul\":12466:12832   */\n    tag_236:\n        /* \"#utility.yul\":12608:12611   */\n      0x00\n        /* \"#utility.yul\":12629:12696   */\n      tag_376\n        /* \"#utility.yul\":12693:12695   */\n      0x0a\n        /* \"#utility.yul\":12688:12691   */\n      dup4\n        /* \"#utility.yul\":12629:12696   */\n      tag_218\n      jump\t// in\n    tag_376:\n        /* \"#utility.yul\":12622:12696   */\n      swap2\n      pop\n        /* \"#utility.yul\":12705:12798   */\n      tag_377\n        /* \"#utility.yul\":12794:12797   */\n      dup3\n        /* \"#utility.yul\":12705:12798   */\n      tag_235\n      jump\t// in\n    tag_377:\n        /* \"#utility.yul\":12823:12825   */\n      0x20\n        /* \"#utility.yul\":12818:12821   */\n      dup3\n        /* \"#utility.yul\":12814:12826   */\n      add\n        /* \"#utility.yul\":12807:12826   */\n      swap1\n      pop\n        /* \"#utility.yul\":12466:12832   */\n      swap2\n      swap1\n      pop\n      jump\t// out\n        /* \"#utility.yul\":12838:13257   */\n    tag_107:\n        /* \"#utility.yul\":13004:13008   */\n      0x00\n        /* \"#utility.yul\":13042:13044   */\n      0x20\n        /* \"#utility.yul\":13031:13040   */\n      dup3\n        /* \"#utility.yul\":13027:13045   */\n      add\n        /* \"#utility.yul\":13019:13045   */\n      swap1\n      pop\n        /* \"#utility.yul\":13091:13100   */\n      dup2\n        /* \"#utility.yul\":13085:13089   */\n      dup2\n        /* \"#utility.yul\":13081:13101   */\n      sub\n        /* \"#utility.yul\":13077:13078   */\n      0x00\n        /* \"#utility.yul\":13066:13075   */\n      dup4\n        /* \"#utility.yul\":13062:13079   */\n      add\n        /* \"#utility.yul\":13055:13102   */\n      mstore\n        /* \"#utility.yul\":13119:13250   */\n      tag_379\n        /* \"#utility.yul\":13245:13249   */\n      dup2\n        /* \"#utility.yul\":13119:13250   */\n      tag_236\n      jump\t// in\n    tag_379:\n        /* \"#utility.yul\":13111:13250   */\n      swap1\n      pop\n        /* \"#utility.yul\":12838:13257   */\n      swap2\n      swap1\n      pop\n      jump\t// out\n        /* \"#utility.yul\":13263:13430   */\n    tag_237:\n        /* \"#utility.yul\":13403:13422   */\n      0x6e6f74206f776e6572206f666665726564000000000000000000000000000000\n        /* \"#utility.yul\":13399:13400   */\n      0x00\n        /* \"#utility.yul\":13391:13397   */\n      dup3\n        /* \"#utility.yul\":13387:13401   */\n      add\n        /* \"#utility.yul\":13380:13423   */\n      mstore\n        /* \"#utility.yul\":13263:13430   */\n      pop\n      jump\t// out\n        /* \"#utility.yul\":13436:13802   */\n    tag_238:\n        /* \"#utility.yul\":13578:13581   */\n      0x00\n        /* \"#utility.yul\":13599:13666   */\n      tag_382\n        /* \"#utility.yul\":13663:13665   */\n      0x11\n        /* \"#utility.yul\":13658:13661   */\n      dup4\n        /* \"#utility.yul\":13599:13666   */\n      tag_218\n      jump\t// in\n    tag_382:\n        /* \"#utility.yul\":13592:13666   */\n      swap2\n      pop\n        /* \"#utility.yul\":13675:13768   */\n      tag_383\n        /* \"#utility.yul\":13764:13767   */\n      dup3\n        /* \"#utility.yul\":13675:13768   */\n      tag_237\n      jump\t// in\n    tag_383:\n        /* \"#utility.yul\":13793:13795   */\n      0x20\n        /* \"#utility.yul\":13788:13791   */\n      dup3\n        /* \"#utility.yul\":13784:13796   */\n      add\n        /* \"#utility.yul\":13777:13796   */\n      swap1\n      pop\n        /* \"#utility.yul\":13436:13802   */\n      swap2\n      swap1\n      pop\n      jump\t// out\n        /* \"#utility.yul\":13808:14227   */\n    tag_114:\n        /* \"#utility.yul\":13974:13978   */\n      0x00\n        /* \"#utility.yul\":14012:14014   */\n      0x20\n        /* \"#utility.yul\":14001:14010   */\n      dup3\n        /* \"#utility.yul\":13997:14015   */\n      add\n        /* \"#utility.yul\":13989:14015   */\n      swap1\n      pop\n        /* \"#utility.yul\":14061:14070   */\n      dup2\n        /* \"#utility.yul\":14055:14059   */\n      dup2\n        /* \"#utility.yul\":14051:14071   */\n      sub\n        /* \"#utility.yul\":14047:14048   */\n      0x00\n        /* \"#utility.yul\":14036:14045   */\n      dup4\n        /* \"#utility.yul\":14032:14049   */\n      add\n        /* \"#utility.yul\":14025:14072   */\n      mstore\n        /* \"#utility.yul\":14089:14220   */\n      tag_385\n        /* \"#utility.yul\":14215:14219   */\n      dup2\n        /* \"#utility.yul\":14089:14220   */\n      tag_238\n      jump\t// in\n    tag_385:\n        /* \"#utility.yul\":14081:14220   */\n      swap1\n      pop\n        /* \"#utility.yul\":13808:14227   */\n      swap2\n      swap1\n      pop\n      jump\t// out\n        /* \"#utility.yul\":14233:14393   */\n    tag_239:\n        /* \"#utility.yul\":14373:14385   */\n      0x6e6f74206c697374656400000000000000000000000000000000000000000000\n        /* \"#utility.yul\":14369:14370   */\n      0x00\n        /* \"#utility.yul\":14361:14367   */\n      dup3\n        /* \"#utility.yul\":14357:14371   */\n      add\n        /* \"#utility.yul\":14350:14386   */\n      mstore\n        /* \"#utility.yul\":14233:14393   */\n      pop\n      jump\t// out\n        /* \"#utility.yul\":14399:14765   */\n    tag_240:\n        /* \"#utility.yul\":14541:14544   */\n      0x00\n        /* \"#utility.yul\":14562:14629   */\n      tag_388\n        /* \"#utility.yul\":14626:14628   */\n      0x0a\n        /* \"#utility.yul\":14621:14624   */\n      dup4\n        /* \"#utility.yul\":14562:14629   */\n      tag_218\n      jump\t// in\n    tag_388:\n        /* \"#utility.yul\":14555:14629   */\n      swap2\n      pop\n        /* \"#utility.yul\":14638:14731   */\n      tag_389\n        /* \"#utility.yul\":14727:14730   */\n      dup3\n        /* \"#utility.yul\":14638:14731   */\n      tag_239\n      jump\t// in\n    tag_389:\n        /* \"#utility.yul\":14756:14758   */\n      0x20\n        /* \"#utility.yul\":14751:14754   */\n      dup3\n        /* \"#utility.yul\":14747:14759   */\n      add\n        /* \"#utility.yul\":14740:14759   */\n      swap1\n      pop\n        /* \"#utility.yul\":14399:14765   */\n      swap2\n      swap1\n      pop\n      jump\t// out\n        /* \"#utility.yul\":14771:15190   */\n    tag_123:\n        /* \"#utility.yul\":14937:14941   */\n      0x00\n        /* \"#utility.yul\":14975:14977   */\n      0x20\n        /* \"#utility.yul\":14964:14973   */\n      dup3\n        /* \"#utility.yul\":14960:14978   */\n      add\n        /* \"#utility.yul\":14952:14978   */\n      swap1\n      pop\n        /* \"#utility.yul\":15024:15033   */\n      dup2\n        /* \"#utility.yul\":15018:15022   */\n      dup2\n        /* \"#utility.yul\":15014:15034   */\n      sub\n        /* \"#utility.yul\":15010:15011   */\n      0x00\n        /* \"#utility.yul\":14999:15008   */\n      dup4\n        /* \"#utility.yul\":14995:15012   */\n      add\n        /* \"#utility.yul\":14988:15035   */\n      mstore\n        /* \"#utility.yul\":15052:15183   */\n      tag_391\n        /* \"#utility.yul\":15178:15182   */\n      dup2\n        /* \"#utility.yul\":15052:15183   */\n      tag_240\n      jump\t// in\n    tag_391:\n        /* \"#utility.yul\":15044:15183   */\n      swap1\n      pop\n        /* \"#utility.yul\":14771:15190   */\n      swap2\n      swap1\n      pop\n      jump\t// out\n        /* \"#utility.yul\":15196:15356   */\n    tag_241:\n        /* \"#utility.yul\":15336:15348   */\n      0x6e6f742073656c6c657200000000000000000000000000000000000000000000\n        /* \"#utility.yul\":15332:15333   */\n      0x00\n        /* \"#utility.yul\":15324:15330   */\n      dup3\n        /* \"#utility.yul\":15320:15334   */\n      add\n        /* \"#utility.yul\":15313:15349   */\n      mstore\n        /* \"#utility.yul\":15196:15356   */\n      pop\n      jump\t// out\n        /* \"#utility.yul\":15362:15728   */\n    tag_242:\n        /* \"#utility.yul\":15504:15507   */\n      0x00\n        /* \"#utility.yul\":15525:15592   */\n      tag_394\n        /* \"#utility.yul\":15589:15591   */\n      0x0a\n        /* \"#utility.yul\":15584:15587   */\n      dup4\n        /* \"#utility.yul\":15525:15592   */\n      tag_218\n      jump\t// in\n    tag_394:\n        /* \"#utility.yul\":15518:15592   */\n      swap2\n      pop\n        /* \"#utility.yul\":15601:15694   */\n      tag_395\n        /* \"#utility.yul\":15690:15693   */\n      dup3\n        /* \"#utility.yul\":15601:15694   */\n      tag_241\n      jump\t// in\n    tag_395:\n        /* \"#utility.yul\":15719:15721   */\n      0x20\n        /* \"#utility.yul\":15714:15717   */\n      dup3\n        /* \"#utility.yul\":15710:15722   */\n      add\n        /* \"#utility.yul\":15703:15722   */\n      swap1\n      pop\n        /* \"#utility.yul\":15362:15728   */\n      swap2\n      swap1\n      pop\n      jump\t// out\n        /* \"#utility.yul\":15734:16153   */\n    tag_126:\n        /* \"#utility.yul\":15900:15904   */\n      0x00\n        /* \"#utility.yul\":15938:15940   */\n      0x20\n        /* \"#utility.yul\":15927:15936   */\n      dup3\n        /* \"#utility.yul\":15923:15941   */\n      add\n        /* \"#utility.yul\":15915:15941   */\n      swap1\n      pop\n        /* \"#utility.yul\":15987:15996   */\n      dup2\n        /* \"#utility.yul\":15981:15985   */\n      dup2\n        /* \"#utility.yul\":15977:15997   */\n      sub\n        /* \"#utility.yul\":15973:15974   */\n      0x00\n        /* \"#utility.yul\":15962:15971   */\n      dup4\n        /* \"#utility.yul\":15958:15975   */\n      add\n        /* \"#utility.yul\":15951:15998   */\n      mstore\n        /* \"#utility.yul\":16015:16146   */\n      tag_397\n        /* \"#utility.yul\":16141:16145   */\n      dup2\n        /* \"#utility.yul\":16015:16146   */\n      tag_242\n      jump\t// in\n    tag_397:\n        /* \"#utility.yul\":16007:16146   */\n      swap1\n      pop\n        /* \"#utility.yul\":15734:16153   */\n      swap2\n      swap1\n      pop\n      jump\t// out\n        /* \"#utility.yul\":16159:16316   */\n    tag_243:\n        /* \"#utility.yul\":16299:16308   */\n      0x70726963653d3000000000000000000000000000000000000000000000000000\n        /* \"#utility.yul\":16295:16296   */\n      0x00\n        /* \"#utility.yul\":16287:16293   */\n      dup3\n        /* \"#utility.yul\":16283:16297   */\n      add\n        /* \"#utility.yul\":16276:16309   */\n      mstore\n        /* \"#utility.yul\":16159:16316   */\n      pop\n      jump\t// out\n        /* \"#utility.yul\":16322:16687   */\n    tag_244:\n        /* \"#utility.yul\":16464:16467   */\n      0x00\n        /* \"#utility.yul\":16485:16551   */\n      tag_400\n        /* \"#utility.yul\":16549:16550   */\n      0x07\n        /* \"#utility.yul\":16544:16547   */\n      dup4\n        /* \"#utility.yul\":16485:16551   */\n      tag_218\n      jump\t// in\n    tag_400:\n        /* \"#utility.yul\":16478:16551   */\n      swap2\n      pop\n        /* \"#utility.yul\":16560:16653   */\n      tag_401\n        /* \"#utility.yul\":16649:16652   */\n      dup3\n        /* \"#utility.yul\":16560:16653   */\n      tag_243\n      jump\t// in\n    tag_401:\n        /* \"#utility.yul\":16678:16680   */\n      0x20\n        /* \"#utility.yul\":16673:16676   */\n      dup3\n        /* \"#utility.yul\":16669:16681   */\n      add\n        /* \"#utility.yul\":16662:16681   */\n      swap1\n      pop\n        /* \"#utility.yul\":16322:16687   */\n      swap2\n      swap1\n      pop\n      jump\t// out\n        /* \"#utility.yul\":16693:17112   */\n    tag_130:\n        /* \"#utility.yul\":16859:16863   */\n      0x00\n        /* \"#utility.yul\":16897:16899   */\n      0x20\n        /* \"#utility.yul\":16886:16895   */\n      dup3\n        /* \"#utility.yul\":16882:16900   */\n      add\n        /* \"#utility.yul\":16874:16900   */\n      swap1\n      pop\n        /* \"#utility.yul\":16946:16955   */\n      dup2\n        /* \"#utility.yul\":16940:16944   */\n      dup2\n        /* \"#utility.yul\":16936:16956   */\n      sub\n        /* \"#utility.yul\":16932:16933   */\n      0x00\n        /* \"#utility.yul\":16921:16930   */\n      dup4\n        /* \"#utility.yul\":16917:16934   */\n      add\n        /* \"#utility.yul\":16910:16957   */\n      mstore\n        /* \"#utility.yul\":16974:17105   */\n      tag_403\n        /* \"#utility.yul\":17100:17104   */\n      dup2\n        /* \"#utility.yul\":16974:17105   */\n      tag_244\n      jump\t// in\n    tag_403:\n        /* \"#utility.yul\":16966:17105   */\n      swap1\n      pop\n        /* \"#utility.yul\":16693:17112   */\n      swap2\n      swap1\n      pop\n      jump\t// out\n        /* \"#utility.yul\":17118:17277   */\n    tag_245:\n        /* \"#utility.yul\":17258:17269   */\n      0x6e6f74206f776e65720000000000000000000000000000000000000000000000\n        /* \"#utility.yul\":17254:17255   */\n      0x00\n        /* \"#utility.yul\":17246:17252   */\n      dup3\n        /* \"#utility.yul\":17242:17256   */\n      add\n        /* \"#utility.yul\":17235:17270   */\n      mstore\n        /* \"#utility.yul\":17118:17277   */\n      pop\n      jump\t// out\n        /* \"#utility.yul\":17283:17648   */\n    tag_246:\n        /* \"#utility.yul\":17425:17428   */\n      0x00\n        /* \"#utility.yul\":17446:17512   */\n      tag_406\n        /* \"#utility.yul\":17510:17511   */\n      0x09\n        /* \"#utility.yul\":17505:17508   */\n      dup4\n        /* \"#utility.yul\":17446:17512   */\n      tag_218\n      jump\t// in\n    tag_406:\n        /* \"#utility.yul\":17439:17512   */\n      swap2\n      pop\n        /* \"#utility.yul\":17521:17614   */\n      tag_407\n        /* \"#utility.yul\":17610:17613   */\n      dup3\n        /* \"#utility.yul\":17521:17614   */\n      tag_245\n      jump\t// in\n    tag_407:\n        /* \"#utility.yul\":17639:17641   */\n      0x20\n        /* \"#utility.yul\":17634:17637   */\n      dup3\n        /* \"#utility.yul\":17630:17642   */\n      add\n        /* \"#utility.yul\":17623:17642   */\n      swap1\n      pop\n        /* \"#utility.yul\":17283:17648   */\n      swap2\n      swap1\n      pop\n      jump\t// out\n        /* \"#utility.yul\":17654:18073   */\n    tag_137:\n        /* \"#utility.yul\":17820:17824   */\n      0x00\n        /* \"#utility.yul\":17858:17860   */\n      0x20\n        /* \"#utility.yul\":17847:17856   */\n      dup3\n        /* \"#utility.yul\":17843:17861   */\n      add\n        /* \"#utility.yul\":17835:17861   */\n      swap1\n      pop\n        /* \"#utility.yul\":17907:17916   */\n      dup2\n        /* \"#utility.yul\":17901:17905   */\n      dup2\n        /* \"#utility.yul\":17897:17917   */\n      sub\n        /* \"#utility.yul\":17893:17894   */\n      0x00\n        /* \"#utility.yul\":17882:17891   */\n      dup4\n        /* \"#utility.yul\":17878:17895   */\n      add\n        /* \"#utility.yul\":17871:17918   */\n      mstore\n        /* \"#utility.yul\":17935:18066   */\n      tag_409\n        /* \"#utility.yul\":18061:18065   */\n      dup2\n        /* \"#utility.yul\":17935:18066   */\n      tag_246\n      jump\t// in\n    tag_409:\n        /* \"#utility.yul\":17927:18066   */\n      swap1\n      pop\n        /* \"#utility.yul\":17654:18073   */\n      swap2\n      swap1\n      pop\n      jump\t// out\n        /* \"#utility.yul\":18079:18248   */\n    tag_247:\n        /* \"#utility.yul\":18219:18240   */\n      0x6d61726b6574206e6f7420617070726f76656400000000000000000000000000\n        /* \"#utility.yul\":18215:18216   */\n      0x00\n        /* \"#utility.yul\":18207:18213   */\n      dup3\n        /* \"#utility.yul\":18203:18217   */\n      add\n        /* \"#utility.yul\":18196:18241   */\n      mstore\n        /* \"#utility.yul\":18079:18248   */\n      pop\n      jump\t// out\n        /* \"#utility.yul\":18254:18620   */\n    tag_248:\n        /* \"#utility.yul\":18396:18399   */\n      0x00\n        /* \"#utility.yul\":18417:18484   */\n      tag_412\n        /* \"#utility.yul\":18481:18483   */\n      0x13\n        /* \"#utility.yul\":18476:18479   */\n      dup4\n        /* \"#utility.yul\":18417:18484   */\n      tag_218\n      jump\t// in\n    tag_412:\n        /* \"#utility.yul\":18410:18484   */\n      swap2\n      pop\n        /* \"#utility.yul\":18493:18586   */\n      tag_413\n        /* \"#utility.yul\":18582:18585   */\n      dup3\n        /* \"#utility.yul\":18493:18586   */\n      tag_247\n      jump\t// in\n    tag_413:\n        /* \"#utility.yul\":18611:18613   */\n      0x20\n        /* \"#utility.yul\":18606:18609   */\n      dup3\n        /* \"#utility.yul\":18602:18614   */\n      add\n        /* \"#utility.yul\":18595:18614   */\n      swap1\n      pop\n        /* \"#utility.yul\":18254:18620   */\n      swap2\n      swap1\n      pop\n      jump\t// out\n        /* \"#utility.yul\":18626:19045   */\n    tag_141:\n        /* \"#utility.yul\":18792:18796   */\n      0x00\n        /* \"#utility.yul\":18830:18832   */\n      0x20\n        /* \"#utility.yul\":18819:18828   */\n      dup3\n        /* \"#utility.yul\":18815:18833   */\n      add\n        /* \"#utility.yul\":18807:18833   */\n      swap1\n      pop\n        /* \"#utility.yul\":18879:18888   */\n      dup2\n        /* \"#utility.yul\":18873:18877   */\n      dup2\n        /* \"#utility.yul\":18869:18889   */\n      sub\n        /* \"#utility.yul\":18865:18866   */\n      0x00\n        /* \"#utility.yul\":18854:18863   */\n      dup4\n        /* \"#utility.yul\":18850:18867   */\n      add\n        /* \"#utility.yul\":18843:18890   */\n      mstore\n        /* \"#utility.yul\":18907:19038   */\n      tag_415\n        /* \"#utility.yul\":19033:19037   */\n      dup2\n        /* \"#utility.yul\":18907:19038   */\n      tag_248\n      jump\t// in\n    tag_415:\n        /* \"#utility.yul\":18899:19038   */\n      swap1\n      pop\n        /* \"#utility.yul\":18626:19045   */\n      swap2\n      swap1\n      pop\n      jump\t// out\n        /* \"#utility.yul\":19051:19210   */\n    tag_249:\n        /* \"#utility.yul\":19191:19202   */\n      0x6e6f74206d616b65720000000000000000000000000000000000000000000000\n        /* \"#utility.yul\":19187:19188   */\n      0x00\n        /* \"#utility.yul\":19179:19185   */\n      dup3\n        /* \"#utility.yul\":19175:19189   */\n      add\n        /* \"#utility.yul\":19168:19203   */\n      mstore\n        /* \"#utility.yul\":19051:19210   */\n      pop\n      jump\t// out\n        /* \"#utility.yul\":19216:19581   */\n    tag_250:\n        /* \"#utility.yul\":19358:19361   */\n      0x00\n        /* \"#utility.yul\":19379:19445   */\n      tag_418\n        /* \"#utility.yul\":19443:19444   */\n      0x09\n        /* \"#utility.yul\":19438:19441   */\n      dup4\n        /* \"#utility.yul\":19379:19445   */\n      tag_218\n      jump\t// in\n    tag_418:\n        /* \"#utility.yul\":19372:19445   */\n      swap2\n      pop\n        /* \"#utility.yul\":19454:19547   */\n      tag_419\n        /* \"#utility.yul\":19543:19546   */\n      dup3\n        /* \"#utility.yul\":19454:19547   */\n      tag_249\n      jump\t// in\n    tag_419:\n        /* \"#utility.yul\":19572:19574   */\n      0x20\n        /* \"#utility.yul\":19567:19570   */\n      dup3\n        /* \"#utility.yul\":19563:19575   */\n      add\n        /* \"#utility.yul\":19556:19575   */\n      swap1\n      pop\n        /* \"#utility.yul\":19216:19581   */\n      swap2\n      swap1\n      pop\n      jump\t// out\n        /* \"#utility.yul\":19587:20006   */\n    tag_148:\n        /* \"#utility.yul\":19753:19757   */\n      0x00\n        /* \"#utility.yul\":19791:19793   */\n      0x20\n        /* \"#utility.yul\":19780:19789   */\n      dup3\n        /* \"#utility.yul\":19776:19794   */\n      add\n        /* \"#utility.yul\":19768:19794   */\n      swap1\n      pop\n        /* \"#utility.yul\":19840:19849   */\n      dup2\n        /* \"#utility.yul\":19834:19838   */\n      dup2\n        /* \"#utility.yul\":19830:19850   */\n      sub\n        /* \"#utility.yul\":19826:19827   */\n      0x00\n        /* \"#utility.yul\":19815:19824   */\n      dup4\n        /* \"#utility.yul\":19811:19828   */\n      add\n        /* \"#utility.yul\":19804:19851   */\n      mstore\n        /* \"#utility.yul\":19868:19999   */\n      tag_421\n        /* \"#utility.yul\":19994:19998   */\n      dup2\n        /* \"#utility.yul\":19868:19999   */\n      tag_250\n      jump\t// in\n    tag_421:\n        /* \"#utility.yul\":19860:19999   */\n      swap1\n      pop\n        /* \"#utility.yul\":19587:20006   */\n      swap2\n      swap1\n      pop\n      jump\t// out\n        /* \"#utility.yul\":20012:20184   */\n    tag_251:\n        /* \"#utility.yul\":20152:20176   */\n      0x73656c6c6572206e6f206c6f6e676572206f776e657200000000000000000000\n        /* \"#utility.yul\":20148:20149   */\n      0x00\n        /* \"#utility.yul\":20140:20146   */\n      dup3\n        /* \"#utility.yul\":20136:20150   */\n      add\n        /* \"#utility.yul\":20129:20177   */\n      mstore\n        /* \"#utility.yul\":20012:20184   */\n      pop\n      jump\t// out\n        /* \"#utility.yul\":20190:20556   */\n    tag_252:\n        /* \"#utility.yul\":20332:20335   */\n      0x00\n        /* \"#utility.yul\":20353:20420   */\n      tag_424\n        /* \"#utility.yul\":20417:20419   */\n      0x16\n        /* \"#utility.yul\":20412:20415   */\n      dup4\n        /* \"#utility.yul\":20353:20420   */\n      tag_218\n      jump\t// in\n    tag_424:\n        /* \"#utility.yul\":20346:20420   */\n      swap2\n      pop\n        /* \"#utility.yul\":20429:20522   */\n      tag_425\n        /* \"#utility.yul\":20518:20521   */\n      dup3\n        /* \"#utility.yul\":20429:20522   */\n      tag_251\n      jump\t// in\n    tag_425:\n        /* \"#utility.yul\":20547:20549   */\n      0x20\n        /* \"#utility.yul\":20542:20545   */\n      dup3\n        /* \"#utility.yul\":20538:20550   */\n      add\n        /* \"#utility.yul\":20531:20550   */\n      swap1\n      pop\n        /* \"#utility.yul\":20190:20556   */\n      swap2\n      swap1\n      pop\n      jump\t// out\n        /* \"#utility.yul\":20562:20981   */\n    tag_160:\n        /* \"#utility.yul\":20728:20732   */\n      0x00\n        /* \"#utility.yul\":20766:20768   */\n      0x20\n        /* \"#utility.yul\":20755:20764   */\n      dup3\n        /* \"#utility.yul\":20751:20769   */\n      add\n        /* \"#utility.yul\":20743:20769   */\n      swap1\n      pop\n        /* \"#utility.yul\":20815:20824   */\n      dup2\n        /* \"#utility.yul\":20809:20813   */\n      dup2\n        /* \"#utility.yul\":20805:20825   */\n      sub\n        /* \"#utility.yul\":20801:20802   */\n      0x00\n        /* \"#utility.yul\":20790:20799   */\n      dup4\n        /* \"#utility.yul\":20786:20803   */\n      add\n        /* \"#utility.yul\":20779:20826   */\n      mstore\n        /* \"#utility.yul\":20843:20974   */\n      tag_427\n        /* \"#utility.yul\":20969:20973   */\n      dup2\n        /* \"#utility.yul\":20843:20974   */\n      tag_252\n      jump\t// in\n    tag_427:\n        /* \"#utility.yul\":20835:20974   */\n      swap1\n      pop\n        /* \"#utility.yul\":20562:20981   */\n      swap2\n      swap1\n      pop\n      jump\t// out\n        /* \"#utility.yul\":20987:21145   */\n    tag_253:\n        /* \"#utility.yul\":21127:21137   */\n      0x73656c6620627579000000000000000000000000000000000000000000000000\n        /* \"#utility.yul\":21123:21124   */\n      0x00\n        /* \"#utility.yul\":21115:21121   */\n      dup3\n        /* \"#utility.yul\":21111:21125   */\n      add\n        /* \"#utility.yul\":21104:21138   */\n      mstore\n        /* \"#utility.yul\":20987:21145   */\n      pop\n      jump\t// out\n        /* \"#utility.yul\":21151:21516   */\n    tag_254:\n        /* \"#utility.yul\":21293:21296   */\n      0x00\n        /* \"#utility.yul\":21314:21380   */\n      tag_430\n        /* \"#utility.yul\":21378:21379   */\n      0x08\n        /* \"#utility.yul\":21373:21376   */\n      dup4\n        /* \"#utility.yul\":21314:21380   */\n      tag_218\n      jump\t// in\n    tag_430:\n        /* \"#utility.yul\":21307:21380   */\n      swap2\n      pop\n        /* \"#utility.yul\":21389:21482   */\n      tag_431\n        /* \"#utility.yul\":21478:21481   */\n      dup3\n        /* \"#utility.yul\":21389:21482   */\n      tag_253\n      jump\t// in\n    tag_431:\n        /* \"#utility.yul\":21507:21509   */\n      0x20\n        /* \"#utility.yul\":21502:21505   */\n      dup3\n        /* \"#utility.yul\":21498:21510   */\n      add\n        /* \"#utility.yul\":21491:21510   */\n      swap1\n      pop\n        /* \"#utility.yul\":21151:21516   */\n      swap2\n      swap1\n      pop\n      jump\t// out\n        /* \"#utility.yul\":21522:21941   */\n    tag_163:\n        /* \"#utility.yul\":21688:21692   */\n      0x00\n        /* \"#utility.yul\":21726:21728   */\n      0x20\n        /* \"#utility.yul\":21715:21724   */\n      dup3\n        /* \"#utility.yul\":21711:21729   */\n      add\n        /* \"#utility.yul\":21703:21729   */\n      swap1\n      pop\n        /* \"#utility.yul\":21775:21784   */\n      dup2\n        /* \"#utility.yul\":21769:21773   */\n      dup2\n        /* \"#utility.yul\":21765:21785   */\n      sub\n        /* \"#utility.yul\":21761:21762   */\n      0x00\n        /* \"#utility.yul\":21750:21759   */\n      dup4\n        /* \"#utility.yul\":21746:21763   */\n      add\n        /* \"#utility.yul\":21739:21786   */\n      mstore\n        /* \"#utility.yul\":21803:21934   */\n      tag_433\n        /* \"#utility.yul\":21929:21933   */\n      dup2\n        /* \"#utility.yul\":21803:21934   */\n      tag_254\n      jump\t// in\n    tag_433:\n        /* \"#utility.yul\":21795:21934   */\n      swap1\n      pop\n        /* \"#utility.yul\":21522:21941   */\n      swap2\n      swap1\n      pop\n      jump\t// out\n        /* \"#utility.yul\":21947:22108   */\n    tag_255:\n        /* \"#utility.yul\":22087:22100   */\n      0x77726f6e672076616c7565000000000000000000000000000000000000000000\n        /* \"#utility.yul\":22083:22084   */\n      0x00\n        /* \"#utility.yul\":22075:22081   */\n      dup3\n        /* \"#utility.yul\":22071:22085   */\n      add\n        /* \"#utility.yul\":22064:22101   */\n      mstore\n        /* \"#utility.yul\":21947:22108   */\n      pop\n      jump\t// out\n        /* \"#utility.yul\":22114:22480   */\n    tag_256:\n        /* \"#utility.yul\":22256:22259   */\n      0x00\n        /* \"#utility.yul\":22277:22344   */\n      tag_436\n        /* \"#utility.yul\":22341:22343   */\n      0x0b\n        /* \"#utility.yul\":22336:22339   */\n      dup4\n        /* \"#utility.yul\":22277:22344   */\n      tag_218\n      jump\t// in\n    tag_436:\n        /* \"#utility.yul\":22270:22344   */\n      swap2\n      pop\n        /* \"#utility.yul\":22353:22446   */\n      tag_437\n        /* \"#utility.yul\":22442:22445   */\n      dup3\n        /* \"#utility.yul\":22353:22446   */\n      tag_255\n      jump\t// in\n    tag_437:\n        /* \"#utility.yul\":22471:22473   */\n      0x20\n        /* \"#utility.yul\":22466:22469   */\n      dup3\n        /* \"#utility.yul\":22462:22474   */\n      add\n        /* \"#utility.yul\":22455:22474   */\n      swap1\n      pop\n        /* \"#utility.yul\":22114:22480   */\n      swap2\n      swap1\n      pop\n      jump\t// out\n        /* \"#utility.yul\":22486:22905   */\n    tag_166:\n        /* \"#utility.yul\":22652:22656   */\n      0x00\n        /* \"#utility.yul\":22690:22692   */\n      0x20\n        /* \"#utility.yul\":22679:22688   */\n      dup3\n        /* \"#utility.yul\":22675:22693   */\n      add\n        /* \"#utility.yul\":22667:22693   */\n      swap1\n      pop\n        /* \"#utility.yul\":22739:22748   */\n      dup2\n        /* \"#utility.yul\":22733:22737   */\n      dup2\n        /* \"#utility.yul\":22729:22749   */\n      sub\n        /* \"#utility.yul\":22725:22726   */\n      0x00\n        /* \"#utility.yul\":22714:22723   */\n      dup4\n        /* \"#utility.yul\":22710:22727   */\n      add\n        /* \"#utility.yul\":22703:22750   */\n      mstore\n        /* \"#utility.yul\":22767:22898   */\n      tag_439\n        /* \"#utility.yul\":22893:22897   */\n      dup2\n        /* \"#utility.yul\":22767:22898   */\n      tag_256\n      jump\t// in\n    tag_439:\n        /* \"#utility.yul\":22759:22898   */\n      swap1\n      pop\n        /* \"#utility.yul\":22486:22905   */\n      swap2\n      swap1\n      pop\n      jump\t// out\n        /* \"#utility.yul\":22911:23058   */\n    tag_257:\n        /* \"#utility.yul\":23012:23023   */\n      0x00\n        /* \"#utility.yul\":23049:23052   */\n      dup2\n        /* \"#utility.yul\":23034:23052   */\n      swap1\n      pop\n        /* \"#utility.yul\":22911:23058   */\n      swap3\n      swap2\n      pop\n      pop\n      jump\t// out\n        /* \"#utility.yul\":23064:23178   */\n    tag_258:\n      pop\n      jump\t// out\n        /* \"#utility.yul\":23184:23582   */\n    tag_259:\n        /* \"#utility.yul\":23343:23346   */\n      0x00\n        /* \"#utility.yul\":23364:23447   */\n      tag_443\n        /* \"#utility.yul\":23445:23446   */\n      0x00\n        /* \"#utility.yul\":23440:23443   */\n      dup4\n        /* \"#utility.yul\":23364:23447   */\n      tag_257\n      jump\t// in\n    tag_443:\n        /* \"#utility.yul\":23357:23447   */\n      swap2\n      pop\n        /* \"#utility.yul\":23456:23549   */\n      tag_444\n        /* \"#utility.yul\":23545:23548   */\n      dup3\n        /* \"#utility.yul\":23456:23549   */\n      tag_258\n      jump\t// in\n    tag_444:\n        /* \"#utility.yul\":23574:23575   */\n      0x00\n        /* \"#utility.yul\":23569:23572   */\n      dup3\n        /* \"#utility.yul\":23565:23576   */\n      add\n        /* \"#utility.yul\":23558:23576   */\n      swap1\n      pop\n        /* \"#utility.yul\":23184:23582   */\n      swap2\n      swap1\n      pop\n      jump\t// out\n        /* \"#utility.yul\":23588:23967   */\n    tag_171:\n        /* \"#utility.yul\":23772:23775   */\n      0x00\n        /* \"#utility.yul\":23794:23941   */\n      tag_446\n        /* \"#utility.yul\":23937:23940   */\n      dup3\n        /* \"#utility.yul\":23794:23941   */\n      tag_259\n      jump\t// in\n    tag_446:\n        /* \"#utility.yul\":23787:23941   */\n      swap2\n      pop\n        /* \"#utility.yul\":23958:23961   */\n      dup2\n        /* \"#utility.yul\":23951:23961   */\n      swap1\n      pop\n        /* \"#utility.yul\":23588:23967   */\n      swap2\n      swap1\n      pop\n      jump\t// out\n        /* \"#utility.yul\":23973:24137   */\n    tag_260:\n        /* \"#utility.yul\":24113:24129   */\n      0x7061796d656e74206661696c6564000000000000000000000000000000000000\n        /* \"#utility.yul\":24109:24110   */\n      0x00\n        /* \"#utility.yul\":24101:24107   */\n      dup3\n        /* \"#utility.yul\":24097:24111   */\n      add\n        /* \"#utility.yul\":24090:24130   */\n      mstore\n        /* \"#utility.yul\":23973:24137   */\n      pop\n      jump\t// out\n        /* \"#utility.yul\":24143:24509   */\n    tag_261:\n        /* \"#utility.yul\":24285:24288   */\n      0x00\n        /* \"#utility.yul\":24306:24373   */\n      tag_449\n        /* \"#utility.yul\":24370:24372   */\n      0x0e\n        /* \"#utility.yul\":24365:24368   */\n      dup4\n        /* \"#utility.yul\":24306:24373   */\n      tag_218\n      jump\t// in\n    tag_449:\n        /* \"#utility.yul\":24299:24373   */\n      swap2\n      pop\n        /* \"#utility.yul\":24382:24475   */\n      tag_450\n        /* \"#utility.yul\":24471:24474   */\n      dup3\n        /* \"#utility.yul\":24382:24475   */\n      tag_260\n      jump\t// in\n    tag_450:\n        /* \"#utility.yul\":24500:24502   */\n      0x20\n        /* \"#utility.yul\":24495:24498   */\n      dup3\n        /* \"#utility.yul\":24491:24503   */\n      add\n        /* \"#utility.yul\":24484:24503   */\n      swap1\n      pop\n        /* \"#utility.yul\":24143:24509   */\n      swap2\n      swap1\n      pop\n      jump\t// out\n        /* \"#utility.yul\":24515:24934   */\n    tag_177:\n        /* \"#utility.yul\":24681:24685   */\n      0x00\n        /* \"#utility.yul\":24719:24721   */\n      0x20\n        /* \"#utility.yul\":24708:24717   */\n      dup3\n        /* \"#utility.yul\":24704:24722   */\n      add\n        /* \"#utility.yul\":24696:24722   */\n      swap1\n      pop\n        /* \"#utility.yul\":24768:24777   */\n      dup2\n        /* \"#utility.yul\":24762:24766   */\n      dup2\n        /* \"#utility.yul\":24758:24778   */\n      sub\n        /* \"#utility.yul\":24754:24755   */\n      0x00\n        /* \"#utility.yul\":24743:24752   */\n      dup4\n        /* \"#utility.yul\":24739:24756   */\n      add\n        /* \"#utility.yul\":24732:24779   */\n      mstore\n        /* \"#utility.yul\":24796:24927   */\n      tag_452\n        /* \"#utility.yul\":24922:24926   */\n      dup2\n        /* \"#utility.yul\":24796:24927   */\n      tag_261\n      jump\t// in\n    tag_452:\n        /* \"#utility.yul\":24788:24927   */\n      swap1\n      pop\n        /* \"#utility.yul\":24515:24934   */\n      swap2\n      swap1\n      pop\n      jump\t// out\n        /* \"#utility.yul\":24940:25121   */\n    tag_262:\n        /* \"#utility.yul\":25080:25113   */\n      0x5265656e7472616e637947756172643a207265656e7472616e742063616c6c00\n        /* \"#utility.yul\":25076:25077   */\n      0x00\n        /* \"#utility.yul\":25068:25074   */\n      dup3\n        /* \"#utility.yul\":25064:25078   */\n      add\n        /* \"#utility.yul\":25057:25114   */\n      mstore\n        /* \"#utility.yul\":24940:25121   */\n      pop\n      jump\t// out\n        /* \"#utility.yul\":25127:25493   */\n    tag_263:\n        /* \"#utility.yul\":25269:25272   */\n      0x00\n        /* \"#utility.yul\":25290:25357   */\n      tag_455\n        /* \"#utility.yul\":25354:25356   */\n      0x1f\n        /* \"#utility.yul\":25349:25352   */\n      dup4\n        /* \"#utility.yul\":25290:25357   */\n      tag_218\n      jump\t// in\n    tag_455:\n        /* \"#utility.yul\":25283:25357   */\n      swap2\n      pop\n        /* \"#utility.yul\":25366:25459   */\n      tag_456\n        /* \"#utility.yul\":25455:25458   */\n      dup3\n        /* \"#utility.yul\":25366:25459   */\n      tag_262\n      jump\t// in\n    tag_456:\n        /* \"#utility.yul\":25484:25486   */\n      0x20\n        /* \"#utility.yul\":25479:25482   */\n      dup3\n        /* \"#utility.yul\":25475:25487   */\n      add\n        /* \"#utility.yul\":25468:25487   */\n      swap1\n      pop\n        /* \"#utility.yul\":25127:25493   */\n      swap2\n      swap1\n      pop\n      jump\t// out\n        /* \"#utility.yul\":25499:25918   */\n    tag_187:\n        /* \"#utility.yul\":25665:25669   */\n      0x00\n        /* \"#utility.yul\":25703:25705   */\n      0x20\n        /* \"#utility.yul\":25692:25701   */\n      dup3\n        /* \"#utility.yul\":25688:25706   */\n      add\n        /* \"#utility.yul\":25680:25706   */\n      swap1\n      pop\n        /* \"#utility.yul\":25752:25761   */\n      dup2\n        /* \"#utility.yul\":25746:25750   */\n      dup2\n        /* \"#utility.yul\":25742:25762   */\n      sub\n        /* \"#utility.yul\":25738:25739   */\n      0x00\n        /* \"#utility.yul\":25727:25736   */\n      dup4\n        /* \"#utility.yul\":25723:25740   */\n      add\n        /* \"#utility.yul\":25716:25763   */\n      mstore\n        /* \"#utility.yul\":25780:25911   */\n      tag_458\n        /* \"#utility.yul\":25906:25910   */\n      dup2\n        /* \"#utility.yul\":25780:25911   */\n      tag_263\n      jump\t// in\n    tag_458:\n        /* \"#utility.yul\":25772:25911   */\n      swap1\n      pop\n        /* \"#utility.yul\":25499:25918   */\n      swap2\n      swap1\n      pop\n      jump\t// out\n        /* \"#utility.yul\":25924:26256   */\n    tag_195:\n        /* \"#utility.yul\":26045:26049   */\n      0x00\n        /* \"#utility.yul\":26083:26085   */\n      0x40\n        /* \"#utility.yul\":26072:26081   */\n      dup3\n        /* \"#utility.yul\":26068:26086   */\n      add\n        /* \"#utility.yul\":26060:26086   */\n      swap1\n      pop\n        /* \"#utility.yul\":26096:26167   */\n      tag_460\n        /* \"#utility.yul\":26164:26165   */\n      0x00\n        /* \"#utility.yul\":26153:26162   */\n      dup4\n        /* \"#utility.yul\":26149:26166   */\n      add\n        /* \"#utility.yul\":26140:26146   */\n      dup6\n        /* \"#utility.yul\":26096:26167   */\n      tag_214\n      jump\t// in\n    tag_460:\n        /* \"#utility.yul\":26177:26249   */\n      tag_461\n        /* \"#utility.yul\":26245:26247   */\n      0x20\n        /* \"#utility.yul\":26234:26243   */\n      dup4\n        /* \"#utility.yul\":26230:26248   */\n      add\n        /* \"#utility.yul\":26221:26227   */\n      dup5\n        /* \"#utility.yul\":26177:26249   */\n      tag_214\n      jump\t// in\n    tag_461:\n        /* \"#utility.yul\":25924:26256   */\n      swap4\n      swap3\n      pop\n      pop\n      pop\n      jump\t// out\n        /* \"#utility.yul\":26262:26378   */\n    tag_264:\n        /* \"#utility.yul\":26332:26353   */\n      tag_463\n        /* \"#utility.yul\":26347:26352   */\n      dup2\n        /* \"#utility.yul\":26332:26353   */\n      tag_216\n      jump\t// in\n    tag_463:\n        /* \"#utility.yul\":26325:26330   */\n      dup2\n        /* \"#utility.yul\":26322:26354   */\n      eq\n        /* \"#utility.yul\":26312:26372   */\n      tag_464\n      jumpi\n        /* \"#utility.yul\":26368:26369   */\n      0x00\n        /* \"#utility.yul\":26365:26366   */\n      dup1\n        /* \"#utility.yul\":26358:26370   */\n      revert\n        /* \"#utility.yul\":26312:26372   */\n    tag_464:\n        /* \"#utility.yul\":26262:26378   */\n      pop\n      jump\t// out\n        /* \"#utility.yul\":26384:26521   */\n    tag_265:\n        /* \"#utility.yul\":26438:26443   */\n      0x00\n        /* \"#utility.yul\":26469:26475   */\n      dup2\n        /* \"#utility.yul\":26463:26476   */\n      mload\n        /* \"#utility.yul\":26454:26476   */\n      swap1\n      pop\n        /* \"#utility.yul\":26485:26515   */\n      tag_466\n        /* \"#utility.yul\":26509:26514   */\n      dup2\n        /* \"#utility.yul\":26485:26515   */\n      tag_264\n      jump\t// in\n    tag_466:\n        /* \"#utility.yul\":26384:26521   */\n      swap3\n      swap2\n      pop\n      pop\n      jump\t// out\n        /* \"#utility.yul\":26527:26872   */\n    tag_199:\n        /* \"#utility.yul\":26594:26600   */\n      0x00\n        /* \"#utility.yul\":26643:26645   */\n      0x20\n        /* \"#utility.yul\":26631:26640   */\n      dup3\n        /* \"#utility.yul\":26622:26629   */\n      dup5\n        /* \"#utility.yul\":26618:26641   */\n      sub\n        /* \"#utility.yul\":26614:26646   */\n      slt\n        /* \"#utility.yul\":26611:26730   */\n      iszero\n      tag_468\n      jumpi\n        /* \"#utility.yul\":26649:26728   */\n      tag_469\n      tag_202\n      jump\t// in\n    tag_469:\n        /* \"#utility.yul\":26611:26730   */\n    tag_468:\n        /* \"#utility.yul\":26769:26770   */\n      0x00\n        /* \"#utility.yul\":26794:26855   */\n      tag_470\n        /* \"#utility.yul\":26847:26854   */\n      dup5\n        /* \"#utility.yul\":26838:26844   */\n      dup3\n        /* \"#utility.yul\":26827:26836   */\n      dup6\n        /* \"#utility.yul\":26823:26845   */\n      add\n        /* \"#utility.yul\":26794:26855   */\n      tag_265\n      jump\t// in\n    tag_470:\n        /* \"#utility.yul\":26784:26855   */\n      swap2\n      pop\n        /* \"#utility.yul\":26740:26865   */\n      pop\n        /* \"#utility.yul\":26527:26872   */\n      swap3\n      swap2\n      pop\n      pop\n      jump\t// out\n\n    auxdata: 0xa2646970667358221220b7b05250f89f2d0a8fd3ca6c7005c6f8c01111a216a46bcf211bd7ae8d2bb88f64736f6c634300081e0033\n}\n",
				"bytecode": {
					"linkReferences": {},
					"object": "60a060405234801561001057600080fd5b506040516128f93803806128f983398181016040528101906100329190610146565b6001600081905550600073ffffffffffffffffffffffffffffffffffffffff168173ffffffffffffffffffffffffffffffffffffffff16036100a9576040517f08c379a00000000000000000000000000000000000000000000000000000000081526004016100a0906101d0565b60405180910390fd5b8073ffffffffffffffffffffffffffffffffffffffff1660808173ffffffffffffffffffffffffffffffffffffffff1681525050506101f0565b600080fd5b600073ffffffffffffffffffffffffffffffffffffffff82169050919050565b6000610113826100e8565b9050919050565b61012381610108565b811461012e57600080fd5b50565b6000815190506101408161011a565b92915050565b60006020828403121561015c5761015b6100e3565b5b600061016a84828501610131565b91505092915050565b600082825260208201905092915050565b7f7a65726f20616464720000000000000000000000000000000000000000000000600082015250565b60006101ba600983610173565b91506101c582610184565b602082019050919050565b600060208201905081810360008301526101e9816101ad565b9050919050565b6080516126a86102516000396000818161032d015281816104380152818161077d015281816108140152818161098201528181610e6801528181610ee60152818161147f015281816117690152818161191f01526119d601526126a86000f3fe6080604052600436106100865760003560e01c806350fd73671161005957806350fd73671461013157806354d6a2b71461015a578063a13f1c6214610183578063d96a094a146101c3578063de74e57b146101df57610086565b80631bf330041461008b5780631d3a566d146100b457806340e58ee5146100dd57806347ccca0214610106575b600080fd5b34801561009757600080fd5b506100b260048036038101906100ad9190611abe565b61021d565b005b3480156100c057600080fd5b506100db60048036038101906100d69190611aeb565b610927565b005b3480156100e957600080fd5b5061010460048036038101906100ff9190611abe565b610c72565b005b34801561011257600080fd5b5061011b610e66565b6040516101289190611baa565b60405180910390f35b34801561013d57600080fd5b5061015860048036038101906101539190611aeb565b610e8a565b005b34801561016657600080fd5b50610181600480360381019061017c9190611abe565b611102565b005b34801561018f57600080fd5b506101aa60048036038101906101a59190611abe565b611308565b6040516101ba9493929190611c10565b60405180910390f35b6101dd60048036038101906101d89190611abe565b611365565b005b3480156101eb57600080fd5b5061020660048036038101906102019190611abe565b611871565b604051610214929190611c55565b60405180910390f35b6102256118b5565b6000600260008381526020019081526020016000206040518060800160405290816000820160009054906101000a900473ffffffffffffffffffffffffffffffffffffffff1673ffffffffffffffffffffffffffffffffffffffff1673ffffffffffffffffffffffffffffffffffffffff16815260200160018201548152602001600282015481526020016003820160009054906101000a900460ff16151515158152505090508060600151610310576040517f08c379a000000000000000000000000000000000000000000000000000000000815260040161030790611cdb565b60405180910390fd5b806000015173ffffffffffffffffffffffffffffffffffffffff167f000000000000000000000000000000000000000000000000000000000000000073ffffffffffffffffffffffffffffffffffffffff16636352211e83602001516040518263ffffffff1660e01b81526004016103889190611cfb565b602060405180830381865afa1580156103a5573d6000803e3d6000fd5b505050506040513d601f19601f820116820180604052508101906103c99190611d42565b73ffffffffffffffffffffffffffffffffffffffff161461041f576040517f08c379a000000000000000000000000000000000000000000000000000000000815260040161041690611dbb565b60405180910390fd5b3373ffffffffffffffffffffffffffffffffffffffff167f000000000000000000000000000000000000000000000000000000000000000073ffffffffffffffffffffffffffffffffffffffff16636352211e83604001516040518263ffffffff1660e01b81526004016104939190611cfb565b602060405180830381865afa1580156104b0573d6000803e3d6000fd5b505050506040513d601f19601f820116820180604052508101906104d49190611d42565b73ffffffffffffffffffffffffffffffffffffffff161461052a576040517f08c379a000000000000000000000000000000000000000000000000000000000815260040161052190611e27565b60405180910390fd5b61053c81600001518260200151611904565b61057b576040517f08c379a000000000000000000000000000000000000000000000000000000000815260040161057290611e93565b60405180910390fd5b610589338260400151611904565b6105c8576040517f08c379a00000000000000000000000000000000000000000000000000000000081526004016105bf90611eff565b60405180910390fd5b600073ffffffffffffffffffffffffffffffffffffffff16600160008360200151815260200190815260200160002060000160009054906101000a900473ffffffffffffffffffffffffffffffffffffffff1673ffffffffffffffffffffffffffffffffffffffff1614610671576040517f08c379a000000000000000000000000000000000000000000000000000000000815260040161066890611f6b565b60405180910390fd5b600073ffffffffffffffffffffffffffffffffffffffff16600160008360400151815260200190815260200160002060000160009054906101000a900473ffffffffffffffffffffffffffffffffffffffff1673ffffffffffffffffffffffffffffffffffffffff161461071a576040517f08c379a000000000000000000000000000000000000000000000000000000000815260040161071190611fd7565b60405180910390fd5b60026000838152602001908152602001600020600080820160006101000a81549073ffffffffffffffffffffffffffffffffffffffff0219169055600182016000905560028201600090556003820160006101000a81549060ff021916905550507f000000000000000000000000000000000000000000000000000000000000000073ffffffffffffffffffffffffffffffffffffffff166342842e0e82600001513384602001516040518463ffffffff1660e01b81526004016107e093929190611ff7565b600060405180830381600087803b1580156107fa57600080fd5b505af115801561080e573d6000803e3d6000fd5b505050507f000000000000000000000000000000000000000000000000000000000000000073ffffffffffffffffffffffffffffffffffffffff166342842e0e33836000015184604001516040518463ffffffff1660e01b815260040161087793929190611ff7565b600060405180830381600087803b15801561089157600080fd5b505af11580156108a5573d6000803e3d6000fd5b505050508060200151816000015173ffffffffffffffffffffffffffffffffffffffff163373ffffffffffffffffffffffffffffffffffffffff167f37578ceed127276672e60dff20964adc31b310721884d9797f5d273a0e08a83f84604001516040516109139190611cfb565b60405180910390a450610924611a79565b50565b808203610969576040517f08c379a00000000000000000000000000000000000000000000000000000000081526004016109609061207a565b60405180910390fd5b3373ffffffffffffffffffffffffffffffffffffffff167f000000000000000000000000000000000000000000000000000000000000000073ffffffffffffffffffffffffffffffffffffffff16636352211e846040518263ffffffff1660e01b81526004016109d99190611cfb565b602060405180830381865afa1580156109f6573d6000803e3d6000fd5b505050506040513d601f19601f82011682018060405250810190610a1a9190611d42565b73ffffffffffffffffffffffffffffffffffffffff1614610a70576040517f08c379a0000000000000000000000000000000000000000000000000000000008152600401610a67906120e6565b60405180910390fd5b610a7a3383611904565b610ab9576040517f08c379a0000000000000000000000000000000000000000000000000000000008152600401610ab090611e93565b60405180910390fd5b600073ffffffffffffffffffffffffffffffffffffffff166001600084815260200190815260200160002060000160009054906101000a900473ffffffffffffffffffffffffffffffffffffffff1673ffffffffffffffffffffffffffffffffffffffff1614610b5e576040517f08c379a0000000000000000000000000000000000000000000000000000000008152600401610b5590611f6b565b60405180910390fd5b60405180608001604052803373ffffffffffffffffffffffffffffffffffffffff168152602001838152602001828152602001600115158152506002600084815260200190815260200160002060008201518160000160006101000a81548173ffffffffffffffffffffffffffffffffffffffff021916908373ffffffffffffffffffffffffffffffffffffffff160217905550602082015181600101556040820151816002015560608201518160030160006101000a81548160ff02191690831515021790555090505080823373ffffffffffffffffffffffffffffffffffffffff167fb0e71171f17634aa1485f107543f8f73ec3b9d3436ff571ecad275e42f400b2b60405160405180910390a45050565b6000600160008381526020019081526020016000206040518060400160405290816000820160009054906101000a900473ffffffffffffffffffffffffffffffffffffffff1673ffffffffffffffffffffffffffffffffffffffff1673ffffffffffffffffffffffffffffffffffffffff1681526020016001820154815250509050600073ffffffffffffffffffffffffffffffffffffffff16816000015173ffffffffffffffffffffffffffffffffffffffff1603610d67576040517f08c379a0000000000000000000000000000000000000000000000000000000008152600401610d5e90612152565b60405180910390fd5b3373ffffffffffffffffffffffffffffffffffffffff16816000015173ffffffffffffffffffffffffffffffffffffffff1614610dd9576040517f08c379a0000000000000000000000000000000000000000000000000000000008152600401610dd0906121be565b60405180910390fd5b60016000838152602001908152602001600020600080820160006101000a81549073ffffffffffffffffffffffffffffffffffffffff0219169055600182016000905550503373ffffffffffffffffffffffffffffffffffffffff16827f26deca31ff8139a06c52453ce8985d34f7648a6d9af1d283c4063d052c355a0f60405160405180910390a35050565b7f000000000000000000000000000000000000000000000000000000000000000081565b60008111610ecd576040517f08c379a0000000000000000000000000000000000000000000000000000000008152600401610ec49061222a565b60405180910390fd5b3373ffffffffffffffffffffffffffffffffffffffff167f000000000000000000000000000000000000000000000000000000000000000073ffffffffffffffffffffffffffffffffffffffff16636352211e846040518263ffffffff1660e01b8152600401610f3d9190611cfb565b602060405180830381865afa158015610f5a573d6000803e3d6000fd5b505050506040513d601f19601f82011682018060405250810190610f7e9190611d42565b73ffffffffffffffffffffffffffffffffffffffff1614610fd4576040517f08c379a0000000000000000000000000000000000000000000000000000000008152600401610fcb90612296565b60405180910390fd5b610fde3383611904565b61101d576040517f08c379a000000000000000000000000000000000000000000000000000000000815260040161101490612302565b60405180910390fd5b60405180604001604052803373ffffffffffffffffffffffffffffffffffffffff168152602001828152506001600084815260200190815260200160002060008201518160000160006101000a81548173ffffffffffffffffffffffffffffffffffffffff021916908373ffffffffffffffffffffffffffffffffffffffff160217905550602082015181600101559050503373ffffffffffffffffffffffffffffffffffffffff16827f50955776c5778c3b7d968d86d8c51fb6b29a7a74c20866b533268e209fc08343836040516110f69190611cfb565b60405180910390a35050565b6000600260008381526020019081526020016000206040518060800160405290816000820160009054906101000a900473ffffffffffffffffffffffffffffffffffffffff1673ffffffffffffffffffffffffffffffffffffffff1673ffffffffffffffffffffffffffffffffffffffff16815260200160018201548152602001600282015481526020016003820160009054906101000a900460ff161515151581525050905080606001516111ed576040517f08c379a00000000000000000000000000000000000000000000000000000000081526004016111e490611cdb565b60405180910390fd5b3373ffffffffffffffffffffffffffffffffffffffff16816000015173ffffffffffffffffffffffffffffffffffffffff161461125f576040517f08c379a00000000000000000000000000000000000000000000000000000000081526004016112569061236e565b60405180910390fd5b60026000838152602001908152602001600020600080820160006101000a81549073ffffffffffffffffffffffffffffffffffffffff0219169055600182016000905560028201600090556003820160006101000a81549060ff02191690555050813373ffffffffffffffffffffffffffffffffffffffff167f85562d2d9b6fe46899f9b6ed410d0330551d861f63395b58c411a9d8159ce08760405160405180910390a35050565b60026020528060005260406000206000915090508060000160009054906101000a900473ffffffffffffffffffffffffffffffffffffffff16908060010154908060020154908060030160009054906101000a900460ff16905084565b61136d6118b5565b6000600160008381526020019081526020016000206040518060400160405290816000820160009054906101000a900473ffffffffffffffffffffffffffffffffffffffff1673ffffffffffffffffffffffffffffffffffffffff1673ffffffffffffffffffffffffffffffffffffffff1681526020016001820154815250509050600073ffffffffffffffffffffffffffffffffffffffff16816000015173ffffffffffffffffffffffffffffffffffffffff1603611462576040517f08c379a000000000000000000000000000000000000000000000000000000000815260040161145990612152565b60405180910390fd5b806000015173ffffffffffffffffffffffffffffffffffffffff167f000000000000000000000000000000000000000000000000000000000000000073ffffffffffffffffffffffffffffffffffffffff16636352211e846040518263ffffffff1660e01b81526004016114d69190611cfb565b602060405180830381865afa1580156114f3573d6000803e3d6000fd5b505050506040513d601f19601f820116820180604052508101906115179190611d42565b73ffffffffffffffffffffffffffffffffffffffff161461156d576040517f08c379a0000000000000000000000000000000000000000000000000000000008152600401611564906123da565b60405180910390fd5b806000015173ffffffffffffffffffffffffffffffffffffffff163373ffffffffffffffffffffffffffffffffffffffff16036115df576040517f08c379a00000000000000000000000000000000000000000000000000000000081526004016115d690612446565b60405180910390fd5b80602001513414611625576040517f08c379a000000000000000000000000000000000000000000000000000000000815260040161161c906124b2565b60405180910390fd5b611633816000015183611904565b611672576040517f08c379a000000000000000000000000000000000000000000000000000000000815260040161166990612302565b60405180910390fd5b60016000838152602001908152602001600020600080820160006101000a81549073ffffffffffffffffffffffffffffffffffffffff0219169055600182016000905550506000816000015173ffffffffffffffffffffffffffffffffffffffff16346040516116e190612503565b60006040518083038185875af1925050503d806000811461171e576040519150601f19603f3d011682016040523d82523d6000602084013e611723565b606091505b5050905080611767576040517f08c379a000000000000000000000000000000000000000000000000000000000815260040161175e90612564565b60405180910390fd5b7f000000000000000000000000000000000000000000000000000000000000000073ffffffffffffffffffffffffffffffffffffffff166342842e0e836000015133866040518463ffffffff1660e01b81526004016117c893929190611ff7565b600060405180830381600087803b1580156117e257600080fd5b505af11580156117f6573d6000803e3d6000fd5b50505050816000015173ffffffffffffffffffffffffffffffffffffffff163373ffffffffffffffffffffffffffffffffffffffff16847f888231f55a3cd8fd72276bc1b12ed5a60f8d92e62d288e64bf29dd6e5fc7809a3460405161185c9190611cfb565b60405180910390a4505061186e611a79565b50565b60016020528060005260406000206000915090508060000160009054906101000a900473ffffffffffffffffffffffffffffffffffffffff16908060010154905082565b6002600054036118fa576040517f08c379a00000000000000000000000000000000000000000000000000000000081526004016118f1906125d0565b60405180910390fd5b6002600081905550565b60003073ffffffffffffffffffffffffffffffffffffffff167f000000000000000000000000000000000000000000000000000000000000000073ffffffffffffffffffffffffffffffffffffffff1663081812fc846040518263ffffffff1660e01b81526004016119769190611cfb565b602060405180830381865afa158015611993573d6000803e3d6000fd5b505050506040513d601f19601f820116820180604052508101906119b79190611d42565b73ffffffffffffffffffffffffffffffffffffffff161480611a7157507f000000000000000000000000000000000000000000000000000000000000000073ffffffffffffffffffffffffffffffffffffffff1663e985e9c584306040518363ffffffff1660e01b8152600401611a2f9291906125f0565b602060405180830381865afa158015611a4c573d6000803e3d6000fd5b505050506040513d601f19601f82011682018060405250810190611a709190612645565b5b905092915050565b6001600081905550565b600080fd5b6000819050919050565b611a9b81611a88565b8114611aa657600080fd5b50565b600081359050611ab881611a92565b92915050565b600060208284031215611ad457611ad3611a83565b5b6000611ae284828501611aa9565b91505092915050565b60008060408385031215611b0257611b01611a83565b5b6000611b1085828601611aa9565b9250506020611b2185828601611aa9565b9150509250929050565b600073ffffffffffffffffffffffffffffffffffffffff82169050919050565b6000819050919050565b6000611b70611b6b611b6684611b2b565b611b4b565b611b2b565b9050919050565b6000611b8282611b55565b9050919050565b6000611b9482611b77565b9050919050565b611ba481611b89565b82525050565b6000602082019050611bbf6000830184611b9b565b92915050565b6000611bd082611b2b565b9050919050565b611be081611bc5565b82525050565b611bef81611a88565b82525050565b60008115159050919050565b611c0a81611bf5565b82525050565b6000608082019050611c256000830187611bd7565b611c326020830186611be6565b611c3f6040830185611be6565b611c4c6060830184611c01565b95945050505050565b6000604082019050611c6a6000830185611bd7565b611c776020830184611be6565b9392505050565b600082825260208201905092915050565b7f6e6f742061637469766500000000000000000000000000000000000000000000600082015250565b6000611cc5600a83611c7e565b9150611cd082611c8f565b602082019050919050565b60006020820190508181036000830152611cf481611cb8565b9050919050565b6000602082019050611d106000830184611be6565b92915050565b611d1f81611bc5565b8114611d2a57600080fd5b50565b600081519050611d3c81611d16565b92915050565b600060208284031215611d5857611d57611a83565b5b6000611d6684828501611d2d565b91505092915050565b7f6d616b6572206e6f74206f776e6572206e6f7700000000000000000000000000600082015250565b6000611da5601383611c7e565b9150611db082611d6f565b602082019050919050565b60006020820190508181036000830152611dd481611d98565b9050919050565b7f74616b6572206e6f74206f776e65722077616e74656400000000000000000000600082015250565b6000611e11601683611c7e565b9150611e1c82611ddb565b602082019050919050565b60006020820190508181036000830152611e4081611e04565b9050919050565b7f6d61726b6574206e6f7420617070726f766564206f6666657265640000000000600082015250565b6000611e7d601b83611c7e565b9150611e8882611e47565b602082019050919050565b60006020820190508181036000830152611eac81611e70565b9050919050565b7f6d61726b6574206e6f7420617070726f7665642077616e746564000000000000600082015250565b6000611ee9601a83611c7e565b9150611ef482611eb3565b602082019050919050565b60006020820190508181036000830152611f1881611edc565b9050919050565b7f6f66666572656420746f6b656e206c6973746564000000000000000000000000600082015250565b6000611f55601483611c7e565b9150611f6082611f1f565b602082019050919050565b60006020820190508181036000830152611f8481611f48565b9050919050565b7f77616e74656420746f6b656e206c697374656400000000000000000000000000600082015250565b6000611fc1601383611c7e565b9150611fcc82611f8b565b602082019050919050565b60006020820190508181036000830152611ff081611fb4565b9050919050565b600060608201905061200c6000830186611bd7565b6120196020830185611bd7565b6120266040830184611be6565b949350505050565b7f73616d6520746f6b656e00000000000000000000000000000000000000000000600082015250565b6000612064600a83611c7e565b915061206f8261202e565b602082019050919050565b6000602082019050818103600083015261209381612057565b9050919050565b7f6e6f74206f776e6572206f666665726564000000000000000000000000000000600082015250565b60006120d0601183611c7e565b91506120db8261209a565b602082019050919050565b600060208201905081810360008301526120ff816120c3565b9050919050565b7f6e6f74206c697374656400000000000000000000000000000000000000000000600082015250565b600061213c600a83611c7e565b915061214782612106565b602082019050919050565b6000602082019050818103600083015261216b8161212f565b9050919050565b7f6e6f742073656c6c657200000000000000000000000000000000000000000000600082015250565b60006121a8600a83611c7e565b91506121b382612172565b602082019050919050565b600060208201905081810360008301526121d78161219b565b9050919050565b7f70726963653d3000000000000000000000000000000000000000000000000000600082015250565b6000612214600783611c7e565b915061221f826121de565b602082019050919050565b6000602082019050818103600083015261224381612207565b9050919050565b7f6e6f74206f776e65720000000000000000000000000000000000000000000000600082015250565b6000612280600983611c7e565b915061228b8261224a565b602082019050919050565b600060208201905081810360008301526122af81612273565b9050919050565b7f6d61726b6574206e6f7420617070726f76656400000000000000000000000000600082015250565b60006122ec601383611c7e565b91506122f7826122b6565b602082019050919050565b6000602082019050818103600083015261231b816122df565b9050919050565b7f6e6f74206d616b65720000000000000000000000000000000000000000000000600082015250565b6000612358600983611c7e565b915061236382612322565b602082019050919050565b600060208201905081810360008301526123878161234b565b9050919050565b7f73656c6c6572206e6f206c6f6e676572206f776e657200000000000000000000600082015250565b60006123c4601683611c7e565b91506123cf8261238e565b602082019050919050565b600060208201905081810360008301526123f3816123b7565b9050919050565b7f73656c6620627579000000000000000000000000000000000000000000000000600082015250565b6000612430600883611c7e565b915061243b826123fa565b602082019050919050565b6000602082019050818103600083015261245f81612423565b9050919050565b7f77726f6e672076616c7565000000000000000000000000000000000000000000600082015250565b600061249c600b83611c7e565b91506124a782612466565b602082019050919050565b600060208201905081810360008301526124cb8161248f565b9050919050565b600081905092915050565b50565b60006124ed6000836124d2565b91506124f8826124dd565b600082019050919050565b600061250e826124e0565b9150819050919050565b7f7061796d656e74206661696c6564000000000000000000000000000000000000600082015250565b600061254e600e83611c7e565b915061255982612518565b602082019050919050565b6000602082019050818103600083015261257d81612541565b9050919050565b7f5265656e7472616e637947756172643a207265656e7472616e742063616c6c00600082015250565b60006125ba601f83611c7e565b91506125c582612584565b602082019050919050565b600060208201905081810360008301526125e9816125ad565b9050919050565b60006040820190506126056000830185611bd7565b6126126020830184611bd7565b9392505050565b61262281611bf5565b811461262d57600080fd5b50565b60008151905061263f81612619565b92915050565b60006020828403121561265b5761265a611a83565b5b600061266984828501612630565b9150509291505056fea2646970667358221220b7b05250f89f2d0a8fd3ca6c7005c6f8c01111a216a46bcf211bd7ae8d2bb88f64736f6c634300081e0033",
					"opcodes": "PUSH1 0xA0 PUSH1 0x40 MSTORE CALLVALUE DUP1 ISZERO PUSH2 0x10 JUMPI PUSH1 0x0 DUP1 REVERT JUMPDEST POP PUSH1 0x40 MLOAD PUSH2 0x28F9 CODESIZE SUB DUP1 PUSH2 0x28F9 DUP4 CODECOPY DUP2 DUP2 ADD PUSH1 0x40 MSTORE DUP2 ADD SWAP1 PUSH2 0x32 SWAP2 SWAP1 PUSH2 0x146 JUMP JUMPDEST PUSH1 0x1 PUSH1 0x0 DUP2 SWAP1 SSTORE POP PUSH1 0x0 PUSH20 0xFFFFFFFFFFFFFFFFFFFFFFFFFFFFFFFFFFFFFFFF AND DUP2 PUSH20 0xFFFFFFFFFFFFFFFFFFFFFFFFFFFFFFFFFFFFFFFF AND SUB PUSH2 0xA9 JUMPI PUSH1 0x40 MLOAD PUSH32 0x8C379A000000000000000000000000000000000000000000000000000000000 DUP2 MSTORE PUSH1 0x4 ADD PUSH2 0xA0 SWAP1 PUSH2 0x1D0 JUMP JUMPDEST PUSH1 0x40 MLOAD DUP1 SWAP2 SUB SWAP1 REVERT JUMPDEST DUP1 PUSH20 0xFFFFFFFFFFFFFFFFFFFFFFFFFFFFFFFFFFFFFFFF AND PUSH1 0x80 DUP2 PUSH20 0xFFFFFFFFFFFFFFFFFFFFFFFFFFFFFFFFFFFFFFFF AND DUP2 MSTORE POP POP POP PUSH2 0x1F0 JUMP JUMPDEST PUSH1 0x0 DUP1 REVERT JUMPDEST PUSH1 0x0 PUSH20 0xFFFFFFFFFFFFFFFFFFFFFFFFFFFFFFFFFFFFFFFF DUP3 AND SWAP1 POP SWAP2 SWAP1 POP JUMP JUMPDEST PUSH1 0x0 PUSH2 0x113 DUP3 PUSH2 0xE8 JUMP JUMPDEST SWAP1 POP SWAP2 SWAP1 POP JUMP JUMPDEST PUSH2 0x123 DUP2 PUSH2 0x108 JUMP JUMPDEST DUP2 EQ PUSH2 0x12E JUMPI PUSH1 0x0 DUP1 REVERT JUMPDEST POP JUMP JUMPDEST PUSH1 0x0 DUP2 MLOAD SWAP1 POP PUSH2 0x140 DUP2 PUSH2 0x11A JUMP JUMPDEST SWAP3 SWAP2 POP POP JUMP JUMPDEST PUSH1 0x0 PUSH1 0x20 DUP3 DUP5 SUB SLT ISZERO PUSH2 0x15C JUMPI PUSH2 0x15B PUSH2 0xE3 JUMP JUMPDEST JUMPDEST PUSH1 0x0 PUSH2 0x16A DUP5 DUP3 DUP6 ADD PUSH2 0x131 JUMP JUMPDEST SWAP2 POP POP SWAP3 SWAP2 POP POP JUMP JUMPDEST PUSH1 0x0 DUP3 DUP3 MSTORE PUSH1 0x20 DUP3 ADD SWAP1 POP SWAP3 SWAP2 POP POP JUMP JUMPDEST PUSH32 0x7A65726F20616464720000000000000000000000000000000000000000000000 PUSH1 0x0 DUP3 ADD MSTORE POP JUMP JUMPDEST PUSH1 0x0 PUSH2 0x1BA PUSH1 0x9 DUP4 PUSH2 0x173 JUMP JUMPDEST SWAP2 POP PUSH2 0x1C5 DUP3 PUSH2 0x184 JUMP JUMPDEST PUSH1 0x20 DUP3 ADD SWAP1 POP SWAP2 SWAP1 POP JUMP JUMPDEST PUSH1 0x0 PUSH1 0x20 DUP3 ADD SWAP1 POP DUP2 DUP2 SUB PUSH1 0x0 DUP4 ADD MSTORE PUSH2 0x1E9 DUP2 PUSH2 0x1AD JUMP JUMPDEST SWAP1 POP SWAP2 SWAP1 POP JUMP JUMPDEST PUSH1 0x80 MLOAD PUSH2 0x26A8 PUSH2 0x251 PUSH1 0x0 CODECOPY PUSH1 0x0 DUP2 DUP2 PUSH2 0x32D ADD MSTORE DUP2 DUP2 PUSH2 0x438 ADD MSTORE DUP2 DUP2 PUSH2 0x77D ADD MSTORE DUP2 DUP2 PUSH2 0x814 ADD MSTORE DUP2 DUP2 PUSH2 0x982 ADD MSTORE DUP2 DUP2 PUSH2 0xE68 ADD MSTORE DUP2 DUP2 PUSH2 0xEE6 ADD MSTORE DUP2 DUP2 PUSH2 0x147F ADD MSTORE DUP2 DUP2 PUSH2 0x1769 ADD MSTORE DUP2 DUP2 PUSH2 0x191F ADD MSTORE PUSH2 0x19D6 ADD MSTORE PUSH2 0x26A8 PUSH1 0x0 RETURN INVALID PUSH1 0x80 PUSH1 0x40 MSTORE PUSH1 0x4 CALLDATASIZE LT PUSH2 0x86 JUMPI PUSH1 0x0 CALLDATALOAD PUSH1 0xE0 SHR DUP1 PUSH4 0x50FD7367 GT PUSH2 0x59 JUMPI DUP1 PUSH4 0x50FD7367 EQ PUSH2 0x131 JUMPI DUP1 PUSH4 0x54D6A2B7 EQ PUSH2 0x15A JUMPI DUP1 PUSH4 0xA13F1C62 EQ PUSH2 0x183 JUMPI DUP1 PUSH4 0xD96A094A EQ PUSH2 0x1C3 JUMPI DUP1 PUSH4 0xDE74E57B EQ PUSH2 0x1DF JUMPI PUSH2 0x86 JUMP JUMPDEST DUP1 PUSH4 0x1BF33004 EQ PUSH2 0x8B JUMPI DUP1 PUSH4 0x1D3A566D EQ PUSH2 0xB4 JUMPI DUP1 PUSH4 0x40E58EE5 EQ PUSH2 0xDD JUMPI DUP1 PUSH4 0x47CCCA02 EQ PUSH2 0x106 JUMPI JUMPDEST PUSH1 0x0 DUP1 REVERT JUMPDEST CALLVALUE DUP1 ISZERO PUSH2 0x97 JUMPI PUSH1 0x0 DUP1 REVERT JUMPDEST POP PUSH2 0xB2 PUSH1 0x4 DUP1 CALLDATASIZE SUB DUP2 ADD SWAP1 PUSH2 0xAD SWAP2 SWAP1 PUSH2 0x1ABE JUMP JUMPDEST PUSH2 0x21D JUMP JUMPDEST STOP JUMPDEST CALLVALUE DUP1 ISZERO PUSH2 0xC0 JUMPI PUSH1 0x0 DUP1 REVERT JUMPDEST POP PUSH2 0xDB PUSH1 0x4 DUP1 CALLDATASIZE SUB DUP2 ADD SWAP1 PUSH2 0xD6 SWAP2 SWAP1 PUSH2 0x1AEB JUMP JUMPDEST PUSH2 0x927 JUMP JUMPDEST STOP JUMPDEST CALLVALUE DUP1 ISZERO PUSH2 0xE9 JUMPI PUSH1 0x0 DUP1 REVERT JUMPDEST POP PUSH2 0x104 PUSH1 0x4 DUP1 CALLDATASIZE SUB DUP2 ADD SWAP1 PUSH2 0xFF SWAP2 SWAP1 PUSH2 0x1ABE JUMP JUMPDEST PUSH2 0xC72 JUMP JUMPDEST STOP JUMPDEST CALLVALUE DUP1 ISZERO PUSH2 0x112 JUMPI PUSH1 0x0 DUP1 REVERT JUMPDEST POP PUSH2 0x11B PUSH2 0xE66 JUMP JUMPDEST PUSH1 0x40 MLOAD PUSH2 0x128 SWAP2 SWAP1 PUSH2 0x1BAA JUMP JUMPDEST PUSH1 0x40 MLOAD DUP1 SWAP2 SUB SWAP1 RETURN JUMPDEST CALLVALUE DUP1 ISZERO PUSH2 0x13D JUMPI PUSH1 0x0 DUP1 REVERT JUMPDEST POP PUSH2 0x158 PUSH1 0x4 DUP1 CALLDATASIZE SUB DUP2 ADD SWAP1 PUSH2 0x153 SWAP2 SWAP1 PUSH2 0x1AEB JUMP JUMPDEST PUSH2 0xE8A JUMP JUMPDEST STOP JUMPDEST CALLVALUE DUP1 ISZERO PUSH2 0x166 JUMPI PUSH1 0x0 DUP1 REVERT JUMPDEST POP PUSH2 0x181 PUSH1 0x4 DUP1 CALLDATASIZE SUB DUP2 ADD SWAP1 PUSH2 0x17C SWAP2 SWAP1 PUSH2 0x1ABE JUMP JUMPDEST PUSH2 0x1102 JUMP JUMPDEST STOP JUMPDEST CALLVALUE DUP1 ISZERO PUSH2 0x18F JUMPI PUSH1 0x0 DUP1 REVERT JUMPDEST POP PUSH2 0x1AA PUSH1 0x4 DUP1 CALLDATASIZE SUB DUP2 ADD SWAP1 PUSH2 0x1A5 SWAP2 SWAP1 PUSH2 0x1ABE JUMP JUMPDEST PUSH2 0x1308 JUMP JUMPDEST PUSH1 0x40 MLOAD PUSH2 0x1BA SWAP5 SWAP4 SWAP3 SWAP2 SWAP1 PUSH2 0x1C10 JUMP JUMPDEST PUSH1 0x40 MLOAD DUP1 SWAP2 SUB SWAP1 RETURN JUMPDEST PUSH2 0x1DD PUSH1 0x4 DUP1 CALLDATASIZE SUB DUP2 ADD SWAP1 PUSH2 0x1D8 SWAP2 SWAP1 PUSH2 0x1ABE JUMP JUMPDEST PUSH2 0x1365 JUMP JUMPDEST STOP JUMPDEST CALLVALUE DUP1 ISZERO PUSH2 0x1EB JUMPI PUSH1 0x0 DUP1 REVERT JUMPDEST POP PUSH2 0x206 PUSH1 0x4 DUP1 CALLDATASIZE SUB DUP2 ADD SWAP1 PUSH2 0x201 SWAP2 SWAP1 PUSH2 0x1ABE JUMP JUMPDEST PUSH2 0x1871 JUMP JUMPDEST PUSH1 0x40 MLOAD PUSH2 0x214 SWAP3 SWAP2 SWAP1 PUSH2 0x1C55 JUMP JUMPDEST PUSH1 0x40 MLOAD DUP1 SWAP2 SUB SWAP1 RETURN JUMPDEST PUSH2 0x225 PUSH2 0x18B5 JUMP JUMPDEST PUSH1 0x0 PUSH1 0x2 PUSH1 0x0 DUP4 DUP2 MSTORE PUSH1 0x20 ADD SWAP1 DUP2 MSTORE PUSH1 0x20 ADD PUSH1 0x0 KECCAK256 PUSH1 0x40 MLOAD DUP1 PUSH1 0x80 ADD PUSH1 0x40 MSTORE SWAP1 DUP2 PUSH1 0x0 DUP3 ADD PUSH1 0x0 SWAP1 SLOAD SWAP1 PUSH2 0x100 EXP SWAP1 DIV PUSH20 0xFFFFFFFFFFFFFFFFFFFFFFFFFFFFFFFFFFFFFFFF AND PUSH20 0xFFFFFFFFFFFFFFFFFFFFFFFFFFFFFFFFFFFFFFFF AND PUSH20 0xFFFFFFFFFFFFFFFFFFFFFFFFFFFFFFFFFFFFFFFF AND DUP2 MSTORE PUSH1 0x20 ADD PUSH1 0x1 DUP3 ADD SLOAD DUP2 MSTORE PUSH1 0x20 ADD PUSH1 0x2 DUP3 ADD SLOAD DUP2 MSTORE PUSH1 0x20 ADD PUSH1 0x3 DUP3 ADD PUSH1 0x0 SWAP1 SLOAD SWAP1 PUSH2 0x100 EXP SWAP1 DIV PUSH1 0xFF AND ISZERO ISZERO ISZERO ISZERO DUP2 MSTORE POP POP SWAP1 POP DUP1 PUSH1 0x60 ADD MLOAD PUSH2 0x310 JUMPI PUSH1 0x40 MLOAD PUSH32 0x8C379A000000000000000000000000000000000000000000000000000000000 DUP2 MSTORE PUSH1 0x4 ADD PUSH2 0x307 SWAP1 PUSH2 0x1CDB JUMP JUMPDEST PUSH1 0x40 MLOAD DUP1 SWAP2 SUB SWAP1 REVERT JUMPDEST DUP1 PUSH1 0x0 ADD MLOAD PUSH20 0xFFFFFFFFFFFFFFFFFFFFFFFFFFFFFFFFFFFFFFFF AND PUSH32 0x0 PUSH20 0xFFFFFFFFFFFFFFFFFFFFFFFFFFFFFFFFFFFFFFFF AND PUSH4 0x6352211E DUP4 PUSH1 0x20 ADD MLOAD PUSH1 0x40 MLOAD DUP3 PUSH4 0xFFFFFFFF AND PUSH1 0xE0 SHL DUP2 MSTORE PUSH1 0x4 ADD PUSH2 0x388 SWAP2 SWAP1 PUSH2 0x1CFB JUMP JUMPDEST PUSH1 0x20 PUSH1 0x40 MLOAD DUP1 DUP4 SUB DUP2 DUP7 GAS STATICCALL ISZERO DUP1 ISZERO PUSH2 0x3A5 JUMPI RETURNDATASIZE PUSH1 0x0 DUP1 RETURNDATACOPY RETURNDATASIZE PUSH1 0x0 REVERT JUMPDEST POP POP POP POP PUSH1 0x40 MLOAD RETURNDATASIZE PUSH1 0x1F NOT PUSH1 0x1F DUP3 ADD AND DUP3 ADD DUP1 PUSH1 0x40 MSTORE POP DUP2 ADD SWAP1 PUSH2 0x3C9 SWAP2 SWAP1 PUSH2 0x1D42 JUMP JUMPDEST PUSH20 0xFFFFFFFFFFFFFFFFFFFFFFFFFFFFFFFFFFFFFFFF AND EQ PUSH2 0x41F JUMPI PUSH1 0x40 MLOAD PUSH32 0x8C379A000000000000000000000000000000000000000000000000000000000 DUP2 MSTORE PUSH1 0x4 ADD PUSH2 0x416 SWAP1 PUSH2 0x1DBB JUMP JUMPDEST PUSH1 0x40 MLOAD DUP1 SWAP2 SUB SWAP1 REVERT JUMPDEST CALLER PUSH20 0xFFFFFFFFFFFFFFFFFFFFFFFFFFFFFFFFFFFFFFFF AND PUSH32 0x0 PUSH20 0xFFFFFFFFFFFFFFFFFFFFFFFFFFFFFFFFFFFFFFFF AND PUSH4 0x6352211E DUP4 PUSH1 0x40 ADD MLOAD PUSH1 0x40 MLOAD DUP3 PUSH4 0xFFFFFFFF AND PUSH1 0xE0 SHL DUP2 MSTORE PUSH1 0x4 ADD PUSH2 0x493 SWAP2 SWAP1 PUSH2 0x1CFB JUMP JUMPDEST PUSH1 0x20 PUSH1 0x40 MLOAD DUP1 DUP4 SUB DUP2 DUP7 GAS STATICCALL ISZERO DUP1 ISZERO PUSH2 0x4B0 JUMPI RETURNDATASIZE PUSH1 0x0 DUP1 RETURNDATACOPY RETURNDATASIZE PUSH1 0x0 REVERT JUMPDEST POP POP POP POP PUSH1 0x40 MLOAD RETURNDATASIZE PUSH1 0x1F NOT PUSH1 0x1F DUP3 ADD AND DUP3 ADD DUP1 PUSH1 0x40 MSTORE POP DUP2 ADD SWAP1 PUSH2 0x4D4 SWAP2 SWAP1 PUSH2 0x1D42 JUMP JUMPDEST PUSH20 0xFFFFFFFFFFFFFFFFFFFFFFFFFFFFFFFFFFFFFFFF AND EQ PUSH2 0x52A JUMPI PUSH1 0x40 MLOAD PUSH32 0x8C379A000000000000000000000000000000000000000000000000000000000 DUP2 MSTORE PUSH1 0x4 ADD PUSH2 0x521 SWAP1 PUSH2 0x1E27 JUMP JUMPDEST PUSH1 0x40 MLOAD DUP1 SWAP2 SUB SWAP1 REVERT JUMPDEST PUSH2 0x53C DUP2 PUSH1 0x0 ADD MLOAD DUP3 PUSH1 0x20 ADD MLOAD PUSH2 0x1904 JUMP JUMPDEST PUSH2 0x57B JUMPI PUSH1 0x40 MLOAD PUSH32 0x8C379A000000000000000000000000000000000000000000000000000000000 DUP2 MSTORE PUSH1 0x4 ADD PUSH2 0x572 SWAP1 PUSH2 0x1E93 JUMP JUMPDEST PUSH1 0x40 MLOAD DUP1 SWAP2 SUB SWAP1 REVERT JUMPDEST PUSH2 0x589 CALLER DUP3 PUSH1 0x40 ADD MLOAD PUSH2 0x1904 JUMP JUMPDEST PUSH2 0x5C8 JUMPI PUSH1 0x40 MLOAD PUSH32 0x8C379A000000000000000000000000000000000000000000000000000000000 DUP2 MSTORE PUSH1 0x4 ADD PUSH2 0x5BF SWAP1 PUSH2 0x1EFF JUMP JUMPDEST PUSH1 0x40 MLOAD DUP1 SWAP2 SUB SWAP1 REVERT JUMPDEST PUSH1 0x0 PUSH20 0xFFFFFFFFFFFFFFFFFFFFFFFFFFFFFFFFFFFFFFFF AND PUSH1 0x1 PUSH1 0x0 DUP4 PUSH1 0x20 ADD MLOAD DUP2 MSTORE PUSH1 0x20 ADD SWAP1 DUP2 MSTORE PUSH1 0x20 ADD PUSH1 0x0 KECCAK256 PUSH1 0x0 ADD PUSH1 0x0 SWAP1 SLOAD SWAP1 PUSH2 0x100 EXP SWAP1 DIV PUSH20 0xFFFFFFFFFFFFFFFFFFFFFFFFFFFFFFFFFFFFFFFF AND PUSH20 0xFFFFFFFFFFFFFFFFFFFFFFFFFFFFFFFFFFFFFFFF AND EQ PUSH2 0x671 JUMPI PUSH1 0x40 MLOAD PUSH32 0x8C379A000000000000000000000000000000000000000000000000000000000 DUP2 MSTORE PUSH1 0x4 ADD PUSH2 0x668 SWAP1 PUSH2 0x1F6B JUMP JUMPDEST PUSH1 0x40 MLOAD DUP1 SWAP2 SUB SWAP1 REVERT JUMPDEST PUSH1 0x0 PUSH20 0xFFFFFFFFFFFFFFFFFFFFFFFFFFFFFFFFFFFFFFFF AND PUSH1 0x1 PUSH1 0x0 DUP4 PUSH1 0x40 ADD MLOAD DUP2 MSTORE PUSH1 0x20 ADD SWAP1 DUP2 MSTORE PUSH1 0x20 ADD PUSH1 0x0 KECCAK256 PUSH1 0x0 ADD PUSH1 0x0 SWAP1 SLOAD SWAP1 PUSH2 0x100 EXP SWAP1 DIV PUSH20 0xFFFFFFFFFFFFFFFFFFFFFFFFFFFFFFFFFFFFFFFF AND PUSH20 0xFFFFFFFFFFFFFFFFFFFFFFFFFFFFFFFFFFFFFFFF AND EQ PUSH2 0x71A JUMPI PUSH1 0x40 MLOAD PUSH32 0x8C379A000000000000000000000000000000000000000000000000000000000 DUP2 MSTORE PUSH1 0x4 ADD PUSH2 0x711 SWAP1 PUSH2 0x1FD7 JUMP JUMPDEST PUSH1 0x40 MLOAD DUP1 SWAP2 SUB SWAP1 REVERT JUMPDEST PUSH1 0x2 PUSH1 0x0 DUP4 DUP2 MSTORE PUSH1 0x20 ADD SWAP1 DUP2 MSTORE PUSH1 0x20 ADD PUSH1 0x0 KECCAK256 PUSH1 0x0 DUP1 DUP3 ADD PUSH1 0x0 PUSH2 0x100 EXP DUP2 SLOAD SWAP1 PUSH20 0xFFFFFFFFFFFFFFFFFFFFFFFFFFFFFFFFFFFFFFFF MUL NOT AND SWAP1 SSTORE PUSH1 0x1 DUP3 ADD PUSH1 0x0 SWAP1 SSTORE PUSH1 0x2 DUP3 ADD PUSH1 0x0 SWAP1 SSTORE PUSH1 0x3 DUP3 ADD PUSH1 0x0 PUSH2 0x100 EXP DUP2 SLOAD SWAP1 PUSH1 0xFF MUL NOT AND SWAP1 SSTORE POP POP PUSH32 0x0 PUSH20 0xFFFFFFFFFFFFFFFFFFFFFFFFFFFFFFFFFFFFFFFF AND PUSH4 0x42842E0E DUP3 PUSH1 0x0 ADD MLOAD CALLER DUP5 PUSH1 0x20 ADD MLOAD PUSH1 0x40 MLOAD DUP5 PUSH4 0xFFFFFFFF AND PUSH1 0xE0 SHL DUP2 MSTORE PUSH1 0x4 ADD PUSH2 0x7E0 SWAP4 SWAP3 SWAP2 SWAP1 PUSH2 0x1FF7 JUMP JUMPDEST PUSH1 0x0 PUSH1 0x40 MLOAD DUP1 DUP4 SUB DUP2 PUSH1 0x0 DUP8 DUP1 EXTCODESIZE ISZERO DUP1 ISZERO PUSH2 0x7FA JUMPI PUSH1 0x0 DUP1 REVERT JUMPDEST POP GAS CALL ISZERO DUP1 ISZERO PUSH2 0x80E JUMPI RETURNDATASIZE PUSH1 0x0 DUP1 RETURNDATACOPY RETURNDATASIZE PUSH1 0x0 REVERT JUMPDEST POP POP POP POP PUSH32 0x0 PUSH20 0xFFFFFFFFFFFFFFFFFFFFFFFFFFFFFFFFFFFFFFFF AND PUSH4 0x42842E0E CALLER DUP4 PUSH1 0x0 ADD MLOAD DUP5 PUSH1 0x40 ADD MLOAD PUSH1 0x40 MLOAD DUP5 PUSH4 0xFFFFFFFF AND PUSH1 0xE0 SHL DUP2 MSTORE PUSH1 0x4 ADD PUSH2 0x877 SWAP4 SWAP3 SWAP2 SWAP1 PUSH2 0x1FF7 JUMP JUMPDEST PUSH1 0x0 PUSH1 0x40 MLOAD DUP1 DUP4 SUB DUP2 PUSH1 0x0 DUP8 DUP1 EXTCODESIZE ISZERO DUP1 ISZERO PUSH2 0x891 JUMPI PUSH1 0x0 DUP1 REVERT JUMPDEST POP GAS CALL ISZERO DUP1 ISZERO PUSH2 0x8A5 JUMPI RETURNDATASIZE PUSH1 0x0 DUP1 RETURNDATACOPY RETURNDATASIZE PUSH1 0x0 REVERT JUMPDEST POP POP POP POP DUP1 PUSH1 0x20 ADD MLOAD DUP2 PUSH1 0x0 ADD MLOAD PUSH20 0xFFFFFFFFFFFFFFFFFFFFFFFFFFFFFFFFFFFFFFFF AND CALLER PUSH20 0xFFFFFFFFFFFFFFFFFFFFFFFFFFFFFFFFFFFFFFFF AND PUSH32 0x37578CEED127276672E60DFF20964ADC31B310721884D9797F5D273A0E08A83F DUP5 PUSH1 0x40 ADD MLOAD PUSH1 0x40 MLOAD PUSH2 0x913 SWAP2 SWAP1 PUSH2 0x1CFB JUMP JUMPDEST PUSH1 0x40 MLOAD DUP1 SWAP2 SUB SWAP1 LOG4 POP PUSH2 0x924 PUSH2 0x1A79 JUMP JUMPDEST POP JUMP JUMPDEST DUP1 DUP3 SUB PUSH2 0x969 JUMPI PUSH1 0x40 MLOAD PUSH32 0x8C379A000000000000000000000000000000000000000000000000000000000 DUP2 MSTORE PUSH1 0x4 ADD PUSH2 0x960 SWAP1 PUSH2 0x207A JUMP JUMPDEST PUSH1 0x40 MLOAD DUP1 SWAP2 SUB SWAP1 REVERT JUMPDEST CALLER PUSH20 0xFFFFFFFFFFFFFFFFFFFFFFFFFFFFFFFFFFFFFFFF AND PUSH32 0x0 PUSH20 0xFFFFFFFFFFFFFFFFFFFFFFFFFFFFFFFFFFFFFFFF AND PUSH4 0x6352211E DUP5 PUSH1 0x40 MLOAD DUP3 PUSH4 0xFFFFFFFF AND PUSH1 0xE0 SHL DUP2 MSTORE PUSH1 0x4 ADD PUSH2 0x9D9 SWAP2 SWAP1 PUSH2 0x1CFB JUMP JUMPDEST PUSH1 0x20 PUSH1 0x40 MLOAD DUP1 DUP4 SUB DUP2 DUP7 GAS STATICCALL ISZERO DUP1 ISZERO PUSH2 0x9F6 JUMPI RETURNDATASIZE PUSH1 0x0 DUP1 RETURNDATACOPY RETURNDATASIZE PUSH1 0x0 REVERT JUMPDEST POP POP POP POP PUSH1 0x40 MLOAD RETURNDATASIZE PUSH1 0x1F NOT PUSH1 0x1F DUP3 ADD AND DUP3 ADD DUP1 PUSH1 0x40 MSTORE POP DUP2 ADD SWAP1 PUSH2 0xA1A SWAP2 SWAP1 PUSH2 0x1D42 JUMP JUMPDEST PUSH20 0xFFFFFFFFFFFFFFFFFFFFFFFFFFFFFFFFFFFFFFFF AND EQ PUSH2 0xA70 JUMPI PUSH1 0x40 MLOAD PUSH32 0x8C379A000000000000000000000000000000000000000000000000000000000 DUP2 MSTORE PUSH1 0x4 ADD PUSH2 0xA67 SWAP1 PUSH2 0x20E6 JUMP JUMPDEST PUSH1 0x40 MLOAD DUP1 SWAP2 SUB SWAP1 REVERT JUMPDEST PUSH2 0xA7A CALLER DUP4 PUSH2 0x1904 JUMP JUMPDEST PUSH2 0xAB9 JUMPI PUSH1 0x40 MLOAD PUSH32 0x8C379A000000000000000000000000000000000000000000000000000000000 DUP2 MSTORE PUSH1 0x4 ADD PUSH2 0xAB0 SWAP1 PUSH2 0x1E93 JUMP JUMPDEST PUSH1 0x40 MLOAD DUP1 SWAP2 SUB SWAP1 REVERT JUMPDEST PUSH1 0x0 PUSH20 0xFFFFFFFFFFFFFFFFFFFFFFFFFFFFFFFFFFFFFFFF AND PUSH1 0x1 PUSH1 0x0 DUP5 DUP2 MSTORE PUSH1 0x20 ADD SWAP1 DUP2 MSTORE PUSH1 0x20 ADD PUSH1 0x0 KECCAK256 PUSH1 0x0 ADD PUSH1 0x0 SWAP1 SLOAD SWAP1 PUSH2 0x100 EXP SWAP1 DIV PUSH20 0xFFFFFFFFFFFFFFFFFFFFFFFFFFFFFFFFFFFFFFFF AND PUSH20 0xFFFFFFFFFFFFFFFFFFFFFFFFFFFFFFFFFFFFFFFF AND EQ PUSH2 0xB5E JUMPI PUSH1 0x40 MLOAD PUSH32 0x8C379A000000000000000000000000000000000000000000000000000000000 DUP2 MSTORE PUSH1 0x4 ADD PUSH2 0xB55 SWAP1 PUSH2 0x1F6B JUMP JUMPDEST PUSH1 0x40 MLOAD DUP1 SWAP2 SUB SWAP1 REVERT JUMPDEST PUSH1 0x40 MLOAD DUP1 PUSH1 0x80 ADD PUSH1 0x40 MSTORE DUP1 CALLER PUSH20 0xFFFFFFFFFFFFFFFFFFFFFFFFFFFFFFFFFFFFFFFF AND DUP2 MSTORE PUSH1 0x20 ADD DUP4 DUP2 MSTORE PUSH1 0x20 ADD DUP3 DUP2 MSTORE PUSH1 0x20 ADD PUSH1 0x1 ISZERO ISZERO DUP2 MSTORE POP PUSH1 0x2 PUSH1 0x0 DUP5 DUP2 MSTORE PUSH1 0x20 ADD SWAP1 DUP2 MSTORE PUSH1 0x20 ADD PUSH1 0x0 KECCAK256 PUSH1 0x0 DUP3 ADD MLOAD DUP2 PUSH1 0x0 ADD PUSH1 0x0 PUSH2 0x100 EXP DUP2 SLOAD DUP2 PUSH20 0xFFFFFFFFFFFFFFFFFFFFFFFFFFFFFFFFFFFFFFFF MUL NOT AND SWAP1 DUP4 PUSH20 0xFFFFFFFFFFFFFFFFFFFFFFFFFFFFFFFFFFFFFFFF AND MUL OR SWAP1 SSTORE POP PUSH1 0x20 DUP3 ADD MLOAD DUP2 PUSH1 0x1 ADD SSTORE PUSH1 0x40 DUP3 ADD MLOAD DUP2 PUSH1 0x2 ADD SSTORE PUSH1 0x60 DUP3 ADD MLOAD DUP2 PUSH1 0x3 ADD PUSH1 0x0 PUSH2 0x100 EXP DUP2 SLOAD DUP2 PUSH1 0xFF MUL NOT AND SWAP1 DUP4 ISZERO ISZERO MUL OR SWAP1 SSTORE POP SWAP1 POP POP DUP1 DUP3 CALLER PUSH20 0xFFFFFFFFFFFFFFFFFFFFFFFFFFFFFFFFFFFFFFFF AND PUSH32 0xB0E71171F17634AA1485F107543F8F73EC3B9D3436FF571ECAD275E42F400B2B PUSH1 0x40 MLOAD PUSH1 0x40 MLOAD DUP1 SWAP2 SUB SWAP1 LOG4 POP POP JUMP JUMPDEST PUSH1 0x0 PUSH1 0x1 PUSH1 0x0 DUP4 DUP2 MSTORE PUSH1 0x20 ADD SWAP1 DUP2 MSTORE PUSH1 0x20 ADD PUSH1 0x0 KECCAK256 PUSH1 0x40 MLOAD DUP1 PUSH1 0x40 ADD PUSH1 0x40 MSTORE SWAP1 DUP2 PUSH1 0x0 DUP3 ADD PUSH1 0x0 SWAP1 SLOAD SWAP1 PUSH2 0x100 EXP SWAP1 DIV PUSH20 0xFFFFFFFFFFFFFFFFFFFFFFFFFFFFFFFFFFFFFFFF AND PUSH20 0xFFFFFFFFFFFFFFFFFFFFFFFFFFFFFFFFFFFFFFFF AND PUSH20 0xFFFFFFFFFFFFFFFFFFFFFFFFFFFFFFFFFFFFFFFF AND DUP2 MSTORE PUSH1 0x20 ADD PUSH1 0x1 DUP3 ADD SLOAD DUP2 MSTORE POP POP SWAP1 POP PUSH1 0x0 PUSH20 0xFFFFFFFFFFFFFFFFFFFFFFFFFFFFFFFFFFFFFFFF AND DUP2 PUSH1 0x0 ADD MLOAD PUSH20 0xFFFFFFFFFFFFFFFFFFFFFFFFFFFFFFFFFFFFFFFF AND SUB PUSH2 0xD67 JUMPI PUSH1 0x40 MLOAD PUSH32 0x8C379A000000000000000000000000000000000000000000000000000000000 DUP2 MSTORE PUSH1 0x4 ADD PUSH2 0xD5E SWAP1 PUSH2 0x2152 JUMP JUMPDEST PUSH1 0x40 MLOAD DUP1 SWAP2 SUB SWAP1 REVERT JUMPDEST CALLER PUSH20 0xFFFFFFFFFFFFFFFFFFFFFFFFFFFFFFFFFFFFFFFF AND DUP2 PUSH1 0x0 ADD MLOAD PUSH20 0xFFFFFFFFFFFFFFFFFFFFFFFFFFFFFFFFFFFFFFFF AND EQ PUSH2 0xDD9 JUMPI PUSH1 0x40 MLOAD PUSH32 0x8C379A000000000000000000000000000000000000000000000000000000000 DUP2 MSTORE PUSH1 0x4 ADD PUSH2 0xDD0 SWAP1 PUSH2 0x21BE JUMP JUMPDEST PUSH1 0x40 MLOAD DUP1 SWAP2 SUB SWAP1 REVERT JUMPDEST PUSH1 0x1 PUSH1 0x0 DUP4 DUP2 MSTORE PUSH1 0x20 ADD SWAP1 DUP2 MSTORE PUSH1 0x20 ADD PUSH1 0x0 KECCAK256 PUSH1 0x0 DUP1 DUP3 ADD PUSH1 0x0 PUSH2 0x100 EXP DUP2 SLOAD SWAP1 PUSH20 0xFFFFFFFFFFFFFFFFFFFFFFFFFFFFFFFFFFFFFFFF MUL NOT AND SWAP1 SSTORE PUSH1 0x1 DUP3 ADD PUSH1 0x0 SWAP1 SSTORE POP POP CALLER PUSH20 0xFFFFFFFFFFFFFFFFFFFFFFFFFFFFFFFFFFFFFFFF AND DUP3 PUSH32 0x26DECA31FF8139A06C52453CE8985D34F7648A6D9AF1D283C4063D052C355A0F PUSH1 0x40 MLOAD PUSH1 0x40 MLOAD DUP1 SWAP2 SUB SWAP1 LOG3 POP POP JUMP JUMPDEST PUSH32 0x0 DUP2 JUMP JUMPDEST PUSH1 0x0 DUP2 GT PUSH2 0xECD JUMPI PUSH1 0x40 MLOAD PUSH32 0x8C379A000000000000000000000000000000000000000000000000000000000 DUP2 MSTORE PUSH1 0x4 ADD PUSH2 0xEC4 SWAP1 PUSH2 0x222A JUMP JUMPDEST PUSH1 0x40 MLOAD DUP1 SWAP2 SUB SWAP1 REVERT JUMPDEST CALLER PUSH20 0xFFFFFFFFFFFFFFFFFFFFFFFFFFFFFFFFFFFFFFFF AND PUSH32 0x0 PUSH20 0xFFFFFFFFFFFFFFFFFFFFFFFFFFFFFFFFFFFFFFFF AND PUSH4 0x6352211E DUP5 PUSH1 0x40 MLOAD DUP3 PUSH4 0xFFFFFFFF AND PUSH1 0xE0 SHL DUP2 MSTORE PUSH1 0x4 ADD PUSH2 0xF3D SWAP2 SWAP1 PUSH2 0x1CFB JUMP JUMPDEST PUSH1 0x20 PUSH1 0x40 MLOAD DUP1 DUP4 SUB DUP2 DUP7 GAS STATICCALL ISZERO DUP1 ISZERO PUSH2 0xF5A JUMPI RETURNDATASIZE PUSH1 0x0 DUP1 RETURNDATACOPY RETURNDATASIZE PUSH1 0x0 REVERT JUMPDEST POP POP POP POP PUSH1 0x40 MLOAD RETURNDATASIZE PUSH1 0x1F NOT PUSH1 0x1F DUP3 ADD AND DUP3 ADD DUP1 PUSH1 0x40 MSTORE POP DUP2 ADD SWAP1 PUSH2 0xF7E SWAP2 SWAP1 PUSH2 0x1D42 JUMP JUMPDEST PUSH20 0xFFFFFFFFFFFFFFFFFFFFFFFFFFFFFFFFFFFFFFFF AND EQ PUSH2 0xFD4 JUMPI PUSH1 0x40 MLOAD PUSH32 0x8C379A000000000000000000000000000000000000000000000000000000000 DUP2 MSTORE PUSH1 0x4 ADD PUSH2 0xFCB SWAP1 PUSH2 0x2296 JUMP JUMPDEST PUSH1 0x40 MLOAD DUP1 SWAP2 SUB SWAP1 REVERT JUMPDEST PUSH2 0xFDE CALLER DUP4 PUSH2 0x1904 JUMP JUMPDEST PUSH2 0x101D JUMPI PUSH1 0x40 MLOAD PUSH32 0x8C379A000000000000000000000000000000000000000000000000000000000 DUP2 MSTORE PUSH1 0x4 ADD PUSH2 0x1014 SWAP1 PUSH2 0x2302 JUMP JUMPDEST PUSH1 0x40 MLOAD DUP1 SWAP2 SUB SWAP1 REVERT JUMPDEST PUSH1 0x40 MLOAD DUP1 PUSH1 0x40 ADD PUSH1 0x40 MSTORE DUP1 CALLER PUSH20 0xFFFFFFFFFFFFFFFFFFFFFFFFFFFFFFFFFFFFFFFF AND DUP2 MSTORE PUSH1 0x20 ADD DUP3 DUP2 MSTORE POP PUSH1 0x1 PUSH1 0x0 DUP5 DUP2 MSTORE PUSH1 0x20 ADD SWAP1 DUP2 MSTORE PUSH1 0x20 ADD PUSH1 0x0 KECCAK256 PUSH1 0x0 DUP3 ADD MLOAD DUP2 PUSH1 0x0 ADD PUSH1 0x0 PUSH2 0x100 EXP DUP2 SLOAD DUP2 PUSH20 0xFFFFFFFFFFFFFFFFFFFFFFFFFFFFFFFFFFFFFFFF MUL NOT AND SWAP1 DUP4 PUSH20 0xFFFFFFFFFFFFFFFFFFFFFFFFFFFFFFFFFFFFFFFF AND MUL OR SWAP1 SSTORE POP PUSH1 0x20 DUP3 ADD MLOAD DUP2 PUSH1 0x1 ADD SSTORE SWAP1 POP POP CALLER PUSH20 0xFFFFFFFFFFFFFFFFFFFFFFFFFFFFFFFFFFFFFFFF AND DUP3 PUSH32 0x50955776C5778C3B7D968D86D8C51FB6B29A7A74C20866B533268E209FC08343 DUP4 PUSH1 0x40 MLOAD PUSH2 0x10F6 SWAP2 SWAP1 PUSH2 0x1CFB JUMP JUMPDEST PUSH1 0x40 MLOAD DUP1 SWAP2 SUB SWAP1 LOG3 POP POP JUMP JUMPDEST PUSH1 0x0 PUSH1 0x2 PUSH1 0x0 DUP4 DUP2 MSTORE PUSH1 0x20 ADD SWAP1 DUP2 MSTORE PUSH1 0x20 ADD PUSH1 0x0 KECCAK256 PUSH1 0x40 MLOAD DUP1 PUSH1 0x80 ADD PUSH1 0x40 MSTORE SWAP1 DUP2 PUSH1 0x0 DUP3 ADD PUSH1 0x0 SWAP1 SLOAD SWAP1 PUSH2 0x100 EXP SWAP1 DIV PUSH20 0xFFFFFFFFFFFFFFFFFFFFFFFFFFFFFFFFFFFFFFFF AND PUSH20 0xFFFFFFFFFFFFFFFFFFFFFFFFFFFFFFFFFFFFFFFF AND PUSH20 0xFFFFFFFFFFFFFFFFFFFFFFFFFFFFFFFFFFFFFFFF AND DUP2 MSTORE PUSH1 0x20 ADD PUSH1 0x1 DUP3 ADD SLOAD DUP2 MSTORE PUSH1 0x20 ADD PUSH1 0x2 DUP3 ADD SLOAD DUP2 MSTORE PUSH1 0x20 ADD PUSH1 0x3 DUP3 ADD PUSH1 0x0 SWAP1 SLOAD SWAP1 PUSH2 0x100 EXP SWAP1 DIV PUSH1 0xFF AND ISZERO ISZERO ISZERO ISZERO DUP2 MSTORE POP POP SWAP1 POP DUP1 PUSH1 0x60 ADD MLOAD PUSH2 0x11ED JUMPI PUSH1 0x40 MLOAD PUSH32 0x8C379A000000000000000000000000000000000000000000000000000000000 DUP2 MSTORE PUSH1 0x4 ADD PUSH2 0x11E4 SWAP1 PUSH2 0x1CDB JUMP JUMPDEST PUSH1 0x40 MLOAD DUP1 SWAP2 SUB SWAP1 REVERT JUMPDEST CALLER PUSH20 0xFFFFFFFFFFFFFFFFFFFFFFFFFFFFFFFFFFFFFFFF AND DUP2 PUSH1 0x0 ADD MLOAD PUSH20 0xFFFFFFFFFFFFFFFFFFFFFFFFFFFFFFFFFFFFFFFF AND EQ PUSH2 0x125F JUMPI PUSH1 0x40 MLOAD PUSH32 0x8C379A000000000000000000000000000000000000000000000000000000000 DUP2 MSTORE PUSH1 0x4 ADD PUSH2 0x1256 SWAP1 PUSH2 0x236E JUMP JUMPDEST PUSH1 0x40 MLOAD DUP1 SWAP2 SUB SWAP1 REVERT JUMPDEST PUSH1 0x2 PUSH1 0x0 DUP4 DUP2 MSTORE PUSH1 0x20 ADD SWAP1 DUP2 MSTORE PUSH1 0x20 ADD PUSH1 0x0 KECCAK256 PUSH1 0x0 DUP1 DUP3 ADD PUSH1 0x0 PUSH2 0x100 EXP DUP2 SLOAD SWAP1 PUSH20 0xFFFFFFFFFFFFFFFFFFFFFFFFFFFFFFFFFFFFFFFF MUL NOT AND SWAP1 SSTORE PUSH1 0x1 DUP3 ADD PUSH1 0x0 SWAP1 SSTORE PUSH1 0x2 DUP3 ADD PUSH1 0x0 SWAP1 SSTORE PUSH1 0x3 DUP3 ADD PUSH1 0x0 PUSH2 0x100 EXP DUP2 SLOAD SWAP1 PUSH1 0xFF MUL NOT AND SWAP1 SSTORE POP POP DUP2 CALLER PUSH20 0xFFFFFFFFFFFFFFFFFFFFFFFFFFFFFFFFFFFFFFFF AND PUSH32 0x85562D2D9B6FE46899F9B6ED410D0330551D861F63395B58C411A9D8159CE087 PUSH1 0x40 MLOAD PUSH1 0x40 MLOAD DUP1 SWAP2 SUB SWAP1 LOG3 POP POP JUMP JUMPDEST PUSH1 0x2 PUSH1 0x20 MSTORE DUP1 PUSH1 0x0 MSTORE PUSH1 0x40 PUSH1 0x0 KECCAK256 PUSH1 0x0 SWAP2 POP SWAP1 POP DUP1 PUSH1 0x0 ADD PUSH1 0x0 SWAP1 SLOAD SWAP1 PUSH2 0x100 EXP SWAP1 DIV PUSH20 0xFFFFFFFFFFFFFFFFFFFFFFFFFFFFFFFFFFFFFFFF AND SWAP1 DUP1 PUSH1 0x1 ADD SLOAD SWAP1 DUP1 PUSH1 0x2 ADD SLOAD SWAP1 DUP1 PUSH1 0x3 ADD PUSH1 0x0 SWAP1 SLOAD SWAP1 PUSH2 0x100 EXP SWAP1 DIV PUSH1 0xFF AND SWAP1 POP DUP5 JUMP JUMPDEST PUSH2 0x136D PUSH2 0x18B5 JUMP JUMPDEST PUSH1 0x0 PUSH1 0x1 PUSH1 0x0 DUP4 DUP2 MSTORE PUSH1 0x20 ADD SWAP1 DUP2 MSTORE PUSH1 0x20 ADD PUSH1 0x0 KECCAK256 PUSH1 0x40 MLOAD DUP1 PUSH1 0x40 ADD PUSH1 0x40 MSTORE SWAP1 DUP2 PUSH1 0x0 DUP3 ADD PUSH1 0x0 SWAP1 SLOAD SWAP1 PUSH2 0x100 EXP SWAP1 DIV PUSH20 0xFFFFFFFFFFFFFFFFFFFFFFFFFFFFFFFFFFFFFFFF AND PUSH20 0xFFFFFFFFFFFFFFFFFFFFFFFFFFFFFFFFFFFFFFFF AND PUSH20 0xFFFFFFFFFFFFFFFFFFFFFFFFFFFFFFFFFFFFFFFF AND DUP2 MSTORE PUSH1 0x20 ADD PUSH1 0x1 DUP3 ADD SLOAD DUP2 MSTORE POP POP SWAP1 POP PUSH1 0x0 PUSH20 0xFFFFFFFFFFFFFFFFFFFFFFFFFFFFFFFFFFFFFFFF AND DUP2 PUSH1 0x0 ADD MLOAD PUSH20 0xFFFFFFFFFFFFFFFFFFFFFFFFFFFFFFFFFFFFFFFF AND SUB PUSH2 0x1462 JUMPI PUSH1 0x40 MLOAD PUSH32 0x8C379A000000000000000000000000000000000000000000000000000000000 DUP2 MSTORE PUSH1 0x4 ADD PUSH2 0x1459 SWAP1 PUSH2 0x2152 JUMP JUMPDEST PUSH1 0x40 MLOAD DUP1 SWAP2 SUB SWAP1 REVERT JUMPDEST DUP1 PUSH1 0x0 ADD MLOAD PUSH20 0xFFFFFFFFFFFFFFFFFFFFFFFFFFFFFFFFFFFFFFFF AND PUSH32 0x0 PUSH20 0xFFFFFFFFFFFFFFFFFFFFFFFFFFFFFFFFFFFFFFFF AND PUSH4 0x6352211E DUP5 PUSH1 0x40 MLOAD DUP3 PUSH4 0xFFFFFFFF AND PUSH1 0xE0 SHL DUP2 MSTORE PUSH1 0x4 ADD PUSH2 0x14D6 SWAP2 SWAP1 PUSH2 0x1CFB JUMP JUMPDEST PUSH1 0x20 PUSH1 0x40 MLOAD DUP1 DUP4 SUB DUP2 DUP7 GAS STATICCALL ISZERO DUP1 ISZERO PUSH2 0x14F3 JUMPI RETURNDATASIZE PUSH1 0x0 DUP1 RETURNDATACOPY RETURNDATASIZE PUSH1 0x0 REVERT JUMPDEST POP POP POP POP PUSH1 0x40 MLOAD RETURNDATASIZE PUSH1 0x1F NOT PUSH1 0x1F DUP3 ADD AND DUP3 ADD DUP1 PUSH1 0x40 MSTORE POP DUP2 ADD SWAP1 PUSH2 0x1517 SWAP2 SWAP1 PUSH2 0x1D42 JUMP JUMPDEST PUSH20 0xFFFFFFFFFFFFFFFFFFFFFFFFFFFFFFFFFFFFFFFF AND EQ PUSH2 0x156D JUMPI PUSH1 0x40 MLOAD PUSH32 0x8C379A000000000000000000000000000000000000000000000000000000000 DUP2 MSTORE PUSH1 0x4 ADD PUSH2 0x1564 SWAP1 PUSH2 0x23DA JUMP JUMPDEST PUSH1 0x40 MLOAD DUP1 SWAP2 SUB SWAP1 REVERT JUMPDEST DUP1 PUSH1 0x0 ADD MLOAD PUSH20 0xFFFFFFFFFFFFFFFFFFFFFFFFFFFFFFFFFFFFFFFF AND CALLER PUSH20 0xFFFFFFFFFFFFFFFFFFFFFFFFFFFFFFFFFFFFFFFF AND SUB PUSH2 0x15DF JUMPI PUSH1 0x40 MLOAD PUSH32 0x8C379A000000000000000000000000000000000000000000000000000000000 DUP2 MSTORE PUSH1 0x4 ADD PUSH2 0x15D6 SWAP1 PUSH2 0x2446 JUMP JUMPDEST PUSH1 0x40 MLOAD DUP1 SWAP2 SUB SWAP1 REVERT JUMPDEST DUP1 PUSH1 0x20 ADD MLOAD CALLVALUE EQ PUSH2 0x1625 JUMPI PUSH1 0x40 MLOAD PUSH32 0x8C379A000000000000000000000000000000000000000000000000000000000 DUP2 MSTORE PUSH1 0x4 ADD PUSH2 0x161C SWAP1 PUSH2 0x24B2 JUMP JUMPDEST PUSH1 0x40 MLOAD DUP1 SWAP2 SUB SWAP1 REVERT JUMPDEST PUSH2 0x1633 DUP2 PUSH1 0x0 ADD MLOAD DUP4 PUSH2 0x1904 JUMP JUMPDEST PUSH2 0x1672 JUMPI PUSH1 0x40 MLOAD PUSH32 0x8C379A000000000000000000000000000000000000000000000000000000000 DUP2 MSTORE PUSH1 0x4 ADD PUSH2 0x1669 SWAP1 PUSH2 0x2302 JUMP JUMPDEST PUSH1 0x40 MLOAD DUP1 SWAP2 SUB SWAP1 REVERT JUMPDEST PUSH1 0x1 PUSH1 0x0 DUP4 DUP2 MSTORE PUSH1 0x20 ADD SWAP1 DUP2 MSTORE PUSH1 0x20 ADD PUSH1 0x0 KECCAK256 PUSH1 0x0 DUP1 DUP3 ADD PUSH1 0x0 PUSH2 0x100 EXP DUP2 SLOAD SWAP1 PUSH20 0xFFFFFFFFFFFFFFFFFFFFFFFFFFFFFFFFFFFFFFFF MUL NOT AND SWAP1 SSTORE PUSH1 0x1 DUP3 ADD PUSH1 0x0 SWAP1 SSTORE POP POP PUSH1 0x0 DUP2 PUSH1 0x0 ADD MLOAD PUSH20 0xFFFFFFFFFFFFFFFFFFFFFFFFFFFFFFFFFFFFFFFF AND CALLVALUE PUSH1 0x40 MLOAD PUSH2 0x16E1 SWAP1 PUSH2 0x2503 JUMP JUMPDEST PUSH1 0x0 PUSH1 0x40 MLOAD DUP1 DUP4 SUB DUP2 DUP6 DUP8 GAS CALL SWAP3 POP POP POP RETURNDATASIZE DUP1 PUSH1 0x0 DUP2 EQ PUSH2 0x171E JUMPI PUSH1 0x40 MLOAD SWAP2 POP PUSH1 0x1F NOT PUSH1 0x3F RETURNDATASIZE ADD AND DUP3 ADD PUSH1 0x40 MSTORE RETURNDATASIZE DUP3 MSTORE RETURNDATASIZE PUSH1 0x0 PUSH1 0x20 DUP5 ADD RETURNDATACOPY PUSH2 0x1723 JUMP JUMPDEST PUSH1 0x60 SWAP2 POP JUMPDEST POP POP SWAP1 POP DUP1 PUSH2 0x1767 JUMPI PUSH1 0x40 MLOAD PUSH32 0x8C379A000000000000000000000000000000000000000000000000000000000 DUP2 MSTORE PUSH1 0x4 ADD PUSH2 0x175E SWAP1 PUSH2 0x2564 JUMP JUMPDEST PUSH1 0x40 MLOAD DUP1 SWAP2 SUB SWAP1 REVERT JUMPDEST PUSH32 0x0 PUSH20 0xFFFFFFFFFFFFFFFFFFFFFFFFFFFFFFFFFFFFFFFF AND PUSH4 0x42842E0E DUP4 PUSH1 0x0 ADD MLOAD CALLER DUP7 PUSH1 0x40 MLOAD DUP5 PUSH4 0xFFFFFFFF AND PUSH1 0xE0 SHL DUP2 MSTORE PUSH1 0x4 ADD PUSH2 0x17C8 SWAP4 SWAP3 SWAP2 SWAP1 PUSH2 0x1FF7 JUMP JUMPDEST PUSH1 0x0 PUSH1 0x40 MLOAD DUP1 DUP4 SUB DUP2 PUSH1 0x0 DUP8 DUP1 EXTCODESIZE ISZERO DUP1 ISZERO PUSH2 0x17E2 JUMPI PUSH1 0x0 DUP1 REVERT JUMPDEST POP GAS CALL ISZERO DUP1 ISZERO PUSH2 0x17F6 JUMPI RETURNDATASIZE PUSH1 0x0 DUP1 RETURNDATACOPY RETURNDATASIZE PUSH1 0x0 REVERT JUMPDEST POP POP POP POP DUP2 PUSH1 0x0 ADD MLOAD PUSH20 0xFFFFFFFFFFFFFFFFFFFFFFFFFFFFFFFFFFFFFFFF AND CALLER PUSH20 0xFFFFFFFFFFFFFFFFFFFFFFFFFFFFFFFFFFFFFFFF AND DUP5 PUSH32 0x888231F55A3CD8FD72276BC1B12ED5A60F8D92E62D288E64BF29DD6E5FC7809A CALLVALUE PUSH1 0x40 MLOAD PUSH2 0x185C SWAP2 SWAP1 PUSH2 0x1CFB JUMP JUMPDEST PUSH1 0x40 MLOAD DUP1 SWAP2 SUB SWAP1 LOG4 POP POP PUSH2 0x186E PUSH2 0x1A79 JUMP JUMPDEST POP JUMP JUMPDEST PUSH1 0x1 PUSH1 0x20 MSTORE DUP1 PUSH1 0x0 MSTORE PUSH1 0x40 PUSH1 0x0 KECCAK256 PUSH1 0x0 SWAP2 POP SWAP1 POP DUP1 PUSH1 0x0 ADD PUSH1 0x0 SWAP1 SLOAD SWAP1 PUSH2 0x100 EXP SWAP1 DIV PUSH20 0xFFFFFFFFFFFFFFFFFFFFFFFFFFFFFFFFFFFFFFFF AND SWAP1 DUP1 PUSH1 0x1 ADD SLOAD SWAP1 POP DUP3 JUMP JUMPDEST PUSH1 0x2 PUSH1 0x0 SLOAD SUB PUSH2 0x18FA JUMPI PUSH1 0x40 MLOAD PUSH32 0x8C379A000000000000000000000000000000000000000000000000000000000 DUP2 MSTORE PUSH1 0x4 ADD PUSH2 0x18F1 SWAP1 PUSH2 0x25D0 JUMP JUMPDEST PUSH1 0x40 MLOAD DUP1 SWAP2 SUB SWAP1 REVERT JUMPDEST PUSH1 0x2 PUSH1 0x0 DUP2 SWAP1 SSTORE POP JUMP JUMPDEST PUSH1 0x0 ADDRESS PUSH20 0xFFFFFFFFFFFFFFFFFFFFFFFFFFFFFFFFFFFFFFFF AND PUSH32 0x0 PUSH20 0xFFFFFFFFFFFFFFFFFFFFFFFFFFFFFFFFFFFFFFFF AND PUSH4 0x81812FC DUP5 PUSH1 0x40 MLOAD DUP3 PUSH4 0xFFFFFFFF AND PUSH1 0xE0 SHL DUP2 MSTORE PUSH1 0x4 ADD PUSH2 0x1976 SWAP2 SWAP1 PUSH2 0x1CFB JUMP JUMPDEST PUSH1 0x20 PUSH1 0x40 MLOAD DUP1 DUP4 SUB DUP2 DUP7 GAS STATICCALL ISZERO DUP1 ISZERO PUSH2 0x1993 JUMPI RETURNDATASIZE PUSH1 0x0 DUP1 RETURNDATACOPY RETURNDATASIZE PUSH1 0x0 REVERT JUMPDEST POP POP POP POP PUSH1 0x40 MLOAD RETURNDATASIZE PUSH1 0x1F NOT PUSH1 0x1F DUP3 ADD AND DUP3 ADD DUP1 PUSH1 0x40 MSTORE POP DUP2 ADD SWAP1 PUSH2 0x19B7 SWAP2 SWAP1 PUSH2 0x1D42 JUMP JUMPDEST PUSH20 0xFFFFFFFFFFFFFFFFFFFFFFFFFFFFFFFFFFFFFFFF AND EQ DUP1 PUSH2 0x1A71 JUMPI POP PUSH32 0x0 PUSH20 0xFFFFFFFFFFFFFFFFFFFFFFFFFFFFFFFFFFFFFFFF AND PUSH4 0xE985E9C5 DUP5 ADDRESS PUSH1 0x40 MLOAD DUP4 PUSH4 0xFFFFFFFF AND PUSH1 0xE0 SHL DUP2 MSTORE PUSH1 0x4 ADD PUSH2 0x1A2F SWAP3 SWAP2 SWAP1 PUSH2 0x25F0 JUMP JUMPDEST PUSH1 0x20 PUSH1 0x40 MLOAD DUP1 DUP4 SUB DUP2 DUP7 GAS STATICCALL ISZERO DUP1 ISZERO PUSH2 0x1A4C JUMPI RETURNDATASIZE PUSH1 0x0 DUP1 RETURNDATACOPY RETURNDATASIZE PUSH1 0x0 REVERT JUMPDEST POP POP POP POP PUSH1 0x40 MLOAD RETURNDATASIZE PUSH1 0x1F NOT PUSH1 0x1F DUP3 ADD AND DUP3 ADD DUP1 PUSH1 0x40 MSTORE POP DUP2 ADD SWAP1 PUSH2 0x1A70 SWAP2 SWAP1 PUSH2 0x2645 JUMP JUMPDEST JUMPDEST SWAP1 POP SWAP3 SWAP2 POP POP JUMP JUMPDEST PUSH1 0x1 PUSH1 0x0 DUP2 SWAP1 SSTORE POP JUMP JUMPDEST PUSH1 0x0 DUP1 REVERT JUMPDEST PUSH1 0x0 DUP2 SWAP1 POP SWAP2 SWAP1 POP JUMP JUMPDEST PUSH2 0x1A9B DUP2 PUSH2 0x1A88 JUMP JUMPDEST DUP2 EQ PUSH2 0x1AA6 JUMPI PUSH1 0x0 DUP1 REVERT JUMPDEST POP JUMP JUMPDEST PUSH1 0x0 DUP2 CALLDATALOAD SWAP1 POP PUSH2 0x1AB8 DUP2 PUSH2 0x1A92 JUMP JUMPDEST SWAP3 SWAP2 POP POP JUMP JUMPDEST PUSH1 0x0 PUSH1 0x20 DUP3 DUP5 SUB SLT ISZERO PUSH2 0x1AD4 JUMPI PUSH2 0x1AD3 PUSH2 0x1A83 JUMP JUMPDEST JUMPDEST PUSH1 0x0 PUSH2 0x1AE2 DUP5 DUP3 DUP6 ADD PUSH2 0x1AA9 JUMP JUMPDEST SWAP2 POP POP SWAP3 SWAP2 POP POP JUMP JUMPDEST PUSH1 0x0 DUP1 PUSH1 0x40 DUP4 DUP6 SUB SLT ISZERO PUSH2 0x1B02 JUMPI PUSH2 0x1B01 PUSH2 0x1A83 JUMP JUMPDEST JUMPDEST PUSH1 0x0 PUSH2 0x1B10 DUP6 DUP3 DUP7 ADD PUSH2 0x1AA9 JUMP JUMPDEST SWAP3 POP POP PUSH1 0x20 PUSH2 0x1B21 DUP6 DUP3 DUP7 ADD PUSH2 0x1AA9 JUMP JUMPDEST SWAP2 POP POP SWAP3 POP SWAP3 SWAP1 POP JUMP JUMPDEST PUSH1 0x0 PUSH20 0xFFFFFFFFFFFFFFFFFFFFFFFFFFFFFFFFFFFFFFFF DUP3 AND SWAP1 POP SWAP2 SWAP1 POP JUMP JUMPDEST PUSH1 0x0 DUP2 SWAP1 POP SWAP2 SWAP1 POP JUMP JUMPDEST PUSH1 0x0 PUSH2 0x1B70 PUSH2 0x1B6B PUSH2 0x1B66 DUP5 PUSH2 0x1B2B JUMP JUMPDEST PUSH2 0x1B4B JUMP JUMPDEST PUSH2 0x1B2B JUMP JUMPDEST SWAP1 POP SWAP2 SWAP1 POP JUMP JUMPDEST PUSH1 0x0 PUSH2 0x1B82 DUP3 PUSH2 0x1B55 JUMP JUMPDEST SWAP1 POP SWAP2 SWAP1 POP JUMP JUMPDEST PUSH1 0x0 PUSH2 0x1B94 DUP3 PUSH2 0x1B77 JUMP JUMPDEST SWAP1 POP SWAP2 SWAP1 POP JUMP JUMPDEST PUSH2 0x1BA4 DUP2 PUSH2 0x1B89 JUMP JUMPDEST DUP3 MSTORE POP POP JUMP JUMPDEST PUSH1 0x0 PUSH1 0x20 DUP3 ADD SWAP1 POP PUSH2 0x1BBF PUSH1 0x0 DUP4 ADD DUP5 PUSH2 0x1B9B JUMP JUMPDEST SWAP3 SWAP2 POP POP JUMP JUMPDEST PUSH1 0x0 PUSH2 0x1BD0 DUP3 PUSH2 0x1B2B JUMP JUMPDEST SWAP1 POP SWAP2 SWAP1 POP JUMP JUMPDEST PUSH2 0x1BE0 DUP2 PUSH2 0x1BC5 JUMP JUMPDEST DUP3 MSTORE POP POP JUMP JUMPDEST PUSH2 0x1BEF DUP2 PUSH2 0x1A88 JUMP JUMPDEST DUP3 MSTORE POP POP JUMP JUMPDEST PUSH1 0x0 DUP2 ISZERO ISZERO SWAP1 POP SWAP2 SWAP1 POP JUMP JUMPDEST PUSH2 0x1C0A DUP2 PUSH2 0x1BF5 JUMP JUMPDEST DUP3 MSTORE POP POP JUMP JUMPDEST PUSH1 0x0 PUSH1 0x80 DUP3 ADD SWAP1 POP PUSH2 0x1C25 PUSH1 0x0 DUP4 ADD DUP8 PUSH2 0x1BD7 JUMP JUMPDEST PUSH2 0x1C32 PUSH1 0x20 DUP4 ADD DUP7 PUSH2 0x1BE6 JUMP JUMPDEST PUSH2 0x1C3F PUSH1 0x40 DUP4 ADD DUP6 PUSH2 0x1BE6 JUMP JUMPDEST PUSH2 0x1C4C PUSH1 0x60 DUP4 ADD DUP5 PUSH2 0x1C01 JUMP JUMPDEST SWAP6 SWAP5 POP POP POP POP POP JUMP JUMPDEST PUSH1 0x0 PUSH1 0x40 DUP3 ADD SWAP1 POP PUSH2 0x1C6A PUSH1 0x0 DUP4 ADD DUP6 PUSH2 0x1BD7 JUMP JUMPDEST PUSH2 0x1C77 PUSH1 0x20 DUP4 ADD DUP5 PUSH2 0x1BE6 JUMP JUMPDEST SWAP4 SWAP3 POP POP POP JUMP JUMPDEST PUSH1 0x0 DUP3 DUP3 MSTORE PUSH1 0x20 DUP3 ADD SWAP1 POP SWAP3 SWAP2 POP POP JUMP JUMPDEST PUSH32 0x6E6F742061637469766500000000000000000000000000000000000000000000 PUSH1 0x0 DUP3 ADD MSTORE POP JUMP JUMPDEST PUSH1 0x0 PUSH2 0x1CC5 PUSH1 0xA DUP4 PUSH2 0x1C7E JUMP JUMPDEST SWAP2 POP PUSH2 0x1CD0 DUP3 PUSH2 0x1C8F JUMP JUMPDEST PUSH1 0x20 DUP3 ADD SWAP1 POP SWAP2 SWAP1 POP JUMP JUMPDEST PUSH1 0x0 PUSH1 0x20 DUP3 ADD SWAP1 POP DUP2 DUP2 SUB PUSH1 0x0 DUP4 ADD MSTORE PUSH2 0x1CF4 DUP2 PUSH2 0x1CB8 JUMP JUMPDEST SWAP1 POP SWAP2 SWAP1 POP JUMP JUMPDEST PUSH1 0x0 PUSH1 0x20 DUP3 ADD SWAP1 POP PUSH2 0x1D10 PUSH1 0x0 DUP4 ADD DUP5 PUSH2 0x1BE6 JUMP JUMPDEST SWAP3 SWAP2 POP POP JUMP JUMPDEST PUSH2 0x1D1F DUP2 PUSH2 0x1BC5 JUMP JUMPDEST DUP2 EQ PUSH2 0x1D2A JUMPI PUSH1 0x0 DUP1 REVERT JUMPDEST POP JUMP JUMPDEST PUSH1 0x0 DUP2 MLOAD SWAP1 POP PUSH2 0x1D3C DUP2 PUSH2 0x1D16 JUMP JUMPDEST SWAP3 SWAP2 POP POP JUMP JUMPDEST PUSH1 0x0 PUSH1 0x20 DUP3 DUP5 SUB SLT ISZERO PUSH2 0x1D58 JUMPI PUSH2 0x1D57 PUSH2 0x1A83 JUMP JUMPDEST JUMPDEST PUSH1 0x0 PUSH2 0x1D66 DUP5 DUP3 DUP6 ADD PUSH2 0x1D2D JUMP JUMPDEST SWAP2 POP POP SWAP3 SWAP2 POP POP JUMP JUMPDEST PUSH32 0x6D616B6572206E6F74206F776E6572206E6F7700000000000000000000000000 PUSH1 0x0 DUP3 ADD MSTORE POP JUMP JUMPDEST PUSH1 0x0 PUSH2 0x1DA5 PUSH1 0x13 DUP4 PUSH2 0x1C7E JUMP JUMPDEST SWAP2 POP PUSH2 0x1DB0 DUP3 PUSH2 0x1D6F JUMP JUMPDEST PUSH1 0x20 DUP3 ADD SWAP1 POP SWAP2 SWAP1 POP JUMP JUMPDEST PUSH1 0x0 PUSH1 0x20 DUP3 ADD SWAP1 POP DUP2 DUP2 SUB PUSH1 0x0 DUP4 ADD MSTORE PUSH2 0x1DD4 DUP2 PUSH2 0x1D98 JUMP JUMPDEST SWAP1 POP SWAP2 SWAP1 POP JUMP JUMPDEST PUSH32 0x74616B6572206E6F74206F776E65722077616E74656400000000000000000000 PUSH1 0x0 DUP3 ADD MSTORE POP JUMP JUMPDEST PUSH1 0x0 PUSH2 0x1E11 PUSH1 0x16 DUP4 PUSH2 0x1C7E JUMP JUMPDEST SWAP2 POP PUSH2 0x1E1C DUP3 PUSH2 0x1DDB JUMP JUMPDEST PUSH1 0x20 DUP3 ADD SWAP1 POP SWAP2 SWAP1 POP JUMP JUMPDEST PUSH1 0x0 PUSH1 0x20 DUP3 ADD SWAP1 POP DUP2 DUP2 SUB PUSH1 0x0 DUP4 ADD MSTORE PUSH2 0x1E40 DUP2 PUSH2 0x1E04 JUMP JUMPDEST SWAP1 POP SWAP2 SWAP1 POP JUMP JUMPDEST PUSH32 0x6D61726B6574206E6F7420617070726F766564206F6666657265640000000000 PUSH1 0x0 DUP3 ADD MSTORE POP JUMP JUMPDEST PUSH1 0x0 PUSH2 0x1E7D PUSH1 0x1B DUP4 PUSH2 0x1C7E JUMP JUMPDEST SWAP2 POP PUSH2 0x1E88 DUP3 PUSH2 0x1E47 JUMP JUMPDEST PUSH1 0x20 DUP3 ADD SWAP1 POP SWAP2 SWAP1 POP JUMP JUMPDEST PUSH1 0x0 PUSH1 0x20 DUP3 ADD SWAP1 POP DUP2 DUP2 SUB PUSH1 0x0 DUP4 ADD MSTORE PUSH2 0x1EAC DUP2 PUSH2 0x1E70 JUMP JUMPDEST SWAP1 POP SWAP2 SWAP1 POP JUMP JUMPDEST PUSH32 0x6D61726B6574206E6F7420617070726F7665642077616E746564000000000000 PUSH1 0x0 DUP3 ADD MSTORE POP JUMP JUMPDEST PUSH1 0x0 PUSH2 0x1EE9 PUSH1 0x1A DUP4 PUSH2 0x1C7E JUMP JUMPDEST SWAP2 POP PUSH2 0x1EF4 DUP3 PUSH2 0x1EB3 JUMP JUMPDEST PUSH1 0x20 DUP3 ADD SWAP1 POP SWAP2 SWAP1 POP JUMP JUMPDEST PUSH1 0x0 PUSH1 0x20 DUP3 ADD SWAP1 POP DUP2 DUP2 SUB PUSH1 0x0 DUP4 ADD MSTORE PUSH2 0x1F18 DUP2 PUSH2 0x1EDC JUMP JUMPDEST SWAP1 POP SWAP2 SWAP1 POP JUMP JUMPDEST PUSH32 0x6F66666572656420746F6B656E206C6973746564000000000000000000000000 PUSH1 0x0 DUP3 ADD MSTORE POP JUMP JUMPDEST PUSH1 0x0 PUSH2 0x1F55 PUSH1 0x14 DUP4 PUSH2 0x1C7E JUMP JUMPDEST SWAP2 POP PUSH2 0x1F60 DUP3 PUSH2 0x1F1F JUMP JUMPDEST PUSH1 0x20 DUP3 ADD SWAP1 POP SWAP2 SWAP1 POP JUMP JUMPDEST PUSH1 0x0 PUSH1 0x20 DUP3 ADD SWAP1 POP DUP2 DUP2 SUB PUSH1 0x0 DUP4 ADD MSTORE PUSH2 0x1F84 DUP2 PUSH2 0x1F48 JUMP JUMPDEST SWAP1 POP SWAP2 SWAP1 POP JUMP JUMPDEST PUSH32 0x77616E74656420746F6B656E206C697374656400000000000000000000000000 PUSH1 0x0 DUP3 ADD MSTORE POP JUMP JUMPDEST PUSH1 0x0 PUSH2 0x1FC1 PUSH1 0x13 DUP4 PUSH2 0x1C7E JUMP JUMPDEST SWAP2 POP PUSH2 0x1FCC DUP3 PUSH2 0x1F8B JUMP JUMPDEST PUSH1 0x20 DUP3 ADD SWAP1 POP SWAP2 SWAP1 POP JUMP JUMPDEST PUSH1 0x0 PUSH1 0x20 DUP3 ADD SWAP1 POP DUP2 DUP2 SUB PUSH1 0x0 DUP4 ADD MSTORE PUSH2 0x1FF0 DUP2 PUSH2 0x1FB4 JUMP JUMPDEST SWAP1 POP SWAP2 SWAP1 POP JUMP JUMPDEST PUSH1 0x0 PUSH1 0x60 DUP3 ADD SWAP1 POP PUSH2 0x200C PUSH1 0x0 DUP4 ADD DUP7 PUSH2 0x1BD7 JUMP JUMPDEST PUSH2 0x2019 PUSH1 0x20 DUP4 ADD DUP6 PUSH2 0x1BD7 JUMP JUMPDEST PUSH2 0x2026 PUSH1 0x40 DUP4 ADD DUP5 PUSH2 0x1BE6 JUMP JUMPDEST SWAP5 SWAP4 POP POP POP POP JUMP JUMPDEST PUSH32 0x73616D6520746F6B656E00000000000000000000000000000000000000000000 PUSH1 0x0 DUP3 ADD MSTORE POP JUMP JUMPDEST PUSH1 0x0 PUSH2 0x2064 PUSH1 0xA DUP4 PUSH2 0x1C7E JUMP JUMPDEST SWAP2 POP PUSH2 0x206F DUP3 PUSH2 0x202E JUMP JUMPDEST PUSH1 0x20 DUP3 ADD SWAP1 POP SWAP2 SWAP1 POP JUMP JUMPDEST PUSH1 0x0 PUSH1 0x20 DUP3 ADD SWAP1 POP DUP2 DUP2 SUB PUSH1 0x0 DUP4 ADD MSTORE PUSH2 0x2093 DUP2 PUSH2 0x2057 JUMP JUMPDEST SWAP1 POP SWAP2 SWAP1 POP JUMP JUMPDEST PUSH32 0x6E6F74206F776E6572206F666665726564000000000000000000000000000000 PUSH1 0x0 DUP3 ADD MSTORE POP JUMP JUMPDEST PUSH1 0x0 PUSH2 0x20D0 PUSH1 0x11 DUP4 PUSH2 0x1C7E JUMP JUMPDEST SWAP2 POP PUSH2 0x20DB DUP3 PUSH2 0x209A JUMP JUMPDEST PUSH1 0x20 DUP3 ADD SWAP1 POP SWAP2 SWAP1 POP JUMP JUMPDEST PUSH1 0x0 PUSH1 0x20 DUP3 ADD SWAP1 POP DUP2 DUP2 SUB PUSH1 0x0 DUP4 ADD MSTORE PUSH2 0x20FF DUP2 PUSH2 0x20C3 JUMP JUMPDEST SWAP1 POP SWAP2 SWAP1 POP JUMP JUMPDEST PUSH32 0x6E6F74206C697374656400000000000000000000000000000000000000000000 PUSH1 0x0 DUP3 ADD MSTORE POP JUMP JUMPDEST PUSH1 0x0 PUSH2 0x213C PUSH1 0xA DUP4 PUSH2 0x1C7E JUMP JUMPDEST SWAP2 POP PUSH2 0x2147 DUP3 PUSH2 0x2106 JUMP JUMPDEST PUSH1 0x20 DUP3 ADD SWAP1 POP SWAP2 SWAP1 POP JUMP JUMPDEST PUSH1 0x0 PUSH1 0x20 DUP3 ADD SWAP1 POP DUP2 DUP2 SUB PUSH1 0x0 DUP4 ADD MSTORE PUSH2 0x216B DUP2 PUSH2 0x212F JUMP JUMPDEST SWAP1 POP SWAP2 SWAP1 POP JUMP JUMPDEST PUSH32 0x6E6F742073656C6C657200000000000000000000000000000000000000000000 PUSH1 0x0 DUP3 ADD MSTORE POP JUMP JUMPDEST PUSH1 0x0 PUSH2 0x21A8 PUSH1 0xA DUP4 PUSH2 0x1C7E JUMP JUMPDEST SWAP2 POP PUSH2 0x21B3 DUP3 PUSH2 0x2172 JUMP JUMPDEST PUSH1 0x20 DUP3 ADD SWAP1 POP SWAP2 SWAP1 POP JUMP JUMPDEST PUSH1 0x0 PUSH1 0x20 DUP3 ADD SWAP1 POP DUP2 DUP2 SUB PUSH1 0x0 DUP4 ADD MSTORE PUSH2 0x21D7 DUP2 PUSH2 0x219B JUMP JUMPDEST SWAP1 POP SWAP2 SWAP1 POP JUMP JUMPDEST PUSH32 0x70726963653D3000000000000000000000000000000000000000000000000000 PUSH1 0x0 DUP3 ADD MSTORE POP JUMP JUMPDEST PUSH1 0x0 PUSH2 0x2214 PUSH1 0x7 DUP4 PUSH2 0x1C7E JUMP JUMPDEST SWAP2 POP PUSH2 0x221F DUP3 PUSH2 0x21DE JUMP JUMPDEST PUSH1 0x20 DUP3 ADD SWAP1 POP SWAP2 SWAP1 POP JUMP JUMPDEST PUSH1 0x0 PUSH1 0x20 DUP3 ADD SWAP1 POP DUP2 DUP2 SUB PUSH1 0x0 DUP4 ADD MSTORE PUSH2 0x2243 DUP2 PUSH2 0x2207 JUMP JUMPDEST SWAP1 POP SWAP2 SWAP1 POP JUMP JUMPDEST PUSH32 0x6E6F74206F776E65720000000000000000000000000000000000000000000000 PUSH1 0x0 DUP3 ADD MSTORE POP JUMP JUMPDEST PUSH1 0x0 PUSH2 0x2280 PUSH1 0x9 DUP4 PUSH2 0x1C7E JUMP JUMPDEST SWAP2 POP PUSH2 0x228B DUP3 PUSH2 0x224A JUMP JUMPDEST PUSH1 0x20 DUP3 ADD SWAP1 POP SWAP2 SWAP1 POP JUMP JUMPDEST PUSH1 0x0 PUSH1 0x20 DUP3 ADD SWAP1 POP DUP2 DUP2 SUB PUSH1 0x0 DUP4 ADD MSTORE PUSH2 0x22AF DUP2 PUSH2 0x2273 JUMP JUMPDEST SWAP1 POP SWAP2 SWAP1 POP JUMP JUMPDEST PUSH32 0x6D61726B6574206E6F7420617070726F76656400000000000000000000000000 PUSH1 0x0 DUP3 ADD MSTORE POP JUMP JUMPDEST PUSH1 0x0 PUSH2 0x22EC PUSH1 0x13 DUP4 PUSH2 0x1C7E JUMP JUMPDEST SWAP2 POP PUSH2 0x22F7 DUP3 PUSH2 0x22B6 JUMP JUMPDEST PUSH1 0x20 DUP3 ADD SWAP1 POP SWAP2 SWAP1 POP JUMP JUMPDEST PUSH1 0x0 PUSH1 0x20 DUP3 ADD SWAP1 POP DUP2 DUP2 SUB PUSH1 0x0 DUP4 ADD MSTORE PUSH2 0x231B DUP2 PUSH2 0x22DF JUMP JUMPDEST SWAP1 POP SWAP2 SWAP1 POP JUMP JUMPDEST PUSH32 0x6E6F74206D616B65720000000000000000000000000000000000000000000000 PUSH1 0x0 DUP3 ADD MSTORE POP JUMP JUMPDEST PUSH1 0x0 PUSH2 0x2358 PUSH1 0x9 DUP4 PUSH2 0x1C7E JUMP JUMPDEST SWAP2 POP PUSH2 0x2363 DUP3 PUSH2 0x2322 JUMP JUMPDEST PUSH1 0x20 DUP3 ADD SWAP1 POP SWAP2 SWAP1 POP JUMP JUMPDEST PUSH1 0x0 PUSH1 0x20 DUP3 ADD SWAP1 POP DUP2 DUP2 SUB PUSH1 0x0 DUP4 ADD MSTORE PUSH2 0x2387 DUP2 PUSH2 0x234B JUMP JUMPDEST SWAP1 POP SWAP2 SWAP1 POP JUMP JUMPDEST PUSH32 0x73656C6C6572206E6F206C6F6E676572206F776E657200000000000000000000 PUSH1 0x0 DUP3 ADD MSTORE POP JUMP JUMPDEST PUSH1 0x0 PUSH2 0x23C4 PUSH1 0x16 DUP4 PUSH2 0x1C7E JUMP JUMPDEST SWAP2 POP PUSH2 0x23CF DUP3 PUSH2 0x238E JUMP JUMPDEST PUSH1 0x20 DUP3 ADD SWAP1 POP SWAP2 SWAP1 POP JUMP JUMPDEST PUSH1 0x0 PUSH1 0x20 DUP3 ADD SWAP1 POP DUP2 DUP2 SUB PUSH1 0x0 DUP4 ADD MSTORE PUSH2 0x23F3 DUP2 PUSH2 0x23B7 JUMP JUMPDEST SWAP1 POP SWAP2 SWAP1 POP JUMP JUMPDEST PUSH32 0x73656C6620627579000000000000000000000000000000000000000000000000 PUSH1 0x0 DUP3 ADD MSTORE POP JUMP JUMPDEST PUSH1 0x0 PUSH2 0x2430 PUSH1 0x8 DUP4 PUSH2 0x1C7E JUMP JUMPDEST SWAP2 POP PUSH2 0x243B DUP3 PUSH2 0x23FA JUMP JUMPDEST PUSH1 0x20 DUP3 ADD SWAP1 POP SWAP2 SWAP1 POP JUMP JUMPDEST PUSH1 0x0 PUSH1 0x20 DUP3 ADD SWAP1 POP DUP2 DUP2 SUB PUSH1 0x0 DUP4 ADD MSTORE PUSH2 0x245F DUP2 PUSH2 0x2423 JUMP JUMPDEST SWAP1 POP SWAP2 SWAP1 POP JUMP JUMPDEST PUSH32 0x77726F6E672076616C7565000000000000000000000000000000000000000000 PUSH1 0x0 DUP3 ADD MSTORE POP JUMP JUMPDEST PUSH1 0x0 PUSH2 0x249C PUSH1 0xB DUP4 PUSH2 0x1C7E JUMP JUMPDEST SWAP2 POP PUSH2 0x24A7 DUP3 PUSH2 0x2466 JUMP JUMPDEST PUSH1 0x20 DUP3 ADD SWAP1 POP SWAP2 SWAP1 POP JUMP JUMPDEST PUSH1 0x0 PUSH1 0x20 DUP3 ADD SWAP1 POP DUP2 DUP2 SUB PUSH1 0x0 DUP4 ADD MSTORE PUSH2 0x24CB DUP2 PUSH2 0x248F JUMP JUMPDEST SWAP1 POP SWAP2 SWAP1 POP JUMP JUMPDEST PUSH1 0x0 DUP2 SWAP1 POP SWAP3 SWAP2 POP POP JUMP JUMPDEST POP JUMP JUMPDEST PUSH1 0x0 PUSH2 0x24ED PUSH1 0x0 DUP4 PUSH2 0x24D2 JUMP JUMPDEST SWAP2 POP PUSH2 0x24F8 DUP3 PUSH2 0x24DD JUMP JUMPDEST PUSH1 0x0 DUP3 ADD SWAP1 POP SWAP2 SWAP1 POP JUMP JUMPDEST PUSH1 0x0 PUSH2 0x250E DUP3 PUSH2 0x24E0 JUMP JUMPDEST SWAP2 POP DUP2 SWAP1 POP SWAP2 SWAP1 POP JUMP JUMPDEST PUSH32 0x7061796D656E74206661696C6564000000000000000000000000000000000000 PUSH1 0x0 DUP3 ADD MSTORE POP JUMP JUMPDEST PUSH1 0x0 PUSH2 0x254E PUSH1 0xE DUP4 PUSH2 0x1C7E JUMP JUMPDEST SWAP2 POP PUSH2 0x2559 DUP3 PUSH2 0x2518 JUMP JUMPDEST PUSH1 0x20 DUP3 ADD SWAP1 POP SWAP2 SWAP1 POP JUMP JUMPDEST PUSH1 0x0 PUSH1 0x20 DUP3 ADD SWAP1 POP DUP2 DUP2 SUB PUSH1 0x0 DUP4 ADD MSTORE PUSH2 0x257D DUP2 PUSH2 0x2541 JUMP JUMPDEST SWAP1 POP SWAP2 SWAP1 POP JUMP JUMPDEST PUSH32 0x5265656E7472616E637947756172643A207265656E7472616E742063616C6C00 PUSH1 0x0 DUP3 ADD MSTORE POP JUMP JUMPDEST PUSH1 0x0 PUSH2 0x25BA PUSH1 0x1F DUP4 PUSH2 0x1C7E JUMP JUMPDEST SWAP2 POP PUSH2 0x25C5 DUP3 PUSH2 0x2584 JUMP JUMPDEST PUSH1 0x20 DUP3 ADD SWAP1 POP SWAP2 SWAP1 POP JUMP JUMPDEST PUSH1 0x0 PUSH1 0x20 DUP3 ADD SWAP1 POP DUP2 DUP2 SUB PUSH1 0x0 DUP4 ADD MSTORE PUSH2 0x25E9 DUP2 PUSH2 0x25AD JUMP JUMPDEST SWAP1 POP SWAP2 SWAP1 POP JUMP JUMPDEST PUSH1 0x0 PUSH1 0x40 DUP3 ADD SWAP1 POP PUSH2 0x2605 PUSH1 0x0 DUP4 ADD DUP6 PUSH2 0x1BD7 JUMP JUMPDEST PUSH2 0x2612 PUSH1 0x20 DUP4 ADD DUP5 PUSH2 0x1BD7 JUMP JUMPDEST SWAP4 SWAP3 POP POP POP JUMP JUMPDEST PUSH2 0x2622 DUP2 PUSH2 0x1BF5 JUMP JUMPDEST DUP2 EQ PUSH2 0x262D JUMPI PUSH1 0x0 DUP1 REVERT JUMPDEST POP JUMP JUMPDEST PUSH1 0x0 DUP2 MLOAD SWAP1 POP PUSH2 0x263F DUP2 PUSH2 0x2619 JUMP JUMPDEST SWAP3 SWAP2 POP POP JUMP JUMPDEST PUSH1 0x0 PUSH1 0x20 DUP3 DUP5 SUB SLT ISZERO PUSH2 0x265B JUMPI PUSH2 0x265A PUSH2 0x1A83 JUMP JUMPDEST JUMPDEST PUSH1 0x0 PUSH2 0x2669 DUP5 DUP3 DUP6 ADD PUSH2 0x2630 JUMP JUMPDEST SWAP2 POP POP SWAP3 SWAP2 POP POP JUMP INVALID LOG2 PUSH5 0x6970667358 0x22 SLT KECCAK256 0xB7 0xB0 MSTORE POP EXTCALL SWAP16 0x2D EXP DUP16 0xD3 0xCA PUSH13 0x7005C6F8C01111A216A46BCF21 SHL 0xD7 0xAE DUP14 0x2B 0xB8 DUP16 PUSH5 0x736F6C6343 STOP ADDMOD 0x1E STOP CALLER "
				},
				"gasEstimates": {
					"creation": {
						"codeDepositCost": "1979200",
						"executionCost": "infinite",
						"totalCost": "infinite"
					},
					"external": {
						"acceptSwap(uint256)": "infinite",
						"buy(uint256)": "infinite",
						"cancel(uint256)": "35842",
						"cancelSwap(uint256)": "69360",
						"list(uint256,uint256)": "infinite",
						"listings(uint256)": "infinite",
						"nft()": "infinite",
						"offerSwap(uint256,uint256)": "infinite",
						"swapOffers(uint256)": "infinite"
					},
					"internal": {
						"_isApprovedOrOwner(address,uint256)": "infinite"
					}
				},
				"methodIdentifiers": {
					"acceptSwap(uint256)": "1bf33004",
					"buy(uint256)": "d96a094a",
					"cancel(uint256)": "40e58ee5",
					"cancelSwap(uint256)": "54d6a2b7",
					"list(uint256,uint256)": "50fd7367",
					"listings(uint256)": "de74e57b",
					"nft()": "47ccca02",
					"offerSwap(uint256,uint256)": "1d3a566d",
					"swapOffers(uint256)": "a13f1c62"
				}
			},
			"storageLayout": {
				"storage": [
					{
						"astId": 10,
						"contract": "contratoTransaccion.sol:CardNFTMarketNative",
						"label": "_status",
						"offset": 0,
						"slot": "0",
						"type": "t_uint256"
					},
					{
						"astId": 212,
						"contract": "contratoTransaccion.sol:CardNFTMarketNative",
						"label": "listings",
						"offset": 0,
						"slot": "1",
						"type": "t_mapping(t_uint256,t_struct(Listing)207_storage)"
					},
					{
						"astId": 250,
						"contract": "contratoTransaccion.sol:CardNFTMarketNative",
						"label": "swapOffers",
						"offset": 0,
						"slot": "2",
						"type": "t_mapping(t_uint256,t_struct(SwapOffer)245_storage)"
					}
				],
				"types": {
					"t_address": {
						"encoding": "inplace",
						"label": "address",
						"numberOfBytes": "20"
					},
					"t_bool": {
						"encoding": "inplace",
						"label": "bool",
						"numberOfBytes": "1"
					},
					"t_mapping(t_uint256,t_struct(Listing)207_storage)": {
						"encoding": "mapping",
						"key": "t_uint256",
						"label": "mapping(uint256 => struct CardNFTMarketNative.Listing)",
						"numberOfBytes": "32",
						"value": "t_struct(Listing)207_storage"
					},
					"t_mapping(t_uint256,t_struct(SwapOffer)245_storage)": {
						"encoding": "mapping",
						"key": "t_uint256",
						"label": "mapping(uint256 => struct CardNFTMarketNative.SwapOffer)",
						"numberOfBytes": "32",
						"value": "t_struct(SwapOffer)245_storage"
					},
					"t_struct(Listing)207_storage": {
						"encoding": "inplace",
						"label": "struct CardNFTMarketNative.Listing",
						"members": [
							{
								"astId": 204,
								"contract": "contratoTransaccion.sol:CardNFTMarketNative",
								"label": "seller",
								"offset": 0,
								"slot": "0",
								"type": "t_address"
							},
							{
								"astId": 206,
								"contract": "contratoTransaccion.sol:CardNFTMarketNative",
								"label": "price",
								"offset": 0,
								"slot": "1",
								"type": "t_uint256"
							}
						],
						"numberOfBytes": "64"
					},
					"t_struct(SwapOffer)245_storage": {
						"encoding": "inplace",
						"label": "struct CardNFTMarketNative.SwapOffer",
						"members": [
							{
								"astId": 238,
								"contract": "contratoTransaccion.sol:CardNFTMarketNative",
								"label": "maker",
								"offset": 0,
								"slot": "0",
								"type": "t_address"
							},
							{
								"astId": 240,
								"contract": "contratoTransaccion.sol:CardNFTMarketNative",
								"label": "offeredTokenId",
								"offset": 0,
								"slot": "1",
								"type": "t_uint256"
							},
							{
								"astId": 242,
								"contract": "contratoTransaccion.sol:CardNFTMarketNative",
								"label": "wantedTokenId",
								"offset": 0,
								"slot": "2",
								"type": "t_uint256"
							},
							{
								"astId": 244,
								"contract": "contratoTransaccion.sol:CardNFTMarketNative",
								"label": "active",
								"offset": 0,
								"slot": "3",
								"type": "t_bool"
							}
						],
						"numberOfBytes": "128"
					},
					"t_uint256": {
						"encoding": "inplace",
						"label": "uint256",
						"numberOfBytes": "32"
					}
				}
			},
			"userdoc": {
				"kind": "user",
				"methods": {},
				"version": 1
			}
		}
	}
}